{
	"contracts/functions.sol": {
		"Child": {
			"abi": [
				{
					"inputs": [
						{
							"internalType": "uint256",
							"name": "a",
							"type": "uint256"
						},
						{
							"internalType": "uint256",
							"name": "b",
							"type": "uint256"
						}
					],
					"name": "add",
					"outputs": [
						{
							"internalType": "uint256",
							"name": "",
							"type": "uint256"
						}
					],
					"stateMutability": "pure",
					"type": "function"
				},
				{
					"inputs": [
						{
							"internalType": "uint256",
							"name": "_num",
							"type": "uint256"
						}
					],
					"name": "getNumber",
					"outputs": [],
					"stateMutability": "nonpayable",
					"type": "function"
				},
				{
					"inputs": [],
					"name": "getParentNum",
					"outputs": [
						{
							"internalType": "uint256",
							"name": "",
							"type": "uint256"
						}
					],
					"stateMutability": "view",
					"type": "function"
				},
				{
					"inputs": [],
					"name": "getnum",
					"outputs": [
						{
							"internalType": "uint256",
							"name": "",
							"type": "uint256"
						}
					],
					"stateMutability": "view",
					"type": "function"
				},
				{
					"inputs": [],
					"name": "myNumber",
					"outputs": [
						{
							"internalType": "uint256",
							"name": "",
							"type": "uint256"
						}
					],
					"stateMutability": "view",
					"type": "function"
				},
				{
					"inputs": [],
					"name": "num",
					"outputs": [
						{
							"internalType": "uint256",
							"name": "",
							"type": "uint256"
						}
					],
					"stateMutability": "view",
					"type": "function"
				},
				{
					"inputs": [],
					"name": "revealPrivateNumber",
					"outputs": [
						{
							"internalType": "uint256",
							"name": "",
							"type": "uint256"
						}
					],
					"stateMutability": "view",
					"type": "function"
				},
				{
					"inputs": [
						{
							"internalType": "uint256",
							"name": "_num",
							"type": "uint256"
						}
					],
					"name": "setNum",
					"outputs": [],
					"stateMutability": "nonpayable",
					"type": "function"
				},
				{
					"inputs": [
						{
							"internalType": "uint256",
							"name": "_num",
							"type": "uint256"
						}
					],
					"name": "setNumber",
					"outputs": [],
					"stateMutability": "nonpayable",
					"type": "function"
				},
				{
					"inputs": [
						{
							"internalType": "uint256",
							"name": "_num",
							"type": "uint256"
						}
					],
					"name": "updateParentNum",
					"outputs": [],
					"stateMutability": "nonpayable",
					"type": "function"
				}
			],
			"devdoc": {
				"kind": "dev",
				"methods": {},
				"version": 1
			},
			"evm": {
				"assembly": "    /* \"contracts/functions.sol\":2322:2544  contract Child is MyContract {... */\n  mstore(0x40, 0x80)\n    /* \"contracts/functions.sol\":633:635  45 */\n  0x2d\n    /* \"contracts/functions.sol\":610:635  uint private  secret = 45 */\n  0x01\n  sstore\n    /* \"contracts/functions.sol\":1277:1279  20 */\n  0x14\n    /* \"contracts/functions.sol\":1249:1279  uint internal parentNumer = 20 */\n  0x02\n  sstore\n    /* \"contracts/functions.sol\":1598:1599  3 */\n  0x03\n    /* \"contracts/functions.sol\":1580:1599  uint public num = 3 */\n  dup1\n  sstore\n    /* \"contracts/functions.sol\":2322:2544  contract Child is MyContract {... */\n  callvalue\n  dup1\n  iszero\n  tag_1\n  jumpi\n  revert(0x00, 0x00)\ntag_1:\n  pop\n  dataSize(sub_0)\n  dup1\n  dataOffset(sub_0)\n  0x00\n  codecopy\n  0x00\n  return\nstop\n\nsub_0: assembly {\n        /* \"contracts/functions.sol\":2322:2544  contract Child is MyContract {... */\n      mstore(0x40, 0x80)\n      callvalue\n      dup1\n      iszero\n      tag_1\n      jumpi\n      revert(0x00, 0x00)\n    tag_1:\n      pop\n      jumpi(tag_2, lt(calldatasize, 0x04))\n      shr(0xe0, calldataload(0x00))\n      dup1\n      0x771602f7\n      gt\n      tag_13\n      jumpi\n      dup1\n      0x771602f7\n      eq\n      tag_8\n      jumpi\n      dup1\n      0x7d368873\n      eq\n      tag_9\n      jumpi\n      dup1\n      0xbbd1fa84\n      eq\n      tag_10\n      jumpi\n      dup1\n      0xcd16ecbf\n      eq\n      tag_11\n      jumpi\n      dup1\n      0xfc563658\n      eq\n      tag_12\n      jumpi\n      jump(tag_2)\n    tag_13:\n      dup1\n      0x06599331\n      eq\n      tag_3\n      jumpi\n      dup1\n      0x23fd0e40\n      eq\n      tag_4\n      jumpi\n      dup1\n      0x3fb5c1cb\n      eq\n      tag_5\n      jumpi\n      dup1\n      0x4e70b1dc\n      eq\n      tag_6\n      jumpi\n      dup1\n      0x5aedce4c\n      eq\n      tag_7\n      jumpi\n    tag_2:\n      revert(0x00, 0x00)\n        /* \"contracts/functions.sol\":2358:2441  function updateParentNum (uint _num) public {... */\n    tag_3:\n      tag_14\n      0x04\n      dup1\n      calldatasize\n      sub\n      dup2\n      add\n      swap1\n      tag_15\n      swap2\n      swap1\n      tag_16\n      jump\t// in\n    tag_15:\n      tag_17\n      jump\t// in\n    tag_14:\n      stop\n        /* \"contracts/functions.sol\":410:431  uint public  myNumber */\n    tag_4:\n      tag_18\n      tag_19\n      jump\t// in\n    tag_18:\n      mload(0x40)\n      tag_20\n      swap2\n      swap1\n      tag_21\n      jump\t// in\n    tag_20:\n      mload(0x40)\n      dup1\n      swap2\n      sub\n      swap1\n      return\n        /* \"contracts/functions.sol\":1607:1670  function setNumber(uint _num) external {... */\n    tag_5:\n      tag_22\n      0x04\n      dup1\n      calldatasize\n      sub\n      dup2\n      add\n      swap1\n      tag_23\n      swap2\n      swap1\n      tag_16\n      jump\t// in\n    tag_23:\n      tag_24\n      jump\t// in\n    tag_22:\n      stop\n        /* \"contracts/functions.sol\":1580:1599  uint public num = 3 */\n    tag_6:\n      tag_25\n      tag_26\n      jump\t// in\n    tag_25:\n      mload(0x40)\n      tag_27\n      swap2\n      swap1\n      tag_21\n      jump\t// in\n    tag_27:\n      mload(0x40)\n      dup1\n      swap2\n      sub\n      swap1\n      return\n        /* \"contracts/functions.sol\":959:1056  function revealPrivateNumber() public  view returns (uint) {... */\n    tag_7:\n      tag_28\n      tag_29\n      jump\t// in\n    tag_28:\n      mload(0x40)\n      tag_30\n      swap2\n      swap1\n      tag_21\n      jump\t// in\n    tag_30:\n      mload(0x40)\n      dup1\n      swap2\n      sub\n      swap1\n      return\n        /* \"contracts/functions.sol\":2233:2313  function add(uint a, uint b) public pure returns (uint) {... */\n    tag_8:\n      tag_31\n      0x04\n      dup1\n      calldatasize\n      sub\n      dup2\n      add\n      swap1\n      tag_32\n      swap2\n      swap1\n      tag_33\n      jump\t// in\n    tag_32:\n      tag_34\n      jump\t// in\n    tag_31:\n      mload(0x40)\n      tag_35\n      swap2\n      swap1\n      tag_21\n      jump\t// in\n    tag_35:\n      mload(0x40)\n      dup1\n      swap2\n      sub\n      swap1\n      return\n        /* \"contracts/functions.sol\":1840:1909  function getnum() public view returns (uint) {... */\n    tag_9:\n      tag_36\n      tag_37\n      jump\t// in\n    tag_36:\n      mload(0x40)\n      tag_38\n      swap2\n      swap1\n      tag_21\n      jump\t// in\n    tag_38:\n      mload(0x40)\n      dup1\n      swap2\n      sub\n      swap1\n      return\n        /* \"contracts/functions.sol\":2449:2541  function getParentNum () public  view  returns (uint) {... */\n    tag_10:\n      tag_39\n      tag_40\n      jump\t// in\n    tag_39:\n      mload(0x40)\n      tag_41\n      swap2\n      swap1\n      tag_21\n      jump\t// in\n    tag_41:\n      mload(0x40)\n      dup1\n      swap2\n      sub\n      swap1\n      return\n        /* \"contracts/functions.sol\":440:510  function setNum(uint _num) public {... */\n    tag_11:\n      tag_42\n      0x04\n      dup1\n      calldatasize\n      sub\n      dup2\n      add\n      swap1\n      tag_43\n      swap2\n      swap1\n      tag_16\n      jump\t// in\n    tag_43:\n      tag_44\n      jump\t// in\n    tag_42:\n      stop\n        /* \"contracts/functions.sol\":1678:1832  function getNumber(uint _num) public {... */\n    tag_12:\n      tag_45\n      0x04\n      dup1\n      calldatasize\n      sub\n      dup2\n      add\n      swap1\n      tag_46\n      swap2\n      swap1\n      tag_16\n      jump\t// in\n    tag_46:\n      tag_47\n      jump\t// in\n    tag_45:\n      stop\n        /* \"contracts/functions.sol\":2358:2441  function updateParentNum (uint _num) public {... */\n    tag_17:\n        /* \"contracts/functions.sol\":2412:2433  setParentNumber(_num) */\n      tag_49\n        /* \"contracts/functions.sol\":2428:2432  _num */\n      dup2\n        /* \"contracts/functions.sol\":2412:2427  setParentNumber */\n      tag_50\n        /* \"contracts/functions.sol\":2412:2433  setParentNumber(_num) */\n      jump\t// in\n    tag_49:\n        /* \"contracts/functions.sol\":2358:2441  function updateParentNum (uint _num) public {... */\n      pop\n      jump\t// out\n        /* \"contracts/functions.sol\":410:431  uint public  myNumber */\n    tag_19:\n      sload(0x00)\n      dup2\n      jump\t// out\n        /* \"contracts/functions.sol\":1607:1670  function setNumber(uint _num) external {... */\n    tag_24:\n        /* \"contracts/functions.sol\":1659:1663  _num */\n      dup1\n        /* \"contracts/functions.sol\":1653:1656  num */\n      0x03\n        /* \"contracts/functions.sol\":1653:1663  num = _num */\n      dup2\n      swap1\n      sstore\n      pop\n        /* \"contracts/functions.sol\":1607:1670  function setNumber(uint _num) external {... */\n      pop\n      jump\t// out\n        /* \"contracts/functions.sol\":1580:1599  uint public num = 3 */\n    tag_26:\n      sload(0x03)\n      dup2\n      jump\t// out\n        /* \"contracts/functions.sol\":959:1056  function revealPrivateNumber() public  view returns (uint) {... */\n    tag_29:\n        /* \"contracts/functions.sol\":1012:1016  uint */\n      0x00\n        /* \"contracts/functions.sol\":1032:1049  getSecretNumber() */\n      tag_53\n        /* \"contracts/functions.sol\":1032:1047  getSecretNumber */\n      tag_54\n        /* \"contracts/functions.sol\":1032:1049  getSecretNumber() */\n      jump\t// in\n    tag_53:\n        /* \"contracts/functions.sol\":1025:1049  return getSecretNumber() */\n      swap1\n      pop\n        /* \"contracts/functions.sol\":959:1056  function revealPrivateNumber() public  view returns (uint) {... */\n      swap1\n      jump\t// out\n        /* \"contracts/functions.sol\":2233:2313  function add(uint a, uint b) public pure returns (uint) {... */\n    tag_34:\n        /* \"contracts/functions.sol\":2283:2287  uint */\n      0x00\n        /* \"contracts/functions.sol\":2308:2309  b */\n      dup2\n        /* \"contracts/functions.sol\":2304:2305  a */\n      dup4\n        /* \"contracts/functions.sol\":2304:2309  a * b */\n      tag_56\n      swap2\n      swap1\n      tag_57\n      jump\t// in\n    tag_56:\n        /* \"contracts/functions.sol\":2296:2309  return  a * b */\n      swap1\n      pop\n        /* \"contracts/functions.sol\":2233:2313  function add(uint a, uint b) public pure returns (uint) {... */\n      swap3\n      swap2\n      pop\n      pop\n      jump\t// out\n        /* \"contracts/functions.sol\":1840:1909  function getnum() public view returns (uint) {... */\n    tag_37:\n        /* \"contracts/functions.sol\":1879:1883  uint */\n      0x00\n        /* \"contracts/functions.sol\":1899:1902  num */\n      sload(0x03)\n        /* \"contracts/functions.sol\":1892:1902  return num */\n      swap1\n      pop\n        /* \"contracts/functions.sol\":1840:1909  function getnum() public view returns (uint) {... */\n      swap1\n      jump\t// out\n        /* \"contracts/functions.sol\":2449:2541  function getParentNum () public  view  returns (uint) {... */\n    tag_40:\n        /* \"contracts/functions.sol\":2497:2501  uint */\n      0x00\n        /* \"contracts/functions.sol\":2522:2533  parentNumer */\n      sload(0x02)\n        /* \"contracts/functions.sol\":2514:2533  return  parentNumer */\n      swap1\n      pop\n        /* \"contracts/functions.sol\":2449:2541  function getParentNum () public  view  returns (uint) {... */\n      swap1\n      jump\t// out\n        /* \"contracts/functions.sol\":440:510  function setNum(uint _num) public {... */\n    tag_44:\n        /* \"contracts/functions.sol\":498:502  _num */\n      dup1\n        /* \"contracts/functions.sol\":487:495  myNumber */\n      0x00\n        /* \"contracts/functions.sol\":487:502  myNumber = _num */\n      dup2\n      swap1\n      sstore\n      pop\n        /* \"contracts/functions.sol\":440:510  function setNum(uint _num) public {... */\n      pop\n      jump\t// out\n        /* \"contracts/functions.sol\":1678:1832  function getNumber(uint _num) public {... */\n    tag_47:\n        /* \"contracts/functions.sol\":1805:1809  this */\n      address\n        /* \"contracts/functions.sol\":1805:1819  this.setNumber */\n      0xffffffffffffffffffffffffffffffffffffffff\n      and\n      0x3fb5c1cb\n        /* \"contracts/functions.sol\":1820:1824  _num */\n      dup3\n        /* \"contracts/functions.sol\":1805:1825  this.setNumber(_num) */\n      mload(0x40)\n      dup3\n      0xffffffff\n      and\n      0xe0\n      shl\n      dup2\n      mstore\n      0x04\n      add\n      tag_62\n      swap2\n      swap1\n      tag_21\n      jump\t// in\n    tag_62:\n      0x00\n      mload(0x40)\n      dup1\n      dup4\n      sub\n      dup2\n      0x00\n      dup8\n      dup1\n      extcodesize\n      iszero\n      dup1\n      iszero\n      tag_63\n      jumpi\n      revert(0x00, 0x00)\n    tag_63:\n      pop\n      gas\n      call\n      iszero\n      dup1\n      iszero\n      tag_65\n      jumpi\n      returndatacopy(0x00, 0x00, returndatasize)\n      revert(0x00, returndatasize)\n    tag_65:\n      pop\n      pop\n      pop\n      pop\n        /* \"contracts/functions.sol\":1678:1832  function getNumber(uint _num) public {... */\n      pop\n      jump\t// out\n        /* \"contracts/functions.sol\":1287:1364  function setParentNumber(uint _num) internal {... */\n    tag_50:\n        /* \"contracts/functions.sol\":1353:1357  _num */\n      dup1\n        /* \"contracts/functions.sol\":1339:1350  parentNumer */\n      0x02\n        /* \"contracts/functions.sol\":1339:1357  parentNumer = _num */\n      dup2\n      swap1\n      sstore\n      pop\n        /* \"contracts/functions.sol\":1287:1364  function setParentNumber(uint _num) internal {... */\n      pop\n      jump\t// out\n        /* \"contracts/functions.sol\":700:785  function getSecretNumber() private view returns (uint) {... */\n    tag_54:\n        /* \"contracts/functions.sol\":749:753  uint */\n      0x00\n        /* \"contracts/functions.sol\":772:778  secret */\n      sload(0x01)\n        /* \"contracts/functions.sol\":764:778  return  secret */\n      swap1\n      pop\n        /* \"contracts/functions.sol\":700:785  function getSecretNumber() private view returns (uint) {... */\n      swap1\n      jump\t// out\n        /* \"#utility.yul\":88:205   */\n    tag_69:\n        /* \"#utility.yul\":197:198   */\n      0x00\n        /* \"#utility.yul\":194:195   */\n      0x00\n        /* \"#utility.yul\":187:199   */\n      revert\n        /* \"#utility.yul\":334:411   */\n    tag_71:\n        /* \"#utility.yul\":371:378   */\n      0x00\n        /* \"#utility.yul\":400:405   */\n      dup2\n        /* \"#utility.yul\":389:405   */\n      swap1\n      pop\n        /* \"#utility.yul\":334:411   */\n      swap2\n      swap1\n      pop\n      jump\t// out\n        /* \"#utility.yul\":417:539   */\n    tag_72:\n        /* \"#utility.yul\":490:514   */\n      tag_82\n        /* \"#utility.yul\":508:513   */\n      dup2\n        /* \"#utility.yul\":490:514   */\n      tag_71\n      jump\t// in\n    tag_82:\n        /* \"#utility.yul\":483:488   */\n      dup2\n        /* \"#utility.yul\":480:515   */\n      eq\n        /* \"#utility.yul\":470:533   */\n      tag_83\n      jumpi\n        /* \"#utility.yul\":529:530   */\n      0x00\n        /* \"#utility.yul\":526:527   */\n      0x00\n        /* \"#utility.yul\":519:531   */\n      revert\n        /* \"#utility.yul\":470:533   */\n    tag_83:\n        /* \"#utility.yul\":417:539   */\n      pop\n      jump\t// out\n        /* \"#utility.yul\":545:684   */\n    tag_73:\n        /* \"#utility.yul\":591:596   */\n      0x00\n        /* \"#utility.yul\":629:635   */\n      dup2\n        /* \"#utility.yul\":616:636   */\n      calldataload\n        /* \"#utility.yul\":607:636   */\n      swap1\n      pop\n        /* \"#utility.yul\":645:678   */\n      tag_85\n        /* \"#utility.yul\":672:677   */\n      dup2\n        /* \"#utility.yul\":645:678   */\n      tag_72\n      jump\t// in\n    tag_85:\n        /* \"#utility.yul\":545:684   */\n      swap3\n      swap2\n      pop\n      pop\n      jump\t// out\n        /* \"#utility.yul\":690:1019   */\n    tag_16:\n        /* \"#utility.yul\":749:755   */\n      0x00\n        /* \"#utility.yul\":798:800   */\n      0x20\n        /* \"#utility.yul\":786:795   */\n      dup3\n        /* \"#utility.yul\":777:784   */\n      dup5\n        /* \"#utility.yul\":773:796   */\n      sub\n        /* \"#utility.yul\":769:801   */\n      slt\n        /* \"#utility.yul\":766:885   */\n      iszero\n      tag_87\n      jumpi\n        /* \"#utility.yul\":804:883   */\n      tag_88\n      tag_69\n      jump\t// in\n    tag_88:\n        /* \"#utility.yul\":766:885   */\n    tag_87:\n        /* \"#utility.yul\":924:925   */\n      0x00\n        /* \"#utility.yul\":949:1002   */\n      tag_89\n        /* \"#utility.yul\":994:1001   */\n      dup5\n        /* \"#utility.yul\":985:991   */\n      dup3\n        /* \"#utility.yul\":974:983   */\n      dup6\n        /* \"#utility.yul\":970:992   */\n      add\n        /* \"#utility.yul\":949:1002   */\n      tag_73\n      jump\t// in\n    tag_89:\n        /* \"#utility.yul\":939:1002   */\n      swap2\n      pop\n        /* \"#utility.yul\":895:1012   */\n      pop\n        /* \"#utility.yul\":690:1019   */\n      swap3\n      swap2\n      pop\n      pop\n      jump\t// out\n        /* \"#utility.yul\":1025:1143   */\n    tag_74:\n        /* \"#utility.yul\":1112:1136   */\n      tag_91\n        /* \"#utility.yul\":1130:1135   */\n      dup2\n        /* \"#utility.yul\":1112:1136   */\n      tag_71\n      jump\t// in\n    tag_91:\n        /* \"#utility.yul\":1107:1110   */\n      dup3\n        /* \"#utility.yul\":1100:1137   */\n      mstore\n        /* \"#utility.yul\":1025:1143   */\n      pop\n      pop\n      jump\t// out\n        /* \"#utility.yul\":1149:1371   */\n    tag_21:\n        /* \"#utility.yul\":1242:1246   */\n      0x00\n        /* \"#utility.yul\":1280:1282   */\n      0x20\n        /* \"#utility.yul\":1269:1278   */\n      dup3\n        /* \"#utility.yul\":1265:1283   */\n      add\n        /* \"#utility.yul\":1257:1283   */\n      swap1\n      pop\n        /* \"#utility.yul\":1293:1364   */\n      tag_93\n        /* \"#utility.yul\":1361:1362   */\n      0x00\n        /* \"#utility.yul\":1350:1359   */\n      dup4\n        /* \"#utility.yul\":1346:1363   */\n      add\n        /* \"#utility.yul\":1337:1343   */\n      dup5\n        /* \"#utility.yul\":1293:1364   */\n      tag_74\n      jump\t// in\n    tag_93:\n        /* \"#utility.yul\":1149:1371   */\n      swap3\n      swap2\n      pop\n      pop\n      jump\t// out\n        /* \"#utility.yul\":1377:1851   */\n    tag_33:\n        /* \"#utility.yul\":1445:1451   */\n      0x00\n        /* \"#utility.yul\":1453:1459   */\n      0x00\n        /* \"#utility.yul\":1502:1504   */\n      0x40\n        /* \"#utility.yul\":1490:1499   */\n      dup4\n        /* \"#utility.yul\":1481:1488   */\n      dup6\n        /* \"#utility.yul\":1477:1500   */\n      sub\n        /* \"#utility.yul\":1473:1505   */\n      slt\n        /* \"#utility.yul\":1470:1589   */\n      iszero\n      tag_95\n      jumpi\n        /* \"#utility.yul\":1508:1587   */\n      tag_96\n      tag_69\n      jump\t// in\n    tag_96:\n        /* \"#utility.yul\":1470:1589   */\n    tag_95:\n        /* \"#utility.yul\":1628:1629   */\n      0x00\n        /* \"#utility.yul\":1653:1706   */\n      tag_97\n        /* \"#utility.yul\":1698:1705   */\n      dup6\n        /* \"#utility.yul\":1689:1695   */\n      dup3\n        /* \"#utility.yul\":1678:1687   */\n      dup7\n        /* \"#utility.yul\":1674:1696   */\n      add\n        /* \"#utility.yul\":1653:1706   */\n      tag_73\n      jump\t// in\n    tag_97:\n        /* \"#utility.yul\":1643:1706   */\n      swap3\n      pop\n        /* \"#utility.yul\":1599:1716   */\n      pop\n        /* \"#utility.yul\":1755:1757   */\n      0x20\n        /* \"#utility.yul\":1781:1834   */\n      tag_98\n        /* \"#utility.yul\":1826:1833   */\n      dup6\n        /* \"#utility.yul\":1817:1823   */\n      dup3\n        /* \"#utility.yul\":1806:1815   */\n      dup7\n        /* \"#utility.yul\":1802:1824   */\n      add\n        /* \"#utility.yul\":1781:1834   */\n      tag_73\n      jump\t// in\n    tag_98:\n        /* \"#utility.yul\":1771:1834   */\n      swap2\n      pop\n        /* \"#utility.yul\":1726:1844   */\n      pop\n        /* \"#utility.yul\":1377:1851   */\n      swap3\n      pop\n      swap3\n      swap1\n      pop\n      jump\t// out\n        /* \"#utility.yul\":1857:2037   */\n    tag_75:\n        /* \"#utility.yul\":1905:1982   */\n      0x4e487b7100000000000000000000000000000000000000000000000000000000\n        /* \"#utility.yul\":1902:1903   */\n      0x00\n        /* \"#utility.yul\":1895:1983   */\n      mstore\n        /* \"#utility.yul\":2002:2006   */\n      0x11\n        /* \"#utility.yul\":1999:2000   */\n      0x04\n        /* \"#utility.yul\":1992:2007   */\n      mstore\n        /* \"#utility.yul\":2026:2030   */\n      0x24\n        /* \"#utility.yul\":2023:2024   */\n      0x00\n        /* \"#utility.yul\":2016:2031   */\n      revert\n        /* \"#utility.yul\":2043:2453   */\n    tag_57:\n        /* \"#utility.yul\":2083:2090   */\n      0x00\n        /* \"#utility.yul\":2106:2126   */\n      tag_101\n        /* \"#utility.yul\":2124:2125   */\n      dup3\n        /* \"#utility.yul\":2106:2126   */\n      tag_71\n      jump\t// in\n    tag_101:\n        /* \"#utility.yul\":2101:2126   */\n      swap2\n      pop\n        /* \"#utility.yul\":2140:2160   */\n      tag_102\n        /* \"#utility.yul\":2158:2159   */\n      dup4\n        /* \"#utility.yul\":2140:2160   */\n      tag_71\n      jump\t// in\n    tag_102:\n        /* \"#utility.yul\":2135:2160   */\n      swap3\n      pop\n        /* \"#utility.yul\":2195:2196   */\n      dup3\n        /* \"#utility.yul\":2192:2193   */\n      dup3\n        /* \"#utility.yul\":2188:2197   */\n      mul\n        /* \"#utility.yul\":2217:2247   */\n      tag_103\n        /* \"#utility.yul\":2235:2246   */\n      dup2\n        /* \"#utility.yul\":2217:2247   */\n      tag_71\n      jump\t// in\n    tag_103:\n        /* \"#utility.yul\":2206:2247   */\n      swap2\n      pop\n        /* \"#utility.yul\":2396:2397   */\n      dup3\n        /* \"#utility.yul\":2387:2394   */\n      dup3\n        /* \"#utility.yul\":2383:2398   */\n      div\n        /* \"#utility.yul\":2380:2381   */\n      dup5\n        /* \"#utility.yul\":2377:2399   */\n      eq\n        /* \"#utility.yul\":2357:2358   */\n      dup4\n        /* \"#utility.yul\":2350:2359   */\n      iszero\n        /* \"#utility.yul\":2330:2413   */\n      or\n        /* \"#utility.yul\":2307:2446   */\n      tag_104\n      jumpi\n        /* \"#utility.yul\":2426:2444   */\n      tag_105\n      tag_75\n      jump\t// in\n    tag_105:\n        /* \"#utility.yul\":2307:2446   */\n    tag_104:\n        /* \"#utility.yul\":2091:2453   */\n      pop\n        /* \"#utility.yul\":2043:2453   */\n      swap3\n      swap2\n      pop\n      pop\n      jump\t// out\n\n    auxdata: 0xa26469706673582212203af13feed912dd5b057bfb54302f8f5b9dceef0dbf242f326b375c44942e9c9764736f6c634300081e0033\n}\n",
				"bytecode": {
					"linkReferences": {},
					"object": "6080604052602d600155601460025560038055348015601c575f5ffd5b5061041d8061002a5f395ff3fe608060405234801561000f575f5ffd5b506004361061009c575f3560e01c8063771602f711610064578063771602f7146101325780637d36887314610162578063bbd1fa8414610180578063cd16ecbf1461019e578063fc563658146101ba5761009c565b806306599331146100a057806323fd0e40146100bc5780633fb5c1cb146100da5780634e70b1dc146100f65780635aedce4c14610114575b5f5ffd5b6100ba60048036038101906100b591906102e8565b6101d6565b005b6100c46101e2565b6040516100d19190610322565b60405180910390f35b6100f460048036038101906100ef91906102e8565b6101e7565b005b6100fe6101f1565b60405161010b9190610322565b60405180910390f35b61011c6101f7565b6040516101299190610322565b60405180910390f35b61014c6004803603810190610147919061033b565b610205565b6040516101599190610322565b60405180910390f35b61016a61021a565b6040516101779190610322565b60405180910390f35b610188610223565b6040516101959190610322565b60405180910390f35b6101b860048036038101906101b391906102e8565b61022c565b005b6101d460048036038101906101cf91906102e8565b610235565b005b6101df8161029e565b50565b5f5481565b8060038190555050565b60035481565b5f6102006102a8565b905090565b5f818361021291906103a6565b905092915050565b5f600354905090565b5f600254905090565b805f8190555050565b3073ffffffffffffffffffffffffffffffffffffffff16633fb5c1cb826040518263ffffffff1660e01b815260040161026e9190610322565b5f604051808303815f87803b158015610285575f5ffd5b505af1158015610297573d5f5f3e3d5ffd5b5050505050565b8060028190555050565b5f600154905090565b5f5ffd5b5f819050919050565b6102c7816102b5565b81146102d1575f5ffd5b50565b5f813590506102e2816102be565b92915050565b5f602082840312156102fd576102fc6102b1565b5b5f61030a848285016102d4565b91505092915050565b61031c816102b5565b82525050565b5f6020820190506103355f830184610313565b92915050565b5f5f60408385031215610351576103506102b1565b5b5f61035e858286016102d4565b925050602061036f858286016102d4565b9150509250929050565b7f4e487b71000000000000000000000000000000000000000000000000000000005f52601160045260245ffd5b5f6103b0826102b5565b91506103bb836102b5565b92508282026103c9816102b5565b915082820484148315176103e0576103df610379565b5b509291505056fea26469706673582212203af13feed912dd5b057bfb54302f8f5b9dceef0dbf242f326b375c44942e9c9764736f6c634300081e0033",
					"opcodes": "PUSH1 0x80 PUSH1 0x40 MSTORE PUSH1 0x2D PUSH1 0x1 SSTORE PUSH1 0x14 PUSH1 0x2 SSTORE PUSH1 0x3 DUP1 SSTORE CALLVALUE DUP1 ISZERO PUSH1 0x1C JUMPI PUSH0 PUSH0 REVERT JUMPDEST POP PUSH2 0x41D DUP1 PUSH2 0x2A PUSH0 CODECOPY PUSH0 RETURN INVALID PUSH1 0x80 PUSH1 0x40 MSTORE CALLVALUE DUP1 ISZERO PUSH2 0xF JUMPI PUSH0 PUSH0 REVERT JUMPDEST POP PUSH1 0x4 CALLDATASIZE LT PUSH2 0x9C JUMPI PUSH0 CALLDATALOAD PUSH1 0xE0 SHR DUP1 PUSH4 0x771602F7 GT PUSH2 0x64 JUMPI DUP1 PUSH4 0x771602F7 EQ PUSH2 0x132 JUMPI DUP1 PUSH4 0x7D368873 EQ PUSH2 0x162 JUMPI DUP1 PUSH4 0xBBD1FA84 EQ PUSH2 0x180 JUMPI DUP1 PUSH4 0xCD16ECBF EQ PUSH2 0x19E JUMPI DUP1 PUSH4 0xFC563658 EQ PUSH2 0x1BA JUMPI PUSH2 0x9C JUMP JUMPDEST DUP1 PUSH4 0x6599331 EQ PUSH2 0xA0 JUMPI DUP1 PUSH4 0x23FD0E40 EQ PUSH2 0xBC JUMPI DUP1 PUSH4 0x3FB5C1CB EQ PUSH2 0xDA JUMPI DUP1 PUSH4 0x4E70B1DC EQ PUSH2 0xF6 JUMPI DUP1 PUSH4 0x5AEDCE4C EQ PUSH2 0x114 JUMPI JUMPDEST PUSH0 PUSH0 REVERT JUMPDEST PUSH2 0xBA PUSH1 0x4 DUP1 CALLDATASIZE SUB DUP2 ADD SWAP1 PUSH2 0xB5 SWAP2 SWAP1 PUSH2 0x2E8 JUMP JUMPDEST PUSH2 0x1D6 JUMP JUMPDEST STOP JUMPDEST PUSH2 0xC4 PUSH2 0x1E2 JUMP JUMPDEST PUSH1 0x40 MLOAD PUSH2 0xD1 SWAP2 SWAP1 PUSH2 0x322 JUMP JUMPDEST PUSH1 0x40 MLOAD DUP1 SWAP2 SUB SWAP1 RETURN JUMPDEST PUSH2 0xF4 PUSH1 0x4 DUP1 CALLDATASIZE SUB DUP2 ADD SWAP1 PUSH2 0xEF SWAP2 SWAP1 PUSH2 0x2E8 JUMP JUMPDEST PUSH2 0x1E7 JUMP JUMPDEST STOP JUMPDEST PUSH2 0xFE PUSH2 0x1F1 JUMP JUMPDEST PUSH1 0x40 MLOAD PUSH2 0x10B SWAP2 SWAP1 PUSH2 0x322 JUMP JUMPDEST PUSH1 0x40 MLOAD DUP1 SWAP2 SUB SWAP1 RETURN JUMPDEST PUSH2 0x11C PUSH2 0x1F7 JUMP JUMPDEST PUSH1 0x40 MLOAD PUSH2 0x129 SWAP2 SWAP1 PUSH2 0x322 JUMP JUMPDEST PUSH1 0x40 MLOAD DUP1 SWAP2 SUB SWAP1 RETURN JUMPDEST PUSH2 0x14C PUSH1 0x4 DUP1 CALLDATASIZE SUB DUP2 ADD SWAP1 PUSH2 0x147 SWAP2 SWAP1 PUSH2 0x33B JUMP JUMPDEST PUSH2 0x205 JUMP JUMPDEST PUSH1 0x40 MLOAD PUSH2 0x159 SWAP2 SWAP1 PUSH2 0x322 JUMP JUMPDEST PUSH1 0x40 MLOAD DUP1 SWAP2 SUB SWAP1 RETURN JUMPDEST PUSH2 0x16A PUSH2 0x21A JUMP JUMPDEST PUSH1 0x40 MLOAD PUSH2 0x177 SWAP2 SWAP1 PUSH2 0x322 JUMP JUMPDEST PUSH1 0x40 MLOAD DUP1 SWAP2 SUB SWAP1 RETURN JUMPDEST PUSH2 0x188 PUSH2 0x223 JUMP JUMPDEST PUSH1 0x40 MLOAD PUSH2 0x195 SWAP2 SWAP1 PUSH2 0x322 JUMP JUMPDEST PUSH1 0x40 MLOAD DUP1 SWAP2 SUB SWAP1 RETURN JUMPDEST PUSH2 0x1B8 PUSH1 0x4 DUP1 CALLDATASIZE SUB DUP2 ADD SWAP1 PUSH2 0x1B3 SWAP2 SWAP1 PUSH2 0x2E8 JUMP JUMPDEST PUSH2 0x22C JUMP JUMPDEST STOP JUMPDEST PUSH2 0x1D4 PUSH1 0x4 DUP1 CALLDATASIZE SUB DUP2 ADD SWAP1 PUSH2 0x1CF SWAP2 SWAP1 PUSH2 0x2E8 JUMP JUMPDEST PUSH2 0x235 JUMP JUMPDEST STOP JUMPDEST PUSH2 0x1DF DUP2 PUSH2 0x29E JUMP JUMPDEST POP JUMP JUMPDEST PUSH0 SLOAD DUP2 JUMP JUMPDEST DUP1 PUSH1 0x3 DUP2 SWAP1 SSTORE POP POP JUMP JUMPDEST PUSH1 0x3 SLOAD DUP2 JUMP JUMPDEST PUSH0 PUSH2 0x200 PUSH2 0x2A8 JUMP JUMPDEST SWAP1 POP SWAP1 JUMP JUMPDEST PUSH0 DUP2 DUP4 PUSH2 0x212 SWAP2 SWAP1 PUSH2 0x3A6 JUMP JUMPDEST SWAP1 POP SWAP3 SWAP2 POP POP JUMP JUMPDEST PUSH0 PUSH1 0x3 SLOAD SWAP1 POP SWAP1 JUMP JUMPDEST PUSH0 PUSH1 0x2 SLOAD SWAP1 POP SWAP1 JUMP JUMPDEST DUP1 PUSH0 DUP2 SWAP1 SSTORE POP POP JUMP JUMPDEST ADDRESS PUSH20 0xFFFFFFFFFFFFFFFFFFFFFFFFFFFFFFFFFFFFFFFF AND PUSH4 0x3FB5C1CB DUP3 PUSH1 0x40 MLOAD DUP3 PUSH4 0xFFFFFFFF AND PUSH1 0xE0 SHL DUP2 MSTORE PUSH1 0x4 ADD PUSH2 0x26E SWAP2 SWAP1 PUSH2 0x322 JUMP JUMPDEST PUSH0 PUSH1 0x40 MLOAD DUP1 DUP4 SUB DUP2 PUSH0 DUP8 DUP1 EXTCODESIZE ISZERO DUP1 ISZERO PUSH2 0x285 JUMPI PUSH0 PUSH0 REVERT JUMPDEST POP GAS CALL ISZERO DUP1 ISZERO PUSH2 0x297 JUMPI RETURNDATASIZE PUSH0 PUSH0 RETURNDATACOPY RETURNDATASIZE PUSH0 REVERT JUMPDEST POP POP POP POP POP JUMP JUMPDEST DUP1 PUSH1 0x2 DUP2 SWAP1 SSTORE POP POP JUMP JUMPDEST PUSH0 PUSH1 0x1 SLOAD SWAP1 POP SWAP1 JUMP JUMPDEST PUSH0 PUSH0 REVERT JUMPDEST PUSH0 DUP2 SWAP1 POP SWAP2 SWAP1 POP JUMP JUMPDEST PUSH2 0x2C7 DUP2 PUSH2 0x2B5 JUMP JUMPDEST DUP2 EQ PUSH2 0x2D1 JUMPI PUSH0 PUSH0 REVERT JUMPDEST POP JUMP JUMPDEST PUSH0 DUP2 CALLDATALOAD SWAP1 POP PUSH2 0x2E2 DUP2 PUSH2 0x2BE JUMP JUMPDEST SWAP3 SWAP2 POP POP JUMP JUMPDEST PUSH0 PUSH1 0x20 DUP3 DUP5 SUB SLT ISZERO PUSH2 0x2FD JUMPI PUSH2 0x2FC PUSH2 0x2B1 JUMP JUMPDEST JUMPDEST PUSH0 PUSH2 0x30A DUP5 DUP3 DUP6 ADD PUSH2 0x2D4 JUMP JUMPDEST SWAP2 POP POP SWAP3 SWAP2 POP POP JUMP JUMPDEST PUSH2 0x31C DUP2 PUSH2 0x2B5 JUMP JUMPDEST DUP3 MSTORE POP POP JUMP JUMPDEST PUSH0 PUSH1 0x20 DUP3 ADD SWAP1 POP PUSH2 0x335 PUSH0 DUP4 ADD DUP5 PUSH2 0x313 JUMP JUMPDEST SWAP3 SWAP2 POP POP JUMP JUMPDEST PUSH0 PUSH0 PUSH1 0x40 DUP4 DUP6 SUB SLT ISZERO PUSH2 0x351 JUMPI PUSH2 0x350 PUSH2 0x2B1 JUMP JUMPDEST JUMPDEST PUSH0 PUSH2 0x35E DUP6 DUP3 DUP7 ADD PUSH2 0x2D4 JUMP JUMPDEST SWAP3 POP POP PUSH1 0x20 PUSH2 0x36F DUP6 DUP3 DUP7 ADD PUSH2 0x2D4 JUMP JUMPDEST SWAP2 POP POP SWAP3 POP SWAP3 SWAP1 POP JUMP JUMPDEST PUSH32 0x4E487B7100000000000000000000000000000000000000000000000000000000 PUSH0 MSTORE PUSH1 0x11 PUSH1 0x4 MSTORE PUSH1 0x24 PUSH0 REVERT JUMPDEST PUSH0 PUSH2 0x3B0 DUP3 PUSH2 0x2B5 JUMP JUMPDEST SWAP2 POP PUSH2 0x3BB DUP4 PUSH2 0x2B5 JUMP JUMPDEST SWAP3 POP DUP3 DUP3 MUL PUSH2 0x3C9 DUP2 PUSH2 0x2B5 JUMP JUMPDEST SWAP2 POP DUP3 DUP3 DIV DUP5 EQ DUP4 ISZERO OR PUSH2 0x3E0 JUMPI PUSH2 0x3DF PUSH2 0x379 JUMP JUMPDEST JUMPDEST POP SWAP3 SWAP2 POP POP JUMP INVALID LOG2 PUSH5 0x6970667358 0x22 SLT KECCAK256 GASPRICE CALL EXTCODEHASH RETURNCONTRACT 0xD9 SLT 0xDD JUMPDEST SDIV PUSH28 0xFB54302F8F5B9DCEEF0DBF242F326B375C44942E9C9764736F6C6343 STOP ADDMOD 0x1E STOP CALLER "
				},
				"gasEstimates": {
					"creation": {
						"codeDepositCost": "210600",
						"executionCost": "66567",
						"totalCost": "277167"
					},
					"external": {
						"add(uint256,uint256)": "infinite",
						"getNumber(uint256)": "infinite",
						"getParentNum()": "2476",
						"getnum()": "2454",
						"myNumber()": "2447",
						"num()": "2492",
						"revealPrivateNumber()": "2555",
						"setNum(uint256)": "22580",
						"setNumber(uint256)": "22560",
						"updateParentNum(uint256)": "22545"
					}
				},
				"methodIdentifiers": {
					"add(uint256,uint256)": "771602f7",
					"getNumber(uint256)": "fc563658",
					"getParentNum()": "bbd1fa84",
					"getnum()": "7d368873",
					"myNumber()": "23fd0e40",
					"num()": "4e70b1dc",
					"revealPrivateNumber()": "5aedce4c",
					"setNum(uint256)": "cd16ecbf",
					"setNumber(uint256)": "3fb5c1cb",
					"updateParentNum(uint256)": "06599331"
				}
			},
			"storageLayout": {
				"storage": [
					{
						"astId": 3,
						"contract": "contracts/functions.sol:Child",
						"label": "myNumber",
						"offset": 0,
						"slot": "0",
						"type": "t_uint256"
					},
					{
						"astId": 16,
						"contract": "contracts/functions.sol:Child",
						"label": "secret",
						"offset": 0,
						"slot": "1",
						"type": "t_uint256"
					},
					{
						"astId": 36,
						"contract": "contracts/functions.sol:Child",
						"label": "parentNumer",
						"offset": 0,
						"slot": "2",
						"type": "t_uint256"
					},
					{
						"astId": 49,
						"contract": "contracts/functions.sol:Child",
						"label": "num",
						"offset": 0,
						"slot": "3",
						"type": "t_uint256"
					}
				],
				"types": {
					"t_uint256": {
						"encoding": "inplace",
						"label": "uint256",
						"numberOfBytes": "32"
					}
				}
			},
			"userdoc": {
				"kind": "user",
				"methods": {},
				"version": 1
			}
		}
	}
}