{
	"contracts/functions.sol": {
		"MyContract": {
			"abi": [
				{
					"inputs": [
						{
							"internalType": "uint256",
							"name": "a",
							"type": "uint256"
						},
						{
							"internalType": "uint256",
							"name": "b",
							"type": "uint256"
						}
					],
					"name": "add",
					"outputs": [
						{
							"internalType": "uint256",
							"name": "",
							"type": "uint256"
						}
					],
					"stateMutability": "pure",
					"type": "function"
				},
				{
					"inputs": [
						{
							"internalType": "uint256",
							"name": "_num",
							"type": "uint256"
						}
					],
					"name": "getNumber",
					"outputs": [],
					"stateMutability": "nonpayable",
					"type": "function"
				},
				{
					"inputs": [],
					"name": "getnum",
					"outputs": [
						{
							"internalType": "uint256",
							"name": "",
							"type": "uint256"
						}
					],
					"stateMutability": "view",
					"type": "function"
				},
				{
					"inputs": [],
					"name": "myNumber",
					"outputs": [
						{
							"internalType": "uint256",
							"name": "",
							"type": "uint256"
						}
					],
					"stateMutability": "view",
					"type": "function"
				},
				{
					"inputs": [],
					"name": "num",
					"outputs": [
						{
							"internalType": "uint256",
							"name": "",
							"type": "uint256"
						}
					],
					"stateMutability": "view",
					"type": "function"
				},
				{
					"inputs": [],
					"name": "revealPrivateNumber",
					"outputs": [
						{
							"internalType": "uint256",
							"name": "",
							"type": "uint256"
						}
					],
					"stateMutability": "view",
					"type": "function"
				},
				{
					"inputs": [
						{
							"internalType": "uint256",
							"name": "_num",
							"type": "uint256"
						}
					],
					"name": "setNum",
					"outputs": [],
					"stateMutability": "nonpayable",
					"type": "function"
				},
				{
					"inputs": [
						{
							"internalType": "uint256",
							"name": "_num",
							"type": "uint256"
						}
					],
					"name": "setNumber",
					"outputs": [],
					"stateMutability": "nonpayable",
					"type": "function"
				}
			],
			"devdoc": {
				"kind": "dev",
				"methods": {},
				"version": 1
			},
			"evm": {
				"assembly": "    /* \"contracts/functions.sol\":383:2318  contract MyContract {... */\n  mstore(0x40, 0x80)\n    /* \"contracts/functions.sol\":633:635  45 */\n  0x2d\n    /* \"contracts/functions.sol\":610:635  uint private  secret = 45 */\n  0x01\n  sstore\n    /* \"contracts/functions.sol\":1277:1279  20 */\n  0x14\n    /* \"contracts/functions.sol\":1249:1279  uint internal parentNumer = 20 */\n  0x02\n  sstore\n    /* \"contracts/functions.sol\":1598:1599  3 */\n  0x03\n    /* \"contracts/functions.sol\":1580:1599  uint public num = 3 */\n  dup1\n  sstore\n    /* \"contracts/functions.sol\":383:2318  contract MyContract {... */\n  callvalue\n  dup1\n  iszero\n  tag_1\n  jumpi\n  revert(0x00, 0x00)\ntag_1:\n  pop\n  dataSize(sub_0)\n  dup1\n  dataOffset(sub_0)\n  0x00\n  codecopy\n  0x00\n  return\nstop\n\nsub_0: assembly {\n        /* \"contracts/functions.sol\":383:2318  contract MyContract {... */\n      mstore(0x40, 0x80)\n      callvalue\n      dup1\n      iszero\n      tag_1\n      jumpi\n      revert(0x00, 0x00)\n    tag_1:\n      pop\n      jumpi(tag_2, lt(calldatasize, 0x04))\n      shr(0xe0, calldataload(0x00))\n      dup1\n      0x771602f7\n      gt\n      tag_11\n      jumpi\n      dup1\n      0x771602f7\n      eq\n      tag_7\n      jumpi\n      dup1\n      0x7d368873\n      eq\n      tag_8\n      jumpi\n      dup1\n      0xcd16ecbf\n      eq\n      tag_9\n      jumpi\n      dup1\n      0xfc563658\n      eq\n      tag_10\n      jumpi\n      jump(tag_2)\n    tag_11:\n      dup1\n      0x23fd0e40\n      eq\n      tag_3\n      jumpi\n      dup1\n      0x3fb5c1cb\n      eq\n      tag_4\n      jumpi\n      dup1\n      0x4e70b1dc\n      eq\n      tag_5\n      jumpi\n      dup1\n      0x5aedce4c\n      eq\n      tag_6\n      jumpi\n    tag_2:\n      revert(0x00, 0x00)\n        /* \"contracts/functions.sol\":410:431  uint public  myNumber */\n    tag_3:\n      tag_12\n      tag_13\n      jump\t// in\n    tag_12:\n      mload(0x40)\n      tag_14\n      swap2\n      swap1\n      tag_15\n      jump\t// in\n    tag_14:\n      mload(0x40)\n      dup1\n      swap2\n      sub\n      swap1\n      return\n        /* \"contracts/functions.sol\":1607:1670  function setNumber(uint _num) external {... */\n    tag_4:\n      tag_16\n      0x04\n      dup1\n      calldatasize\n      sub\n      dup2\n      add\n      swap1\n      tag_17\n      swap2\n      swap1\n      tag_18\n      jump\t// in\n    tag_17:\n      tag_19\n      jump\t// in\n    tag_16:\n      stop\n        /* \"contracts/functions.sol\":1580:1599  uint public num = 3 */\n    tag_5:\n      tag_20\n      tag_21\n      jump\t// in\n    tag_20:\n      mload(0x40)\n      tag_22\n      swap2\n      swap1\n      tag_15\n      jump\t// in\n    tag_22:\n      mload(0x40)\n      dup1\n      swap2\n      sub\n      swap1\n      return\n        /* \"contracts/functions.sol\":959:1056  function revealPrivateNumber() public  view returns (uint) {... */\n    tag_6:\n      tag_23\n      tag_24\n      jump\t// in\n    tag_23:\n      mload(0x40)\n      tag_25\n      swap2\n      swap1\n      tag_15\n      jump\t// in\n    tag_25:\n      mload(0x40)\n      dup1\n      swap2\n      sub\n      swap1\n      return\n        /* \"contracts/functions.sol\":2233:2313  function add(uint a, uint b) public pure returns (uint) {... */\n    tag_7:\n      tag_26\n      0x04\n      dup1\n      calldatasize\n      sub\n      dup2\n      add\n      swap1\n      tag_27\n      swap2\n      swap1\n      tag_28\n      jump\t// in\n    tag_27:\n      tag_29\n      jump\t// in\n    tag_26:\n      mload(0x40)\n      tag_30\n      swap2\n      swap1\n      tag_15\n      jump\t// in\n    tag_30:\n      mload(0x40)\n      dup1\n      swap2\n      sub\n      swap1\n      return\n        /* \"contracts/functions.sol\":1840:1909  function getnum() public view returns (uint) {... */\n    tag_8:\n      tag_31\n      tag_32\n      jump\t// in\n    tag_31:\n      mload(0x40)\n      tag_33\n      swap2\n      swap1\n      tag_15\n      jump\t// in\n    tag_33:\n      mload(0x40)\n      dup1\n      swap2\n      sub\n      swap1\n      return\n        /* \"contracts/functions.sol\":440:510  function setNum(uint _num) public {... */\n    tag_9:\n      tag_34\n      0x04\n      dup1\n      calldatasize\n      sub\n      dup2\n      add\n      swap1\n      tag_35\n      swap2\n      swap1\n      tag_18\n      jump\t// in\n    tag_35:\n      tag_36\n      jump\t// in\n    tag_34:\n      stop\n        /* \"contracts/functions.sol\":1678:1832  function getNumber(uint _num) public {... */\n    tag_10:\n      tag_37\n      0x04\n      dup1\n      calldatasize\n      sub\n      dup2\n      add\n      swap1\n      tag_38\n      swap2\n      swap1\n      tag_18\n      jump\t// in\n    tag_38:\n      tag_39\n      jump\t// in\n    tag_37:\n      stop\n        /* \"contracts/functions.sol\":410:431  uint public  myNumber */\n    tag_13:\n      sload(0x00)\n      dup2\n      jump\t// out\n        /* \"contracts/functions.sol\":1607:1670  function setNumber(uint _num) external {... */\n    tag_19:\n        /* \"contracts/functions.sol\":1659:1663  _num */\n      dup1\n        /* \"contracts/functions.sol\":1653:1656  num */\n      0x03\n        /* \"contracts/functions.sol\":1653:1663  num = _num */\n      dup2\n      swap1\n      sstore\n      pop\n        /* \"contracts/functions.sol\":1607:1670  function setNumber(uint _num) external {... */\n      pop\n      jump\t// out\n        /* \"contracts/functions.sol\":1580:1599  uint public num = 3 */\n    tag_21:\n      sload(0x03)\n      dup2\n      jump\t// out\n        /* \"contracts/functions.sol\":959:1056  function revealPrivateNumber() public  view returns (uint) {... */\n    tag_24:\n        /* \"contracts/functions.sol\":1012:1016  uint */\n      0x00\n        /* \"contracts/functions.sol\":1032:1049  getSecretNumber() */\n      tag_42\n        /* \"contracts/functions.sol\":1032:1047  getSecretNumber */\n      tag_43\n        /* \"contracts/functions.sol\":1032:1049  getSecretNumber() */\n      jump\t// in\n    tag_42:\n        /* \"contracts/functions.sol\":1025:1049  return getSecretNumber() */\n      swap1\n      pop\n        /* \"contracts/functions.sol\":959:1056  function revealPrivateNumber() public  view returns (uint) {... */\n      swap1\n      jump\t// out\n        /* \"contracts/functions.sol\":2233:2313  function add(uint a, uint b) public pure returns (uint) {... */\n    tag_29:\n        /* \"contracts/functions.sol\":2283:2287  uint */\n      0x00\n        /* \"contracts/functions.sol\":2308:2309  b */\n      dup2\n        /* \"contracts/functions.sol\":2304:2305  a */\n      dup4\n        /* \"contracts/functions.sol\":2304:2309  a * b */\n      tag_45\n      swap2\n      swap1\n      tag_46\n      jump\t// in\n    tag_45:\n        /* \"contracts/functions.sol\":2296:2309  return  a * b */\n      swap1\n      pop\n        /* \"contracts/functions.sol\":2233:2313  function add(uint a, uint b) public pure returns (uint) {... */\n      swap3\n      swap2\n      pop\n      pop\n      jump\t// out\n        /* \"contracts/functions.sol\":1840:1909  function getnum() public view returns (uint) {... */\n    tag_32:\n        /* \"contracts/functions.sol\":1879:1883  uint */\n      0x00\n        /* \"contracts/functions.sol\":1899:1902  num */\n      sload(0x03)\n        /* \"contracts/functions.sol\":1892:1902  return num */\n      swap1\n      pop\n        /* \"contracts/functions.sol\":1840:1909  function getnum() public view returns (uint) {... */\n      swap1\n      jump\t// out\n        /* \"contracts/functions.sol\":440:510  function setNum(uint _num) public {... */\n    tag_36:\n        /* \"contracts/functions.sol\":498:502  _num */\n      dup1\n        /* \"contracts/functions.sol\":487:495  myNumber */\n      0x00\n        /* \"contracts/functions.sol\":487:502  myNumber = _num */\n      dup2\n      swap1\n      sstore\n      pop\n        /* \"contracts/functions.sol\":440:510  function setNum(uint _num) public {... */\n      pop\n      jump\t// out\n        /* \"contracts/functions.sol\":1678:1832  function getNumber(uint _num) public {... */\n    tag_39:\n        /* \"contracts/functions.sol\":1805:1809  this */\n      address\n        /* \"contracts/functions.sol\":1805:1819  this.setNumber */\n      0xffffffffffffffffffffffffffffffffffffffff\n      and\n      0x3fb5c1cb\n        /* \"contracts/functions.sol\":1820:1824  _num */\n      dup3\n        /* \"contracts/functions.sol\":1805:1825  this.setNumber(_num) */\n      mload(0x40)\n      dup3\n      0xffffffff\n      and\n      0xe0\n      shl\n      dup2\n      mstore\n      0x04\n      add\n      tag_50\n      swap2\n      swap1\n      tag_15\n      jump\t// in\n    tag_50:\n      0x00\n      mload(0x40)\n      dup1\n      dup4\n      sub\n      dup2\n      0x00\n      dup8\n      dup1\n      extcodesize\n      iszero\n      dup1\n      iszero\n      tag_51\n      jumpi\n      revert(0x00, 0x00)\n    tag_51:\n      pop\n      gas\n      call\n      iszero\n      dup1\n      iszero\n      tag_53\n      jumpi\n      returndatacopy(0x00, 0x00, returndatasize)\n      revert(0x00, returndatasize)\n    tag_53:\n      pop\n      pop\n      pop\n      pop\n        /* \"contracts/functions.sol\":1678:1832  function getNumber(uint _num) public {... */\n      pop\n      jump\t// out\n        /* \"contracts/functions.sol\":700:785  function getSecretNumber() private view returns (uint) {... */\n    tag_43:\n        /* \"contracts/functions.sol\":749:753  uint */\n      0x00\n        /* \"contracts/functions.sol\":772:778  secret */\n      sload(0x01)\n        /* \"contracts/functions.sol\":764:778  return  secret */\n      swap1\n      pop\n        /* \"contracts/functions.sol\":700:785  function getSecretNumber() private view returns (uint) {... */\n      swap1\n      jump\t// out\n        /* \"#utility.yul\":7:84   */\n    tag_55:\n        /* \"#utility.yul\":44:51   */\n      0x00\n        /* \"#utility.yul\":73:78   */\n      dup2\n        /* \"#utility.yul\":62:78   */\n      swap1\n      pop\n        /* \"#utility.yul\":7:84   */\n      swap2\n      swap1\n      pop\n      jump\t// out\n        /* \"#utility.yul\":90:208   */\n    tag_56:\n        /* \"#utility.yul\":177:201   */\n      tag_66\n        /* \"#utility.yul\":195:200   */\n      dup2\n        /* \"#utility.yul\":177:201   */\n      tag_55\n      jump\t// in\n    tag_66:\n        /* \"#utility.yul\":172:175   */\n      dup3\n        /* \"#utility.yul\":165:202   */\n      mstore\n        /* \"#utility.yul\":90:208   */\n      pop\n      pop\n      jump\t// out\n        /* \"#utility.yul\":214:436   */\n    tag_15:\n        /* \"#utility.yul\":307:311   */\n      0x00\n        /* \"#utility.yul\":345:347   */\n      0x20\n        /* \"#utility.yul\":334:343   */\n      dup3\n        /* \"#utility.yul\":330:348   */\n      add\n        /* \"#utility.yul\":322:348   */\n      swap1\n      pop\n        /* \"#utility.yul\":358:429   */\n      tag_68\n        /* \"#utility.yul\":426:427   */\n      0x00\n        /* \"#utility.yul\":415:424   */\n      dup4\n        /* \"#utility.yul\":411:428   */\n      add\n        /* \"#utility.yul\":402:408   */\n      dup5\n        /* \"#utility.yul\":358:429   */\n      tag_56\n      jump\t// in\n    tag_68:\n        /* \"#utility.yul\":214:436   */\n      swap3\n      swap2\n      pop\n      pop\n      jump\t// out\n        /* \"#utility.yul\":523:640   */\n    tag_58:\n        /* \"#utility.yul\":632:633   */\n      0x00\n        /* \"#utility.yul\":629:630   */\n      0x00\n        /* \"#utility.yul\":622:634   */\n      revert\n        /* \"#utility.yul\":769:891   */\n    tag_60:\n        /* \"#utility.yul\":842:866   */\n      tag_73\n        /* \"#utility.yul\":860:865   */\n      dup2\n        /* \"#utility.yul\":842:866   */\n      tag_55\n      jump\t// in\n    tag_73:\n        /* \"#utility.yul\":835:840   */\n      dup2\n        /* \"#utility.yul\":832:867   */\n      eq\n        /* \"#utility.yul\":822:885   */\n      tag_74\n      jumpi\n        /* \"#utility.yul\":881:882   */\n      0x00\n        /* \"#utility.yul\":878:879   */\n      0x00\n        /* \"#utility.yul\":871:883   */\n      revert\n        /* \"#utility.yul\":822:885   */\n    tag_74:\n        /* \"#utility.yul\":769:891   */\n      pop\n      jump\t// out\n        /* \"#utility.yul\":897:1036   */\n    tag_61:\n        /* \"#utility.yul\":943:948   */\n      0x00\n        /* \"#utility.yul\":981:987   */\n      dup2\n        /* \"#utility.yul\":968:988   */\n      calldataload\n        /* \"#utility.yul\":959:988   */\n      swap1\n      pop\n        /* \"#utility.yul\":997:1030   */\n      tag_76\n        /* \"#utility.yul\":1024:1029   */\n      dup2\n        /* \"#utility.yul\":997:1030   */\n      tag_60\n      jump\t// in\n    tag_76:\n        /* \"#utility.yul\":897:1036   */\n      swap3\n      swap2\n      pop\n      pop\n      jump\t// out\n        /* \"#utility.yul\":1042:1371   */\n    tag_18:\n        /* \"#utility.yul\":1101:1107   */\n      0x00\n        /* \"#utility.yul\":1150:1152   */\n      0x20\n        /* \"#utility.yul\":1138:1147   */\n      dup3\n        /* \"#utility.yul\":1129:1136   */\n      dup5\n        /* \"#utility.yul\":1125:1148   */\n      sub\n        /* \"#utility.yul\":1121:1153   */\n      slt\n        /* \"#utility.yul\":1118:1237   */\n      iszero\n      tag_78\n      jumpi\n        /* \"#utility.yul\":1156:1235   */\n      tag_79\n      tag_58\n      jump\t// in\n    tag_79:\n        /* \"#utility.yul\":1118:1237   */\n    tag_78:\n        /* \"#utility.yul\":1276:1277   */\n      0x00\n        /* \"#utility.yul\":1301:1354   */\n      tag_80\n        /* \"#utility.yul\":1346:1353   */\n      dup5\n        /* \"#utility.yul\":1337:1343   */\n      dup3\n        /* \"#utility.yul\":1326:1335   */\n      dup6\n        /* \"#utility.yul\":1322:1344   */\n      add\n        /* \"#utility.yul\":1301:1354   */\n      tag_61\n      jump\t// in\n    tag_80:\n        /* \"#utility.yul\":1291:1354   */\n      swap2\n      pop\n        /* \"#utility.yul\":1247:1364   */\n      pop\n        /* \"#utility.yul\":1042:1371   */\n      swap3\n      swap2\n      pop\n      pop\n      jump\t// out\n        /* \"#utility.yul\":1377:1851   */\n    tag_28:\n        /* \"#utility.yul\":1445:1451   */\n      0x00\n        /* \"#utility.yul\":1453:1459   */\n      0x00\n        /* \"#utility.yul\":1502:1504   */\n      0x40\n        /* \"#utility.yul\":1490:1499   */\n      dup4\n        /* \"#utility.yul\":1481:1488   */\n      dup6\n        /* \"#utility.yul\":1477:1500   */\n      sub\n        /* \"#utility.yul\":1473:1505   */\n      slt\n        /* \"#utility.yul\":1470:1589   */\n      iszero\n      tag_82\n      jumpi\n        /* \"#utility.yul\":1508:1587   */\n      tag_83\n      tag_58\n      jump\t// in\n    tag_83:\n        /* \"#utility.yul\":1470:1589   */\n    tag_82:\n        /* \"#utility.yul\":1628:1629   */\n      0x00\n        /* \"#utility.yul\":1653:1706   */\n      tag_84\n        /* \"#utility.yul\":1698:1705   */\n      dup6\n        /* \"#utility.yul\":1689:1695   */\n      dup3\n        /* \"#utility.yul\":1678:1687   */\n      dup7\n        /* \"#utility.yul\":1674:1696   */\n      add\n        /* \"#utility.yul\":1653:1706   */\n      tag_61\n      jump\t// in\n    tag_84:\n        /* \"#utility.yul\":1643:1706   */\n      swap3\n      pop\n        /* \"#utility.yul\":1599:1716   */\n      pop\n        /* \"#utility.yul\":1755:1757   */\n      0x20\n        /* \"#utility.yul\":1781:1834   */\n      tag_85\n        /* \"#utility.yul\":1826:1833   */\n      dup6\n        /* \"#utility.yul\":1817:1823   */\n      dup3\n        /* \"#utility.yul\":1806:1815   */\n      dup7\n        /* \"#utility.yul\":1802:1824   */\n      add\n        /* \"#utility.yul\":1781:1834   */\n      tag_61\n      jump\t// in\n    tag_85:\n        /* \"#utility.yul\":1771:1834   */\n      swap2\n      pop\n        /* \"#utility.yul\":1726:1844   */\n      pop\n        /* \"#utility.yul\":1377:1851   */\n      swap3\n      pop\n      swap3\n      swap1\n      pop\n      jump\t// out\n        /* \"#utility.yul\":1857:2037   */\n    tag_62:\n        /* \"#utility.yul\":1905:1982   */\n      0x4e487b7100000000000000000000000000000000000000000000000000000000\n        /* \"#utility.yul\":1902:1903   */\n      0x00\n        /* \"#utility.yul\":1895:1983   */\n      mstore\n        /* \"#utility.yul\":2002:2006   */\n      0x11\n        /* \"#utility.yul\":1999:2000   */\n      0x04\n        /* \"#utility.yul\":1992:2007   */\n      mstore\n        /* \"#utility.yul\":2026:2030   */\n      0x24\n        /* \"#utility.yul\":2023:2024   */\n      0x00\n        /* \"#utility.yul\":2016:2031   */\n      revert\n        /* \"#utility.yul\":2043:2453   */\n    tag_46:\n        /* \"#utility.yul\":2083:2090   */\n      0x00\n        /* \"#utility.yul\":2106:2126   */\n      tag_88\n        /* \"#utility.yul\":2124:2125   */\n      dup3\n        /* \"#utility.yul\":2106:2126   */\n      tag_55\n      jump\t// in\n    tag_88:\n        /* \"#utility.yul\":2101:2126   */\n      swap2\n      pop\n        /* \"#utility.yul\":2140:2160   */\n      tag_89\n        /* \"#utility.yul\":2158:2159   */\n      dup4\n        /* \"#utility.yul\":2140:2160   */\n      tag_55\n      jump\t// in\n    tag_89:\n        /* \"#utility.yul\":2135:2160   */\n      swap3\n      pop\n        /* \"#utility.yul\":2195:2196   */\n      dup3\n        /* \"#utility.yul\":2192:2193   */\n      dup3\n        /* \"#utility.yul\":2188:2197   */\n      mul\n        /* \"#utility.yul\":2217:2247   */\n      tag_90\n        /* \"#utility.yul\":2235:2246   */\n      dup2\n        /* \"#utility.yul\":2217:2247   */\n      tag_55\n      jump\t// in\n    tag_90:\n        /* \"#utility.yul\":2206:2247   */\n      swap2\n      pop\n        /* \"#utility.yul\":2396:2397   */\n      dup3\n        /* \"#utility.yul\":2387:2394   */\n      dup3\n        /* \"#utility.yul\":2383:2398   */\n      div\n        /* \"#utility.yul\":2380:2381   */\n      dup5\n        /* \"#utility.yul\":2377:2399   */\n      eq\n        /* \"#utility.yul\":2357:2358   */\n      dup4\n        /* \"#utility.yul\":2350:2359   */\n      iszero\n        /* \"#utility.yul\":2330:2413   */\n      or\n        /* \"#utility.yul\":2307:2446   */\n      tag_91\n      jumpi\n        /* \"#utility.yul\":2426:2444   */\n      tag_92\n      tag_62\n      jump\t// in\n    tag_92:\n        /* \"#utility.yul\":2307:2446   */\n    tag_91:\n        /* \"#utility.yul\":2091:2453   */\n      pop\n        /* \"#utility.yul\":2043:2453   */\n      swap3\n      swap2\n      pop\n      pop\n      jump\t// out\n\n    auxdata: 0xa2646970667358221220dc074ca38258b542cfda719931c1d161c97cf60739884e8c3b99cb614da9386c64736f6c634300081e0033\n}\n",
				"bytecode": {
					"linkReferences": {},
					"object": "6080604052602d600155601460025560038055348015601c575f5ffd5b506103ae8061002a5f395ff3fe608060405234801561000f575f5ffd5b5060043610610086575f3560e01c8063771602f711610059578063771602f7146101005780637d36887314610130578063cd16ecbf1461014e578063fc5636581461016a57610086565b806323fd0e401461008a5780633fb5c1cb146100a85780634e70b1dc146100c45780635aedce4c146100e2575b5f5ffd5b610092610186565b60405161009f919061025a565b60405180910390f35b6100c260048036038101906100bd91906102a1565b61018b565b005b6100cc610195565b6040516100d9919061025a565b60405180910390f35b6100ea61019b565b6040516100f7919061025a565b60405180910390f35b61011a600480360381019061011591906102cc565b6101a9565b604051610127919061025a565b60405180910390f35b6101386101be565b604051610145919061025a565b60405180910390f35b610168600480360381019061016391906102a1565b6101c7565b005b610184600480360381019061017f91906102a1565b6101d0565b005b5f5481565b8060038190555050565b60035481565b5f6101a4610239565b905090565b5f81836101b69190610337565b905092915050565b5f600354905090565b805f8190555050565b3073ffffffffffffffffffffffffffffffffffffffff16633fb5c1cb826040518263ffffffff1660e01b8152600401610209919061025a565b5f604051808303815f87803b158015610220575f5ffd5b505af1158015610232573d5f5f3e3d5ffd5b5050505050565b5f600154905090565b5f819050919050565b61025481610242565b82525050565b5f60208201905061026d5f83018461024b565b92915050565b5f5ffd5b61028081610242565b811461028a575f5ffd5b50565b5f8135905061029b81610277565b92915050565b5f602082840312156102b6576102b5610273565b5b5f6102c38482850161028d565b91505092915050565b5f5f604083850312156102e2576102e1610273565b5b5f6102ef8582860161028d565b92505060206103008582860161028d565b9150509250929050565b7f4e487b71000000000000000000000000000000000000000000000000000000005f52601160045260245ffd5b5f61034182610242565b915061034c83610242565b925082820261035a81610242565b915082820484148315176103715761037061030a565b5b509291505056fea2646970667358221220dc074ca38258b542cfda719931c1d161c97cf60739884e8c3b99cb614da9386c64736f6c634300081e0033",
					"opcodes": "PUSH1 0x80 PUSH1 0x40 MSTORE PUSH1 0x2D PUSH1 0x1 SSTORE PUSH1 0x14 PUSH1 0x2 SSTORE PUSH1 0x3 DUP1 SSTORE CALLVALUE DUP1 ISZERO PUSH1 0x1C JUMPI PUSH0 PUSH0 REVERT JUMPDEST POP PUSH2 0x3AE DUP1 PUSH2 0x2A PUSH0 CODECOPY PUSH0 RETURN INVALID PUSH1 0x80 PUSH1 0x40 MSTORE CALLVALUE DUP1 ISZERO PUSH2 0xF JUMPI PUSH0 PUSH0 REVERT JUMPDEST POP PUSH1 0x4 CALLDATASIZE LT PUSH2 0x86 JUMPI PUSH0 CALLDATALOAD PUSH1 0xE0 SHR DUP1 PUSH4 0x771602F7 GT PUSH2 0x59 JUMPI DUP1 PUSH4 0x771602F7 EQ PUSH2 0x100 JUMPI DUP1 PUSH4 0x7D368873 EQ PUSH2 0x130 JUMPI DUP1 PUSH4 0xCD16ECBF EQ PUSH2 0x14E JUMPI DUP1 PUSH4 0xFC563658 EQ PUSH2 0x16A JUMPI PUSH2 0x86 JUMP JUMPDEST DUP1 PUSH4 0x23FD0E40 EQ PUSH2 0x8A JUMPI DUP1 PUSH4 0x3FB5C1CB EQ PUSH2 0xA8 JUMPI DUP1 PUSH4 0x4E70B1DC EQ PUSH2 0xC4 JUMPI DUP1 PUSH4 0x5AEDCE4C EQ PUSH2 0xE2 JUMPI JUMPDEST PUSH0 PUSH0 REVERT JUMPDEST PUSH2 0x92 PUSH2 0x186 JUMP JUMPDEST PUSH1 0x40 MLOAD PUSH2 0x9F SWAP2 SWAP1 PUSH2 0x25A JUMP JUMPDEST PUSH1 0x40 MLOAD DUP1 SWAP2 SUB SWAP1 RETURN JUMPDEST PUSH2 0xC2 PUSH1 0x4 DUP1 CALLDATASIZE SUB DUP2 ADD SWAP1 PUSH2 0xBD SWAP2 SWAP1 PUSH2 0x2A1 JUMP JUMPDEST PUSH2 0x18B JUMP JUMPDEST STOP JUMPDEST PUSH2 0xCC PUSH2 0x195 JUMP JUMPDEST PUSH1 0x40 MLOAD PUSH2 0xD9 SWAP2 SWAP1 PUSH2 0x25A JUMP JUMPDEST PUSH1 0x40 MLOAD DUP1 SWAP2 SUB SWAP1 RETURN JUMPDEST PUSH2 0xEA PUSH2 0x19B JUMP JUMPDEST PUSH1 0x40 MLOAD PUSH2 0xF7 SWAP2 SWAP1 PUSH2 0x25A JUMP JUMPDEST PUSH1 0x40 MLOAD DUP1 SWAP2 SUB SWAP1 RETURN JUMPDEST PUSH2 0x11A PUSH1 0x4 DUP1 CALLDATASIZE SUB DUP2 ADD SWAP1 PUSH2 0x115 SWAP2 SWAP1 PUSH2 0x2CC JUMP JUMPDEST PUSH2 0x1A9 JUMP JUMPDEST PUSH1 0x40 MLOAD PUSH2 0x127 SWAP2 SWAP1 PUSH2 0x25A JUMP JUMPDEST PUSH1 0x40 MLOAD DUP1 SWAP2 SUB SWAP1 RETURN JUMPDEST PUSH2 0x138 PUSH2 0x1BE JUMP JUMPDEST PUSH1 0x40 MLOAD PUSH2 0x145 SWAP2 SWAP1 PUSH2 0x25A JUMP JUMPDEST PUSH1 0x40 MLOAD DUP1 SWAP2 SUB SWAP1 RETURN JUMPDEST PUSH2 0x168 PUSH1 0x4 DUP1 CALLDATASIZE SUB DUP2 ADD SWAP1 PUSH2 0x163 SWAP2 SWAP1 PUSH2 0x2A1 JUMP JUMPDEST PUSH2 0x1C7 JUMP JUMPDEST STOP JUMPDEST PUSH2 0x184 PUSH1 0x4 DUP1 CALLDATASIZE SUB DUP2 ADD SWAP1 PUSH2 0x17F SWAP2 SWAP1 PUSH2 0x2A1 JUMP JUMPDEST PUSH2 0x1D0 JUMP JUMPDEST STOP JUMPDEST PUSH0 SLOAD DUP2 JUMP JUMPDEST DUP1 PUSH1 0x3 DUP2 SWAP1 SSTORE POP POP JUMP JUMPDEST PUSH1 0x3 SLOAD DUP2 JUMP JUMPDEST PUSH0 PUSH2 0x1A4 PUSH2 0x239 JUMP JUMPDEST SWAP1 POP SWAP1 JUMP JUMPDEST PUSH0 DUP2 DUP4 PUSH2 0x1B6 SWAP2 SWAP1 PUSH2 0x337 JUMP JUMPDEST SWAP1 POP SWAP3 SWAP2 POP POP JUMP JUMPDEST PUSH0 PUSH1 0x3 SLOAD SWAP1 POP SWAP1 JUMP JUMPDEST DUP1 PUSH0 DUP2 SWAP1 SSTORE POP POP JUMP JUMPDEST ADDRESS PUSH20 0xFFFFFFFFFFFFFFFFFFFFFFFFFFFFFFFFFFFFFFFF AND PUSH4 0x3FB5C1CB DUP3 PUSH1 0x40 MLOAD DUP3 PUSH4 0xFFFFFFFF AND PUSH1 0xE0 SHL DUP2 MSTORE PUSH1 0x4 ADD PUSH2 0x209 SWAP2 SWAP1 PUSH2 0x25A JUMP JUMPDEST PUSH0 PUSH1 0x40 MLOAD DUP1 DUP4 SUB DUP2 PUSH0 DUP8 DUP1 EXTCODESIZE ISZERO DUP1 ISZERO PUSH2 0x220 JUMPI PUSH0 PUSH0 REVERT JUMPDEST POP GAS CALL ISZERO DUP1 ISZERO PUSH2 0x232 JUMPI RETURNDATASIZE PUSH0 PUSH0 RETURNDATACOPY RETURNDATASIZE PUSH0 REVERT JUMPDEST POP POP POP POP POP JUMP JUMPDEST PUSH0 PUSH1 0x1 SLOAD SWAP1 POP SWAP1 JUMP JUMPDEST PUSH0 DUP2 SWAP1 POP SWAP2 SWAP1 POP JUMP JUMPDEST PUSH2 0x254 DUP2 PUSH2 0x242 JUMP JUMPDEST DUP3 MSTORE POP POP JUMP JUMPDEST PUSH0 PUSH1 0x20 DUP3 ADD SWAP1 POP PUSH2 0x26D PUSH0 DUP4 ADD DUP5 PUSH2 0x24B JUMP JUMPDEST SWAP3 SWAP2 POP POP JUMP JUMPDEST PUSH0 PUSH0 REVERT JUMPDEST PUSH2 0x280 DUP2 PUSH2 0x242 JUMP JUMPDEST DUP2 EQ PUSH2 0x28A JUMPI PUSH0 PUSH0 REVERT JUMPDEST POP JUMP JUMPDEST PUSH0 DUP2 CALLDATALOAD SWAP1 POP PUSH2 0x29B DUP2 PUSH2 0x277 JUMP JUMPDEST SWAP3 SWAP2 POP POP JUMP JUMPDEST PUSH0 PUSH1 0x20 DUP3 DUP5 SUB SLT ISZERO PUSH2 0x2B6 JUMPI PUSH2 0x2B5 PUSH2 0x273 JUMP JUMPDEST JUMPDEST PUSH0 PUSH2 0x2C3 DUP5 DUP3 DUP6 ADD PUSH2 0x28D JUMP JUMPDEST SWAP2 POP POP SWAP3 SWAP2 POP POP JUMP JUMPDEST PUSH0 PUSH0 PUSH1 0x40 DUP4 DUP6 SUB SLT ISZERO PUSH2 0x2E2 JUMPI PUSH2 0x2E1 PUSH2 0x273 JUMP JUMPDEST JUMPDEST PUSH0 PUSH2 0x2EF DUP6 DUP3 DUP7 ADD PUSH2 0x28D JUMP JUMPDEST SWAP3 POP POP PUSH1 0x20 PUSH2 0x300 DUP6 DUP3 DUP7 ADD PUSH2 0x28D JUMP JUMPDEST SWAP2 POP POP SWAP3 POP SWAP3 SWAP1 POP JUMP JUMPDEST PUSH32 0x4E487B7100000000000000000000000000000000000000000000000000000000 PUSH0 MSTORE PUSH1 0x11 PUSH1 0x4 MSTORE PUSH1 0x24 PUSH0 REVERT JUMPDEST PUSH0 PUSH2 0x341 DUP3 PUSH2 0x242 JUMP JUMPDEST SWAP2 POP PUSH2 0x34C DUP4 PUSH2 0x242 JUMP JUMPDEST SWAP3 POP DUP3 DUP3 MUL PUSH2 0x35A DUP2 PUSH2 0x242 JUMP JUMPDEST SWAP2 POP DUP3 DUP3 DIV DUP5 EQ DUP4 ISZERO OR PUSH2 0x371 JUMPI PUSH2 0x370 PUSH2 0x30A JUMP JUMPDEST JUMPDEST POP SWAP3 SWAP2 POP POP JUMP INVALID LOG2 PUSH5 0x6970667358 0x22 SLT KECCAK256 0xDC SMOD 0x4C LOG3 DUP3 PC 0xB5 TIMESTAMP 0xCF 0xDA PUSH18 0x9931C1D161C97CF60739884E8C3B99CB614D 0xA9 CODESIZE PUSH13 0x64736F6C634300081E00330000 "
				},
				"gasEstimates": {
					"creation": {
						"codeDepositCost": "188400",
						"executionCost": "66548",
						"totalCost": "254948"
					},
					"external": {
						"add(uint256,uint256)": "infinite",
						"getNumber(uint256)": "infinite",
						"getnum()": "2454",
						"myNumber()": "2425",
						"num()": "2470",
						"revealPrivateNumber()": "2533",
						"setNum(uint256)": "22558",
						"setNumber(uint256)": "22538"
					},
					"internal": {
						"getSecretNumber()": "2122",
						"setParentNumber(uint256)": "infinite"
					}
				},
				"methodIdentifiers": {
					"add(uint256,uint256)": "771602f7",
					"getNumber(uint256)": "fc563658",
					"getnum()": "7d368873",
					"myNumber()": "23fd0e40",
					"num()": "4e70b1dc",
					"revealPrivateNumber()": "5aedce4c",
					"setNum(uint256)": "cd16ecbf",
					"setNumber(uint256)": "3fb5c1cb"
				}
			},
			"storageLayout": {
				"storage": [
					{
						"astId": 3,
						"contract": "contracts/functions.sol:MyContract",
						"label": "myNumber",
						"offset": 0,
						"slot": "0",
						"type": "t_uint256"
					},
					{
						"astId": 16,
						"contract": "contracts/functions.sol:MyContract",
						"label": "secret",
						"offset": 0,
						"slot": "1",
						"type": "t_uint256"
					},
					{
						"astId": 36,
						"contract": "contracts/functions.sol:MyContract",
						"label": "parentNumer",
						"offset": 0,
						"slot": "2",
						"type": "t_uint256"
					},
					{
						"astId": 49,
						"contract": "contracts/functions.sol:MyContract",
						"label": "num",
						"offset": 0,
						"slot": "3",
						"type": "t_uint256"
					}
				],
				"types": {
					"t_uint256": {
						"encoding": "inplace",
						"label": "uint256",
						"numberOfBytes": "32"
					}
				}
			},
			"userdoc": {
				"kind": "user",
				"methods": {},
				"version": 1
			}
		}
	}
}