{
	"contracts/Access-controled-guestbook/guestbook.sol": {
		"GuestBook": {
			"abi": [
				{
					"inputs": [],
					"stateMutability": "nonpayable",
					"type": "constructor"
				},
				{
					"anonymous": false,
					"inputs": [
						{
							"indexed": true,
							"internalType": "address",
							"name": "sender",
							"type": "address"
						},
						{
							"indexed": false,
							"internalType": "string",
							"name": "content",
							"type": "string"
						},
						{
							"indexed": false,
							"internalType": "uint256",
							"name": "timestamp",
							"type": "uint256"
						}
					],
					"name": "newMessage",
					"type": "event"
				},
				{
					"inputs": [
						{
							"internalType": "address",
							"name": "_user",
							"type": "address"
						}
					],
					"name": "addAllowedUser",
					"outputs": [],
					"stateMutability": "nonpayable",
					"type": "function"
				},
				{
					"inputs": [
						{
							"internalType": "address",
							"name": "",
							"type": "address"
						}
					],
					"name": "allowedUsers",
					"outputs": [
						{
							"internalType": "bool",
							"name": "",
							"type": "bool"
						}
					],
					"stateMutability": "view",
					"type": "function"
				},
				{
					"inputs": [
						{
							"internalType": "uint256",
							"name": "_index",
							"type": "uint256"
						}
					],
					"name": "getMessage",
					"outputs": [
						{
							"internalType": "address",
							"name": "",
							"type": "address"
						},
						{
							"internalType": "string",
							"name": "",
							"type": "string"
						},
						{
							"internalType": "uint256",
							"name": "",
							"type": "uint256"
						}
					],
					"stateMutability": "view",
					"type": "function"
				},
				{
					"inputs": [],
					"name": "getTotalMessage",
					"outputs": [
						{
							"internalType": "uint256",
							"name": "",
							"type": "uint256"
						}
					],
					"stateMutability": "view",
					"type": "function"
				},
				{
					"inputs": [
						{
							"internalType": "uint256",
							"name": "",
							"type": "uint256"
						}
					],
					"name": "messages",
					"outputs": [
						{
							"internalType": "address",
							"name": "sender",
							"type": "address"
						},
						{
							"internalType": "string",
							"name": "content",
							"type": "string"
						},
						{
							"internalType": "uint256",
							"name": "timestamp",
							"type": "uint256"
						}
					],
					"stateMutability": "view",
					"type": "function"
				},
				{
					"inputs": [],
					"name": "owner",
					"outputs": [
						{
							"internalType": "address",
							"name": "",
							"type": "address"
						}
					],
					"stateMutability": "view",
					"type": "function"
				},
				{
					"inputs": [
						{
							"internalType": "string",
							"name": "_content",
							"type": "string"
						}
					],
					"name": "postMessage",
					"outputs": [],
					"stateMutability": "nonpayable",
					"type": "function"
				},
				{
					"inputs": [
						{
							"internalType": "address",
							"name": "_user",
							"type": "address"
						}
					],
					"name": "removeAllowedUser",
					"outputs": [],
					"stateMutability": "nonpayable",
					"type": "function"
				}
			],
			"devdoc": {
				"kind": "dev",
				"methods": {},
				"version": 1
			},
			"evm": {
				"assembly": "    /* \"contracts/Access-controled-guestbook/guestbook.sol\":298:1683  contract GuestBook {... */\n  mstore(0x40, 0x80)\n    /* \"contracts/Access-controled-guestbook/guestbook.sol\":612:656  constructor () {... */\n  callvalue\n  dup1\n  iszero\n  tag_1\n  jumpi\n  revert(0x00, 0x00)\ntag_1:\n  pop\n    /* \"contracts/Access-controled-guestbook/guestbook.sol\":642:652  msg.sender */\n  caller\n    /* \"contracts/Access-controled-guestbook/guestbook.sol\":634:639  owner */\n  0x00\n  0x00\n    /* \"contracts/Access-controled-guestbook/guestbook.sol\":634:652  owner = msg.sender */\n  0x0100\n  exp\n  dup2\n  sload\n  dup2\n  0xffffffffffffffffffffffffffffffffffffffff\n  mul\n  not\n  and\n  swap1\n  dup4\n  0xffffffffffffffffffffffffffffffffffffffff\n  and\n  mul\n  or\n  swap1\n  sstore\n  pop\n    /* \"contracts/Access-controled-guestbook/guestbook.sol\":298:1683  contract GuestBook {... */\n  dataSize(sub_0)\n  dup1\n  dataOffset(sub_0)\n  0x00\n  codecopy\n  0x00\n  return\nstop\n\nsub_0: assembly {\n        /* \"contracts/Access-controled-guestbook/guestbook.sol\":298:1683  contract GuestBook {... */\n      mstore(0x40, 0x80)\n      callvalue\n      dup1\n      iszero\n      tag_1\n      jumpi\n      revert(0x00, 0x00)\n    tag_1:\n      pop\n      jumpi(tag_2, lt(calldatasize, 0x04))\n      shr(0xe0, calldataload(0x00))\n      dup1\n      0x8da5cb5b\n      gt\n      tag_11\n      jumpi\n      dup1\n      0x8da5cb5b\n      eq\n      tag_7\n      jumpi\n      dup1\n      0xcafd8904\n      eq\n      tag_8\n      jumpi\n      dup1\n      0xd45bad0d\n      eq\n      tag_9\n      jumpi\n      dup1\n      0xf3d1306d\n      eq\n      tag_10\n      jumpi\n      jump(tag_2)\n    tag_11:\n      dup1\n      0x0d80fefd\n      eq\n      tag_3\n      jumpi\n      dup1\n      0x21b384ed\n      eq\n      tag_4\n      jumpi\n      dup1\n      0x6630f88f\n      eq\n      tag_5\n      jumpi\n      dup1\n      0x86f79edb\n      eq\n      tag_6\n      jumpi\n    tag_2:\n      revert(0x00, 0x00)\n        /* \"contracts/Access-controled-guestbook/guestbook.sol\":502:527  Message[] public messages */\n    tag_3:\n      tag_12\n      0x04\n      dup1\n      calldatasize\n      sub\n      dup2\n      add\n      swap1\n      tag_13\n      swap2\n      swap1\n      tag_14\n      jump\t// in\n    tag_13:\n      tag_15\n      jump\t// in\n    tag_12:\n      mload(0x40)\n      tag_16\n      swap4\n      swap3\n      swap2\n      swap1\n      tag_17\n      jump\t// in\n    tag_16:\n      mload(0x40)\n      dup1\n      swap2\n      sub\n      swap1\n      return\n        /* \"contracts/Access-controled-guestbook/guestbook.sol\":850:944  function addAllowedUser (address _user) public onlyOwner {... */\n    tag_4:\n      tag_18\n      0x04\n      dup1\n      calldatasize\n      sub\n      dup2\n      add\n      swap1\n      tag_19\n      swap2\n      swap1\n      tag_20\n      jump\t// in\n    tag_19:\n      tag_21\n      jump\t// in\n    tag_18:\n      stop\n        /* \"contracts/Access-controled-guestbook/guestbook.sol\":1052:1318  function postMessage (string memory _content) public allowedUser {... */\n    tag_5:\n      tag_22\n      0x04\n      dup1\n      calldatasize\n      sub\n      dup2\n      add\n      swap1\n      tag_23\n      swap2\n      swap1\n      tag_24\n      jump\t// in\n    tag_23:\n      tag_25\n      jump\t// in\n    tag_22:\n      stop\n        /* \"contracts/Access-controled-guestbook/guestbook.sol\":1413:1679  function getMessage (uint _index) public view returns(address, string memory, uint) {... */\n    tag_6:\n      tag_26\n      0x04\n      dup1\n      calldatasize\n      sub\n      dup2\n      add\n      swap1\n      tag_27\n      swap2\n      swap1\n      tag_14\n      jump\t// in\n    tag_27:\n      tag_28\n      jump\t// in\n    tag_26:\n      mload(0x40)\n      tag_29\n      swap4\n      swap3\n      swap2\n      swap1\n      tag_17\n      jump\t// in\n    tag_29:\n      mload(0x40)\n      dup1\n      swap2\n      sub\n      swap1\n      return\n        /* \"contracts/Access-controled-guestbook/guestbook.sol\":324:344  address public owner */\n    tag_7:\n      tag_30\n      tag_31\n      jump\t// in\n    tag_30:\n      mload(0x40)\n      tag_32\n      swap2\n      swap1\n      tag_33\n      jump\t// in\n    tag_32:\n      mload(0x40)\n      dup1\n      swap2\n      sub\n      swap1\n      return\n        /* \"contracts/Access-controled-guestbook/guestbook.sol\":948:1046  function removeAllowedUser (address _user) public onlyOwner {... */\n    tag_8:\n      tag_34\n      0x04\n      dup1\n      calldatasize\n      sub\n      dup2\n      add\n      swap1\n      tag_35\n      swap2\n      swap1\n      tag_20\n      jump\t// in\n    tag_35:\n      tag_36\n      jump\t// in\n    tag_34:\n      stop\n        /* \"contracts/Access-controled-guestbook/guestbook.sol\":1322:1409  function getTotalMessage() public view returns (uint) {... */\n    tag_9:\n      tag_37\n      tag_38\n      jump\t// in\n    tag_37:\n      mload(0x40)\n      tag_39\n      swap2\n      swap1\n      tag_40\n      jump\t// in\n    tag_39:\n      mload(0x40)\n      dup1\n      swap2\n      sub\n      swap1\n      return\n        /* \"contracts/Access-controled-guestbook/guestbook.sol\":351:396  mapping (address => bool) public allowedUsers */\n    tag_10:\n      tag_41\n      0x04\n      dup1\n      calldatasize\n      sub\n      dup2\n      add\n      swap1\n      tag_42\n      swap2\n      swap1\n      tag_20\n      jump\t// in\n    tag_42:\n      tag_43\n      jump\t// in\n    tag_41:\n      mload(0x40)\n      tag_44\n      swap2\n      swap1\n      tag_45\n      jump\t// in\n    tag_44:\n      mload(0x40)\n      dup1\n      swap2\n      sub\n      swap1\n      return\n        /* \"contracts/Access-controled-guestbook/guestbook.sol\":502:527  Message[] public messages */\n    tag_15:\n      0x02\n      dup2\n      dup2\n      sload\n      dup2\n      lt\n      tag_46\n      jumpi\n      0x00\n      dup1\n      revert\n    tag_46:\n      swap1\n      0x00\n      mstore\n      keccak256(0x00, 0x20)\n      swap1\n      0x03\n      mul\n      add\n      0x00\n      swap2\n      pop\n      swap1\n      pop\n      dup1\n      0x00\n      add\n      0x00\n      swap1\n      sload\n      swap1\n      0x0100\n      exp\n      swap1\n      div\n      0xffffffffffffffffffffffffffffffffffffffff\n      and\n      swap1\n      dup1\n      0x01\n      add\n      dup1\n      sload\n      tag_48\n      swap1\n      tag_49\n      jump\t// in\n    tag_48:\n      dup1\n      0x1f\n      add\n      0x20\n      dup1\n      swap2\n      div\n      mul\n      0x20\n      add\n      mload(0x40)\n      swap1\n      dup2\n      add\n      0x40\n      mstore\n      dup1\n      swap3\n      swap2\n      swap1\n      dup2\n      dup2\n      mstore\n      0x20\n      add\n      dup3\n      dup1\n      sload\n      tag_50\n      swap1\n      tag_49\n      jump\t// in\n    tag_50:\n      dup1\n      iszero\n      tag_51\n      jumpi\n      dup1\n      0x1f\n      lt\n      tag_52\n      jumpi\n      0x0100\n      dup1\n      dup4\n      sload\n      div\n      mul\n      dup4\n      mstore\n      swap2\n      0x20\n      add\n      swap2\n      jump(tag_51)\n    tag_52:\n      dup3\n      add\n      swap2\n      swap1\n      0x00\n      mstore\n      keccak256(0x00, 0x20)\n      swap1\n    tag_53:\n      dup2\n      sload\n      dup2\n      mstore\n      swap1\n      0x01\n      add\n      swap1\n      0x20\n      add\n      dup1\n      dup4\n      gt\n      tag_53\n      jumpi\n      dup3\n      swap1\n      sub\n      0x1f\n      and\n      dup3\n      add\n      swap2\n    tag_51:\n      pop\n      pop\n      pop\n      pop\n      pop\n      swap1\n      dup1\n      0x02\n      add\n      sload\n      swap1\n      pop\n      dup4\n      jump\t// out\n        /* \"contracts/Access-controled-guestbook/guestbook.sol\":850:944  function addAllowedUser (address _user) public onlyOwner {... */\n    tag_21:\n        /* \"contracts/Access-controled-guestbook/guestbook.sol\":706:711  owner */\n      0x00\n      0x00\n      swap1\n      sload\n      swap1\n      0x0100\n      exp\n      swap1\n      div\n      0xffffffffffffffffffffffffffffffffffffffff\n      and\n        /* \"contracts/Access-controled-guestbook/guestbook.sol\":692:711  msg.sender == owner */\n      0xffffffffffffffffffffffffffffffffffffffff\n      and\n        /* \"contracts/Access-controled-guestbook/guestbook.sol\":692:702  msg.sender */\n      caller\n        /* \"contracts/Access-controled-guestbook/guestbook.sol\":692:711  msg.sender == owner */\n      0xffffffffffffffffffffffffffffffffffffffff\n      and\n      eq\n        /* \"contracts/Access-controled-guestbook/guestbook.sol\":684:734  require(msg.sender == owner, \"Only owner allowed\") */\n      tag_55\n      jumpi\n      mload(0x40)\n      0x08c379a000000000000000000000000000000000000000000000000000000000\n      dup2\n      mstore\n      0x04\n      add\n      tag_56\n      swap1\n      tag_57\n      jump\t// in\n    tag_56:\n      mload(0x40)\n      dup1\n      swap2\n      sub\n      swap1\n      revert\n    tag_55:\n        /* \"contracts/Access-controled-guestbook/guestbook.sol\":936:940  true */\n      0x01\n        /* \"contracts/Access-controled-guestbook/guestbook.sol\":914:926  allowedUsers */\n      dup1\n        /* \"contracts/Access-controled-guestbook/guestbook.sol\":914:933  allowedUsers[_user] */\n      0x00\n        /* \"contracts/Access-controled-guestbook/guestbook.sol\":927:932  _user */\n      dup4\n        /* \"contracts/Access-controled-guestbook/guestbook.sol\":914:933  allowedUsers[_user] */\n      0xffffffffffffffffffffffffffffffffffffffff\n      and\n      0xffffffffffffffffffffffffffffffffffffffff\n      and\n      dup2\n      mstore\n      0x20\n      add\n      swap1\n      dup2\n      mstore\n      0x20\n      add\n      0x00\n      keccak256\n      0x00\n        /* \"contracts/Access-controled-guestbook/guestbook.sol\":914:940  allowedUsers[_user] = true */\n      0x0100\n      exp\n      dup2\n      sload\n      dup2\n      0xff\n      mul\n      not\n      and\n      swap1\n      dup4\n      iszero\n      iszero\n      mul\n      or\n      swap1\n      sstore\n      pop\n        /* \"contracts/Access-controled-guestbook/guestbook.sol\":850:944  function addAllowedUser (address _user) public onlyOwner {... */\n      pop\n      jump\t// out\n        /* \"contracts/Access-controled-guestbook/guestbook.sol\":1052:1318  function postMessage (string memory _content) public allowedUser {... */\n    tag_25:\n        /* \"contracts/Access-controled-guestbook/guestbook.sol\":786:798  allowedUsers */\n      0x01\n        /* \"contracts/Access-controled-guestbook/guestbook.sol\":786:810  allowedUsers[msg.sender] */\n      0x00\n        /* \"contracts/Access-controled-guestbook/guestbook.sol\":799:809  msg.sender */\n      caller\n        /* \"contracts/Access-controled-guestbook/guestbook.sol\":786:810  allowedUsers[msg.sender] */\n      0xffffffffffffffffffffffffffffffffffffffff\n      and\n      0xffffffffffffffffffffffffffffffffffffffff\n      and\n      dup2\n      mstore\n      0x20\n      add\n      swap1\n      dup2\n      mstore\n      0x20\n      add\n      0x00\n      keccak256\n      0x00\n      swap1\n      sload\n      swap1\n      0x0100\n      exp\n      swap1\n      div\n      0xff\n      and\n        /* \"contracts/Access-controled-guestbook/guestbook.sol\":778:834  require(allowedUsers[msg.sender], \"You are not allowed\") */\n      tag_60\n      jumpi\n      mload(0x40)\n      0x08c379a000000000000000000000000000000000000000000000000000000000\n      dup2\n      mstore\n      0x04\n      add\n      tag_61\n      swap1\n      tag_62\n      jump\t// in\n    tag_61:\n      mload(0x40)\n      dup1\n      swap2\n      sub\n      swap1\n      revert\n    tag_60:\n        /* \"contracts/Access-controled-guestbook/guestbook.sol\":1157:1158  0 */\n      0x00\n        /* \"contracts/Access-controled-guestbook/guestbook.sol\":1138:1146  _content */\n      dup2\n        /* \"contracts/Access-controled-guestbook/guestbook.sol\":1132:1154  bytes(_content).length */\n      mload\n        /* \"contracts/Access-controled-guestbook/guestbook.sol\":1132:1158  bytes(_content).length > 0 */\n      gt\n        /* \"contracts/Access-controled-guestbook/guestbook.sol\":1124:1185  require(bytes(_content).length > 0, \"Message can't be empty\") */\n      tag_64\n      jumpi\n      mload(0x40)\n      0x08c379a000000000000000000000000000000000000000000000000000000000\n      dup2\n      mstore\n      0x04\n      add\n      tag_65\n      swap1\n      tag_66\n      jump\t// in\n    tag_65:\n      mload(0x40)\n      dup1\n      swap2\n      sub\n      swap1\n      revert\n    tag_64:\n        /* \"contracts/Access-controled-guestbook/guestbook.sol\":1192:1200  messages */\n      0x02\n        /* \"contracts/Access-controled-guestbook/guestbook.sol\":1206:1252  Message(msg.sender, _content, block.timestamp) */\n      mload(0x40)\n      dup1\n      0x60\n      add\n      0x40\n      mstore\n      dup1\n        /* \"contracts/Access-controled-guestbook/guestbook.sol\":1214:1224  msg.sender */\n      caller\n        /* \"contracts/Access-controled-guestbook/guestbook.sol\":1206:1252  Message(msg.sender, _content, block.timestamp) */\n      0xffffffffffffffffffffffffffffffffffffffff\n      and\n      dup2\n      mstore\n      0x20\n      add\n        /* \"contracts/Access-controled-guestbook/guestbook.sol\":1226:1234  _content */\n      dup4\n        /* \"contracts/Access-controled-guestbook/guestbook.sol\":1206:1252  Message(msg.sender, _content, block.timestamp) */\n      dup2\n      mstore\n      0x20\n      add\n        /* \"contracts/Access-controled-guestbook/guestbook.sol\":1236:1251  block.timestamp */\n      timestamp\n        /* \"contracts/Access-controled-guestbook/guestbook.sol\":1206:1252  Message(msg.sender, _content, block.timestamp) */\n      dup2\n      mstore\n      pop\n        /* \"contracts/Access-controled-guestbook/guestbook.sol\":1192:1253  messages.push(Message(msg.sender, _content, block.timestamp)) */\n      swap1\n      dup1\n      0x01\n      dup2\n      sload\n      add\n      dup1\n      dup3\n      sstore\n      dup1\n      swap2\n      pop\n      pop\n      0x01\n      swap1\n      sub\n      swap1\n      0x00\n      mstore\n      keccak256(0x00, 0x20)\n      swap1\n      0x03\n      mul\n      add\n      0x00\n      swap1\n      swap2\n      swap1\n      swap2\n      swap1\n      swap2\n      pop\n      0x00\n      dup3\n      add\n      mload\n      dup2\n      0x00\n      add\n      exp(0x0100, 0x00)\n      dup2\n      sload\n      dup2\n      0xffffffffffffffffffffffffffffffffffffffff\n      mul\n      not\n      and\n      swap1\n      dup4\n      0xffffffffffffffffffffffffffffffffffffffff\n      and\n      mul\n      or\n      swap1\n      sstore\n      pop\n      0x20\n      dup3\n      add\n      mload\n      dup2\n      0x01\n      add\n      swap1\n      dup2\n      tag_68\n      swap2\n      swap1\n      tag_69\n      jump\t// in\n    tag_68:\n      pop\n      0x40\n      dup3\n      add\n      mload\n      dup2\n      0x02\n      add\n      sstore\n      pop\n      pop\n        /* \"contracts/Access-controled-guestbook/guestbook.sol\":1276:1286  msg.sender */\n      caller\n        /* \"contracts/Access-controled-guestbook/guestbook.sol\":1265:1314  newMessage(msg.sender, _content, block.timestamp) */\n      0xffffffffffffffffffffffffffffffffffffffff\n      and\n      0xcaf4ba9a3355d3b4552c98c7344da6269208f207fbd6406e4e1d655e92fd3d76\n        /* \"contracts/Access-controled-guestbook/guestbook.sol\":1288:1296  _content */\n      dup3\n        /* \"contracts/Access-controled-guestbook/guestbook.sol\":1298:1313  block.timestamp */\n      timestamp\n        /* \"contracts/Access-controled-guestbook/guestbook.sol\":1265:1314  newMessage(msg.sender, _content, block.timestamp) */\n      mload(0x40)\n      tag_70\n      swap3\n      swap2\n      swap1\n      tag_71\n      jump\t// in\n    tag_70:\n      mload(0x40)\n      dup1\n      swap2\n      sub\n      swap1\n      log2\n        /* \"contracts/Access-controled-guestbook/guestbook.sol\":1052:1318  function postMessage (string memory _content) public allowedUser {... */\n      pop\n      jump\t// out\n        /* \"contracts/Access-controled-guestbook/guestbook.sol\":1413:1679  function getMessage (uint _index) public view returns(address, string memory, uint) {... */\n    tag_28:\n        /* \"contracts/Access-controled-guestbook/guestbook.sol\":1467:1474  address */\n      0x00\n        /* \"contracts/Access-controled-guestbook/guestbook.sol\":1476:1489  string memory */\n      0x60\n        /* \"contracts/Access-controled-guestbook/guestbook.sol\":1491:1495  uint */\n      0x00\n        /* \"contracts/Access-controled-guestbook/guestbook.sol\":1521:1529  messages */\n      0x02\n        /* \"contracts/Access-controled-guestbook/guestbook.sol\":1521:1536  messages.length */\n      dup1\n      sload\n      swap1\n      pop\n        /* \"contracts/Access-controled-guestbook/guestbook.sol\":1512:1518  _index */\n      dup5\n        /* \"contracts/Access-controled-guestbook/guestbook.sol\":1512:1536  _index < messages.length */\n      lt\n        /* \"contracts/Access-controled-guestbook/guestbook.sol\":1504:1566  require(_index < messages.length,  \"Please Enter valid index\") */\n      tag_73\n      jumpi\n      mload(0x40)\n      0x08c379a000000000000000000000000000000000000000000000000000000000\n      dup2\n      mstore\n      0x04\n      add\n      tag_74\n      swap1\n      tag_75\n      jump\t// in\n    tag_74:\n      mload(0x40)\n      dup1\n      swap2\n      sub\n      swap1\n      revert\n    tag_73:\n        /* \"contracts/Access-controled-guestbook/guestbook.sol\":1572:1594  Message storage msgObj */\n      0x00\n        /* \"contracts/Access-controled-guestbook/guestbook.sol\":1597:1605  messages */\n      0x02\n        /* \"contracts/Access-controled-guestbook/guestbook.sol\":1606:1612  _index */\n      dup6\n        /* \"contracts/Access-controled-guestbook/guestbook.sol\":1597:1613  messages[_index] */\n      dup2\n      sload\n      dup2\n      lt\n      tag_76\n      jumpi\n      tag_77\n      tag_78\n      jump\t// in\n    tag_77:\n    tag_76:\n      swap1\n      0x00\n      mstore\n      keccak256(0x00, 0x20)\n      swap1\n      0x03\n      mul\n      add\n        /* \"contracts/Access-controled-guestbook/guestbook.sol\":1572:1613  Message storage msgObj = messages[_index] */\n      swap1\n      pop\n        /* \"contracts/Access-controled-guestbook/guestbook.sol\":1627:1633  msgObj */\n      dup1\n        /* \"contracts/Access-controled-guestbook/guestbook.sol\":1627:1640  msgObj.sender */\n      0x00\n      add\n      0x00\n      swap1\n      sload\n      swap1\n      0x0100\n      exp\n      swap1\n      div\n      0xffffffffffffffffffffffffffffffffffffffff\n      and\n        /* \"contracts/Access-controled-guestbook/guestbook.sol\":1642:1648  msgObj */\n      dup2\n        /* \"contracts/Access-controled-guestbook/guestbook.sol\":1642:1656  msgObj.content */\n      0x01\n      add\n        /* \"contracts/Access-controled-guestbook/guestbook.sol\":1658:1664  msgObj */\n      dup3\n        /* \"contracts/Access-controled-guestbook/guestbook.sol\":1658:1674  msgObj.timestamp */\n      0x02\n      add\n      sload\n        /* \"contracts/Access-controled-guestbook/guestbook.sol\":1619:1675  return (msgObj.sender, msgObj.content, msgObj.timestamp) */\n      dup2\n      dup1\n      sload\n      tag_80\n      swap1\n      tag_49\n      jump\t// in\n    tag_80:\n      dup1\n      0x1f\n      add\n      0x20\n      dup1\n      swap2\n      div\n      mul\n      0x20\n      add\n      mload(0x40)\n      swap1\n      dup2\n      add\n      0x40\n      mstore\n      dup1\n      swap3\n      swap2\n      swap1\n      dup2\n      dup2\n      mstore\n      0x20\n      add\n      dup3\n      dup1\n      sload\n      tag_81\n      swap1\n      tag_49\n      jump\t// in\n    tag_81:\n      dup1\n      iszero\n      tag_82\n      jumpi\n      dup1\n      0x1f\n      lt\n      tag_83\n      jumpi\n      0x0100\n      dup1\n      dup4\n      sload\n      div\n      mul\n      dup4\n      mstore\n      swap2\n      0x20\n      add\n      swap2\n      jump(tag_82)\n    tag_83:\n      dup3\n      add\n      swap2\n      swap1\n      0x00\n      mstore\n      keccak256(0x00, 0x20)\n      swap1\n    tag_84:\n      dup2\n      sload\n      dup2\n      mstore\n      swap1\n      0x01\n      add\n      swap1\n      0x20\n      add\n      dup1\n      dup4\n      gt\n      tag_84\n      jumpi\n      dup3\n      swap1\n      sub\n      0x1f\n      and\n      dup3\n      add\n      swap2\n    tag_82:\n      pop\n      pop\n      pop\n      pop\n      pop\n      swap2\n      pop\n      swap4\n      pop\n      swap4\n      pop\n      swap4\n      pop\n      pop\n        /* \"contracts/Access-controled-guestbook/guestbook.sol\":1413:1679  function getMessage (uint _index) public view returns(address, string memory, uint) {... */\n      swap2\n      swap4\n      swap1\n      swap3\n      pop\n      jump\t// out\n        /* \"contracts/Access-controled-guestbook/guestbook.sol\":324:344  address public owner */\n    tag_31:\n      0x00\n      0x00\n      swap1\n      sload\n      swap1\n      0x0100\n      exp\n      swap1\n      div\n      0xffffffffffffffffffffffffffffffffffffffff\n      and\n      dup2\n      jump\t// out\n        /* \"contracts/Access-controled-guestbook/guestbook.sol\":948:1046  function removeAllowedUser (address _user) public onlyOwner {... */\n    tag_36:\n        /* \"contracts/Access-controled-guestbook/guestbook.sol\":706:711  owner */\n      0x00\n      0x00\n      swap1\n      sload\n      swap1\n      0x0100\n      exp\n      swap1\n      div\n      0xffffffffffffffffffffffffffffffffffffffff\n      and\n        /* \"contracts/Access-controled-guestbook/guestbook.sol\":692:711  msg.sender == owner */\n      0xffffffffffffffffffffffffffffffffffffffff\n      and\n        /* \"contracts/Access-controled-guestbook/guestbook.sol\":692:702  msg.sender */\n      caller\n        /* \"contracts/Access-controled-guestbook/guestbook.sol\":692:711  msg.sender == owner */\n      0xffffffffffffffffffffffffffffffffffffffff\n      and\n      eq\n        /* \"contracts/Access-controled-guestbook/guestbook.sol\":684:734  require(msg.sender == owner, \"Only owner allowed\") */\n      tag_86\n      jumpi\n      mload(0x40)\n      0x08c379a000000000000000000000000000000000000000000000000000000000\n      dup2\n      mstore\n      0x04\n      add\n      tag_87\n      swap1\n      tag_57\n      jump\t// in\n    tag_87:\n      mload(0x40)\n      dup1\n      swap2\n      sub\n      swap1\n      revert\n    tag_86:\n        /* \"contracts/Access-controled-guestbook/guestbook.sol\":1037:1042  false */\n      0x00\n        /* \"contracts/Access-controled-guestbook/guestbook.sol\":1015:1027  allowedUsers */\n      0x01\n        /* \"contracts/Access-controled-guestbook/guestbook.sol\":1015:1034  allowedUsers[_user] */\n      0x00\n        /* \"contracts/Access-controled-guestbook/guestbook.sol\":1028:1033  _user */\n      dup4\n        /* \"contracts/Access-controled-guestbook/guestbook.sol\":1015:1034  allowedUsers[_user] */\n      0xffffffffffffffffffffffffffffffffffffffff\n      and\n      0xffffffffffffffffffffffffffffffffffffffff\n      and\n      dup2\n      mstore\n      0x20\n      add\n      swap1\n      dup2\n      mstore\n      0x20\n      add\n      0x00\n      keccak256\n      0x00\n        /* \"contracts/Access-controled-guestbook/guestbook.sol\":1015:1042  allowedUsers[_user] = false */\n      0x0100\n      exp\n      dup2\n      sload\n      dup2\n      0xff\n      mul\n      not\n      and\n      swap1\n      dup4\n      iszero\n      iszero\n      mul\n      or\n      swap1\n      sstore\n      pop\n        /* \"contracts/Access-controled-guestbook/guestbook.sol\":948:1046  function removeAllowedUser (address _user) public onlyOwner {... */\n      pop\n      jump\t// out\n        /* \"contracts/Access-controled-guestbook/guestbook.sol\":1322:1409  function getTotalMessage() public view returns (uint) {... */\n    tag_38:\n        /* \"contracts/Access-controled-guestbook/guestbook.sol\":1370:1374  uint */\n      0x00\n        /* \"contracts/Access-controled-guestbook/guestbook.sol\":1390:1398  messages */\n      0x02\n        /* \"contracts/Access-controled-guestbook/guestbook.sol\":1390:1405  messages.length */\n      dup1\n      sload\n      swap1\n      pop\n        /* \"contracts/Access-controled-guestbook/guestbook.sol\":1383:1405  return messages.length */\n      swap1\n      pop\n        /* \"contracts/Access-controled-guestbook/guestbook.sol\":1322:1409  function getTotalMessage() public view returns (uint) {... */\n      swap1\n      jump\t// out\n        /* \"contracts/Access-controled-guestbook/guestbook.sol\":351:396  mapping (address => bool) public allowedUsers */\n    tag_43:\n      mstore(0x20, 0x01)\n      dup1\n      0x00\n      mstore\n      keccak256(0x00, 0x40)\n      0x00\n      swap2\n      pop\n      sload\n      swap1\n      0x0100\n      exp\n      swap1\n      div\n      0xff\n      and\n      dup2\n      jump\t// out\n        /* \"#utility.yul\":7:82   */\n    tag_90:\n        /* \"#utility.yul\":40:46   */\n      0x00\n        /* \"#utility.yul\":73:75   */\n      0x40\n        /* \"#utility.yul\":67:76   */\n      mload\n        /* \"#utility.yul\":57:76   */\n      swap1\n      pop\n        /* \"#utility.yul\":7:82   */\n      swap1\n      jump\t// out\n        /* \"#utility.yul\":88:205   */\n    tag_91:\n        /* \"#utility.yul\":197:198   */\n      0x00\n        /* \"#utility.yul\":194:195   */\n      0x00\n        /* \"#utility.yul\":187:199   */\n      revert\n        /* \"#utility.yul\":211:328   */\n    tag_92:\n        /* \"#utility.yul\":320:321   */\n      0x00\n        /* \"#utility.yul\":317:318   */\n      0x00\n        /* \"#utility.yul\":310:322   */\n      revert\n        /* \"#utility.yul\":334:411   */\n    tag_93:\n        /* \"#utility.yul\":371:378   */\n      0x00\n        /* \"#utility.yul\":400:405   */\n      dup2\n        /* \"#utility.yul\":389:405   */\n      swap1\n      pop\n        /* \"#utility.yul\":334:411   */\n      swap2\n      swap1\n      pop\n      jump\t// out\n        /* \"#utility.yul\":417:539   */\n    tag_94:\n        /* \"#utility.yul\":490:514   */\n      tag_148\n        /* \"#utility.yul\":508:513   */\n      dup2\n        /* \"#utility.yul\":490:514   */\n      tag_93\n      jump\t// in\n    tag_148:\n        /* \"#utility.yul\":483:488   */\n      dup2\n        /* \"#utility.yul\":480:515   */\n      eq\n        /* \"#utility.yul\":470:533   */\n      tag_149\n      jumpi\n        /* \"#utility.yul\":529:530   */\n      0x00\n        /* \"#utility.yul\":526:527   */\n      0x00\n        /* \"#utility.yul\":519:531   */\n      revert\n        /* \"#utility.yul\":470:533   */\n    tag_149:\n        /* \"#utility.yul\":417:539   */\n      pop\n      jump\t// out\n        /* \"#utility.yul\":545:684   */\n    tag_95:\n        /* \"#utility.yul\":591:596   */\n      0x00\n        /* \"#utility.yul\":629:635   */\n      dup2\n        /* \"#utility.yul\":616:636   */\n      calldataload\n        /* \"#utility.yul\":607:636   */\n      swap1\n      pop\n        /* \"#utility.yul\":645:678   */\n      tag_151\n        /* \"#utility.yul\":672:677   */\n      dup2\n        /* \"#utility.yul\":645:678   */\n      tag_94\n      jump\t// in\n    tag_151:\n        /* \"#utility.yul\":545:684   */\n      swap3\n      swap2\n      pop\n      pop\n      jump\t// out\n        /* \"#utility.yul\":690:1019   */\n    tag_14:\n        /* \"#utility.yul\":749:755   */\n      0x00\n        /* \"#utility.yul\":798:800   */\n      0x20\n        /* \"#utility.yul\":786:795   */\n      dup3\n        /* \"#utility.yul\":777:784   */\n      dup5\n        /* \"#utility.yul\":773:796   */\n      sub\n        /* \"#utility.yul\":769:801   */\n      slt\n        /* \"#utility.yul\":766:885   */\n      iszero\n      tag_153\n      jumpi\n        /* \"#utility.yul\":804:883   */\n      tag_154\n      tag_91\n      jump\t// in\n    tag_154:\n        /* \"#utility.yul\":766:885   */\n    tag_153:\n        /* \"#utility.yul\":924:925   */\n      0x00\n        /* \"#utility.yul\":949:1002   */\n      tag_155\n        /* \"#utility.yul\":994:1001   */\n      dup5\n        /* \"#utility.yul\":985:991   */\n      dup3\n        /* \"#utility.yul\":974:983   */\n      dup6\n        /* \"#utility.yul\":970:992   */\n      add\n        /* \"#utility.yul\":949:1002   */\n      tag_95\n      jump\t// in\n    tag_155:\n        /* \"#utility.yul\":939:1002   */\n      swap2\n      pop\n        /* \"#utility.yul\":895:1012   */\n      pop\n        /* \"#utility.yul\":690:1019   */\n      swap3\n      swap2\n      pop\n      pop\n      jump\t// out\n        /* \"#utility.yul\":1025:1151   */\n    tag_96:\n        /* \"#utility.yul\":1062:1069   */\n      0x00\n        /* \"#utility.yul\":1102:1144   */\n      0xffffffffffffffffffffffffffffffffffffffff\n        /* \"#utility.yul\":1095:1100   */\n      dup3\n        /* \"#utility.yul\":1091:1145   */\n      and\n        /* \"#utility.yul\":1080:1145   */\n      swap1\n      pop\n        /* \"#utility.yul\":1025:1151   */\n      swap2\n      swap1\n      pop\n      jump\t// out\n        /* \"#utility.yul\":1157:1253   */\n    tag_97:\n        /* \"#utility.yul\":1194:1201   */\n      0x00\n        /* \"#utility.yul\":1223:1247   */\n      tag_158\n        /* \"#utility.yul\":1241:1246   */\n      dup3\n        /* \"#utility.yul\":1223:1247   */\n      tag_96\n      jump\t// in\n    tag_158:\n        /* \"#utility.yul\":1212:1247   */\n      swap1\n      pop\n        /* \"#utility.yul\":1157:1253   */\n      swap2\n      swap1\n      pop\n      jump\t// out\n        /* \"#utility.yul\":1259:1377   */\n    tag_98:\n        /* \"#utility.yul\":1346:1370   */\n      tag_160\n        /* \"#utility.yul\":1364:1369   */\n      dup2\n        /* \"#utility.yul\":1346:1370   */\n      tag_97\n      jump\t// in\n    tag_160:\n        /* \"#utility.yul\":1341:1344   */\n      dup3\n        /* \"#utility.yul\":1334:1371   */\n      mstore\n        /* \"#utility.yul\":1259:1377   */\n      pop\n      pop\n      jump\t// out\n        /* \"#utility.yul\":1383:1482   */\n    tag_99:\n        /* \"#utility.yul\":1435:1441   */\n      0x00\n        /* \"#utility.yul\":1469:1474   */\n      dup2\n        /* \"#utility.yul\":1463:1475   */\n      mload\n        /* \"#utility.yul\":1453:1475   */\n      swap1\n      pop\n        /* \"#utility.yul\":1383:1482   */\n      swap2\n      swap1\n      pop\n      jump\t// out\n        /* \"#utility.yul\":1488:1657   */\n    tag_100:\n        /* \"#utility.yul\":1572:1583   */\n      0x00\n        /* \"#utility.yul\":1606:1612   */\n      dup3\n        /* \"#utility.yul\":1601:1604   */\n      dup3\n        /* \"#utility.yul\":1594:1613   */\n      mstore\n        /* \"#utility.yul\":1646:1650   */\n      0x20\n        /* \"#utility.yul\":1641:1644   */\n      dup3\n        /* \"#utility.yul\":1637:1651   */\n      add\n        /* \"#utility.yul\":1622:1651   */\n      swap1\n      pop\n        /* \"#utility.yul\":1488:1657   */\n      swap3\n      swap2\n      pop\n      pop\n      jump\t// out\n        /* \"#utility.yul\":1663:1802   */\n    tag_101:\n        /* \"#utility.yul\":1752:1758   */\n      dup3\n        /* \"#utility.yul\":1747:1750   */\n      dup2\n        /* \"#utility.yul\":1742:1745   */\n      dup4\n        /* \"#utility.yul\":1736:1759   */\n      mcopy\n        /* \"#utility.yul\":1793:1794   */\n      0x00\n        /* \"#utility.yul\":1784:1790   */\n      dup4\n        /* \"#utility.yul\":1779:1782   */\n      dup4\n        /* \"#utility.yul\":1775:1791   */\n      add\n        /* \"#utility.yul\":1768:1795   */\n      mstore\n        /* \"#utility.yul\":1663:1802   */\n      pop\n      pop\n      pop\n      jump\t// out\n        /* \"#utility.yul\":1808:1910   */\n    tag_102:\n        /* \"#utility.yul\":1849:1855   */\n      0x00\n        /* \"#utility.yul\":1900:1902   */\n      0x1f\n        /* \"#utility.yul\":1896:1903   */\n      not\n        /* \"#utility.yul\":1891:1893   */\n      0x1f\n        /* \"#utility.yul\":1884:1889   */\n      dup4\n        /* \"#utility.yul\":1880:1894   */\n      add\n        /* \"#utility.yul\":1876:1904   */\n      and\n        /* \"#utility.yul\":1866:1904   */\n      swap1\n      pop\n        /* \"#utility.yul\":1808:1910   */\n      swap2\n      swap1\n      pop\n      jump\t// out\n        /* \"#utility.yul\":1916:2293   */\n    tag_103:\n        /* \"#utility.yul\":2004:2007   */\n      0x00\n        /* \"#utility.yul\":2032:2071   */\n      tag_166\n        /* \"#utility.yul\":2065:2070   */\n      dup3\n        /* \"#utility.yul\":2032:2071   */\n      tag_99\n      jump\t// in\n    tag_166:\n        /* \"#utility.yul\":2087:2158   */\n      tag_167\n        /* \"#utility.yul\":2151:2157   */\n      dup2\n        /* \"#utility.yul\":2146:2149   */\n      dup6\n        /* \"#utility.yul\":2087:2158   */\n      tag_100\n      jump\t// in\n    tag_167:\n        /* \"#utility.yul\":2080:2158   */\n      swap4\n      pop\n        /* \"#utility.yul\":2167:2232   */\n      tag_168\n        /* \"#utility.yul\":2225:2231   */\n      dup2\n        /* \"#utility.yul\":2220:2223   */\n      dup6\n        /* \"#utility.yul\":2213:2217   */\n      0x20\n        /* \"#utility.yul\":2206:2211   */\n      dup7\n        /* \"#utility.yul\":2202:2218   */\n      add\n        /* \"#utility.yul\":2167:2232   */\n      tag_101\n      jump\t// in\n    tag_168:\n        /* \"#utility.yul\":2257:2286   */\n      tag_169\n        /* \"#utility.yul\":2279:2285   */\n      dup2\n        /* \"#utility.yul\":2257:2286   */\n      tag_102\n      jump\t// in\n    tag_169:\n        /* \"#utility.yul\":2252:2255   */\n      dup5\n        /* \"#utility.yul\":2248:2287   */\n      add\n        /* \"#utility.yul\":2241:2287   */\n      swap2\n      pop\n        /* \"#utility.yul\":2008:2293   */\n      pop\n        /* \"#utility.yul\":1916:2293   */\n      swap3\n      swap2\n      pop\n      pop\n      jump\t// out\n        /* \"#utility.yul\":2299:2417   */\n    tag_104:\n        /* \"#utility.yul\":2386:2410   */\n      tag_171\n        /* \"#utility.yul\":2404:2409   */\n      dup2\n        /* \"#utility.yul\":2386:2410   */\n      tag_93\n      jump\t// in\n    tag_171:\n        /* \"#utility.yul\":2381:2384   */\n      dup3\n        /* \"#utility.yul\":2374:2411   */\n      mstore\n        /* \"#utility.yul\":2299:2417   */\n      pop\n      pop\n      jump\t// out\n        /* \"#utility.yul\":2423:2956   */\n    tag_17:\n        /* \"#utility.yul\":2592:2596   */\n      0x00\n        /* \"#utility.yul\":2630:2632   */\n      0x60\n        /* \"#utility.yul\":2619:2628   */\n      dup3\n        /* \"#utility.yul\":2615:2633   */\n      add\n        /* \"#utility.yul\":2607:2633   */\n      swap1\n      pop\n        /* \"#utility.yul\":2643:2714   */\n      tag_173\n        /* \"#utility.yul\":2711:2712   */\n      0x00\n        /* \"#utility.yul\":2700:2709   */\n      dup4\n        /* \"#utility.yul\":2696:2713   */\n      add\n        /* \"#utility.yul\":2687:2693   */\n      dup7\n        /* \"#utility.yul\":2643:2714   */\n      tag_98\n      jump\t// in\n    tag_173:\n        /* \"#utility.yul\":2761:2770   */\n      dup2\n        /* \"#utility.yul\":2755:2759   */\n      dup2\n        /* \"#utility.yul\":2751:2771   */\n      sub\n        /* \"#utility.yul\":2746:2748   */\n      0x20\n        /* \"#utility.yul\":2735:2744   */\n      dup4\n        /* \"#utility.yul\":2731:2749   */\n      add\n        /* \"#utility.yul\":2724:2772   */\n      mstore\n        /* \"#utility.yul\":2789:2867   */\n      tag_174\n        /* \"#utility.yul\":2862:2866   */\n      dup2\n        /* \"#utility.yul\":2853:2859   */\n      dup6\n        /* \"#utility.yul\":2789:2867   */\n      tag_103\n      jump\t// in\n    tag_174:\n        /* \"#utility.yul\":2781:2867   */\n      swap1\n      pop\n        /* \"#utility.yul\":2877:2949   */\n      tag_175\n        /* \"#utility.yul\":2945:2947   */\n      0x40\n        /* \"#utility.yul\":2934:2943   */\n      dup4\n        /* \"#utility.yul\":2930:2948   */\n      add\n        /* \"#utility.yul\":2921:2927   */\n      dup5\n        /* \"#utility.yul\":2877:2949   */\n      tag_104\n      jump\t// in\n    tag_175:\n        /* \"#utility.yul\":2423:2956   */\n      swap5\n      swap4\n      pop\n      pop\n      pop\n      pop\n      jump\t// out\n        /* \"#utility.yul\":2962:3084   */\n    tag_105:\n        /* \"#utility.yul\":3035:3059   */\n      tag_177\n        /* \"#utility.yul\":3053:3058   */\n      dup2\n        /* \"#utility.yul\":3035:3059   */\n      tag_97\n      jump\t// in\n    tag_177:\n        /* \"#utility.yul\":3028:3033   */\n      dup2\n        /* \"#utility.yul\":3025:3060   */\n      eq\n        /* \"#utility.yul\":3015:3078   */\n      tag_178\n      jumpi\n        /* \"#utility.yul\":3074:3075   */\n      0x00\n        /* \"#utility.yul\":3071:3072   */\n      0x00\n        /* \"#utility.yul\":3064:3076   */\n      revert\n        /* \"#utility.yul\":3015:3078   */\n    tag_178:\n        /* \"#utility.yul\":2962:3084   */\n      pop\n      jump\t// out\n        /* \"#utility.yul\":3090:3229   */\n    tag_106:\n        /* \"#utility.yul\":3136:3141   */\n      0x00\n        /* \"#utility.yul\":3174:3180   */\n      dup2\n        /* \"#utility.yul\":3161:3181   */\n      calldataload\n        /* \"#utility.yul\":3152:3181   */\n      swap1\n      pop\n        /* \"#utility.yul\":3190:3223   */\n      tag_180\n        /* \"#utility.yul\":3217:3222   */\n      dup2\n        /* \"#utility.yul\":3190:3223   */\n      tag_105\n      jump\t// in\n    tag_180:\n        /* \"#utility.yul\":3090:3229   */\n      swap3\n      swap2\n      pop\n      pop\n      jump\t// out\n        /* \"#utility.yul\":3235:3564   */\n    tag_20:\n        /* \"#utility.yul\":3294:3300   */\n      0x00\n        /* \"#utility.yul\":3343:3345   */\n      0x20\n        /* \"#utility.yul\":3331:3340   */\n      dup3\n        /* \"#utility.yul\":3322:3329   */\n      dup5\n        /* \"#utility.yul\":3318:3341   */\n      sub\n        /* \"#utility.yul\":3314:3346   */\n      slt\n        /* \"#utility.yul\":3311:3430   */\n      iszero\n      tag_182\n      jumpi\n        /* \"#utility.yul\":3349:3428   */\n      tag_183\n      tag_91\n      jump\t// in\n    tag_183:\n        /* \"#utility.yul\":3311:3430   */\n    tag_182:\n        /* \"#utility.yul\":3469:3470   */\n      0x00\n        /* \"#utility.yul\":3494:3547   */\n      tag_184\n        /* \"#utility.yul\":3539:3546   */\n      dup5\n        /* \"#utility.yul\":3530:3536   */\n      dup3\n        /* \"#utility.yul\":3519:3528   */\n      dup6\n        /* \"#utility.yul\":3515:3537   */\n      add\n        /* \"#utility.yul\":3494:3547   */\n      tag_106\n      jump\t// in\n    tag_184:\n        /* \"#utility.yul\":3484:3547   */\n      swap2\n      pop\n        /* \"#utility.yul\":3440:3557   */\n      pop\n        /* \"#utility.yul\":3235:3564   */\n      swap3\n      swap2\n      pop\n      pop\n      jump\t// out\n        /* \"#utility.yul\":3570:3687   */\n    tag_107:\n        /* \"#utility.yul\":3679:3680   */\n      0x00\n        /* \"#utility.yul\":3676:3677   */\n      0x00\n        /* \"#utility.yul\":3669:3681   */\n      revert\n        /* \"#utility.yul\":3693:3810   */\n    tag_108:\n        /* \"#utility.yul\":3802:3803   */\n      0x00\n        /* \"#utility.yul\":3799:3800   */\n      0x00\n        /* \"#utility.yul\":3792:3804   */\n      revert\n        /* \"#utility.yul\":3816:3996   */\n    tag_109:\n        /* \"#utility.yul\":3864:3941   */\n      0x4e487b7100000000000000000000000000000000000000000000000000000000\n        /* \"#utility.yul\":3861:3862   */\n      0x00\n        /* \"#utility.yul\":3854:3942   */\n      mstore\n        /* \"#utility.yul\":3961:3965   */\n      0x41\n        /* \"#utility.yul\":3958:3959   */\n      0x04\n        /* \"#utility.yul\":3951:3966   */\n      mstore\n        /* \"#utility.yul\":3985:3989   */\n      0x24\n        /* \"#utility.yul\":3982:3983   */\n      0x00\n        /* \"#utility.yul\":3975:3990   */\n      revert\n        /* \"#utility.yul\":4002:4283   */\n    tag_110:\n        /* \"#utility.yul\":4085:4112   */\n      tag_189\n        /* \"#utility.yul\":4107:4111   */\n      dup3\n        /* \"#utility.yul\":4085:4112   */\n      tag_102\n      jump\t// in\n    tag_189:\n        /* \"#utility.yul\":4077:4083   */\n      dup2\n        /* \"#utility.yul\":4073:4113   */\n      add\n        /* \"#utility.yul\":4215:4221   */\n      dup2\n        /* \"#utility.yul\":4203:4213   */\n      dup2\n        /* \"#utility.yul\":4200:4222   */\n      lt\n        /* \"#utility.yul\":4179:4197   */\n      0xffffffffffffffff\n        /* \"#utility.yul\":4167:4177   */\n      dup3\n        /* \"#utility.yul\":4164:4198   */\n      gt\n        /* \"#utility.yul\":4161:4223   */\n      or\n        /* \"#utility.yul\":4158:4246   */\n      iszero\n      tag_190\n      jumpi\n        /* \"#utility.yul\":4226:4244   */\n      tag_191\n      tag_109\n      jump\t// in\n    tag_191:\n        /* \"#utility.yul\":4158:4246   */\n    tag_190:\n        /* \"#utility.yul\":4266:4276   */\n      dup1\n        /* \"#utility.yul\":4262:4264   */\n      0x40\n        /* \"#utility.yul\":4255:4277   */\n      mstore\n        /* \"#utility.yul\":4045:4283   */\n      pop\n        /* \"#utility.yul\":4002:4283   */\n      pop\n      pop\n      jump\t// out\n        /* \"#utility.yul\":4289:4418   */\n    tag_111:\n        /* \"#utility.yul\":4323:4329   */\n      0x00\n        /* \"#utility.yul\":4350:4370   */\n      tag_193\n      tag_90\n      jump\t// in\n    tag_193:\n        /* \"#utility.yul\":4340:4370   */\n      swap1\n      pop\n        /* \"#utility.yul\":4379:4412   */\n      tag_194\n        /* \"#utility.yul\":4407:4411   */\n      dup3\n        /* \"#utility.yul\":4399:4405   */\n      dup3\n        /* \"#utility.yul\":4379:4412   */\n      tag_110\n      jump\t// in\n    tag_194:\n        /* \"#utility.yul\":4289:4418   */\n      swap2\n      swap1\n      pop\n      jump\t// out\n        /* \"#utility.yul\":4424:4732   */\n    tag_112:\n        /* \"#utility.yul\":4486:4490   */\n      0x00\n        /* \"#utility.yul\":4576:4594   */\n      0xffffffffffffffff\n        /* \"#utility.yul\":4568:4574   */\n      dup3\n        /* \"#utility.yul\":4565:4595   */\n      gt\n        /* \"#utility.yul\":4562:4618   */\n      iszero\n      tag_196\n      jumpi\n        /* \"#utility.yul\":4598:4616   */\n      tag_197\n      tag_109\n      jump\t// in\n    tag_197:\n        /* \"#utility.yul\":4562:4618   */\n    tag_196:\n        /* \"#utility.yul\":4636:4665   */\n      tag_198\n        /* \"#utility.yul\":4658:4664   */\n      dup3\n        /* \"#utility.yul\":4636:4665   */\n      tag_102\n      jump\t// in\n    tag_198:\n        /* \"#utility.yul\":4628:4665   */\n      swap1\n      pop\n        /* \"#utility.yul\":4720:4724   */\n      0x20\n        /* \"#utility.yul\":4714:4718   */\n      dup2\n        /* \"#utility.yul\":4710:4725   */\n      add\n        /* \"#utility.yul\":4702:4725   */\n      swap1\n      pop\n        /* \"#utility.yul\":4424:4732   */\n      swap2\n      swap1\n      pop\n      jump\t// out\n        /* \"#utility.yul\":4738:4886   */\n    tag_113:\n        /* \"#utility.yul\":4836:4842   */\n      dup3\n        /* \"#utility.yul\":4831:4834   */\n      dup2\n        /* \"#utility.yul\":4826:4829   */\n      dup4\n        /* \"#utility.yul\":4813:4843   */\n      calldatacopy\n        /* \"#utility.yul\":4877:4878   */\n      0x00\n        /* \"#utility.yul\":4868:4874   */\n      dup4\n        /* \"#utility.yul\":4863:4866   */\n      dup4\n        /* \"#utility.yul\":4859:4875   */\n      add\n        /* \"#utility.yul\":4852:4879   */\n      mstore\n        /* \"#utility.yul\":4738:4886   */\n      pop\n      pop\n      pop\n      jump\t// out\n        /* \"#utility.yul\":4892:5317   */\n    tag_114:\n        /* \"#utility.yul\":4970:4975   */\n      0x00\n        /* \"#utility.yul\":4995:5061   */\n      tag_201\n        /* \"#utility.yul\":5011:5060   */\n      tag_202\n        /* \"#utility.yul\":5053:5059   */\n      dup5\n        /* \"#utility.yul\":5011:5060   */\n      tag_112\n      jump\t// in\n    tag_202:\n        /* \"#utility.yul\":4995:5061   */\n      tag_111\n      jump\t// in\n    tag_201:\n        /* \"#utility.yul\":4986:5061   */\n      swap1\n      pop\n        /* \"#utility.yul\":5084:5090   */\n      dup3\n        /* \"#utility.yul\":5077:5082   */\n      dup2\n        /* \"#utility.yul\":5070:5091   */\n      mstore\n        /* \"#utility.yul\":5122:5126   */\n      0x20\n        /* \"#utility.yul\":5115:5120   */\n      dup2\n        /* \"#utility.yul\":5111:5127   */\n      add\n        /* \"#utility.yul\":5160:5163   */\n      dup5\n        /* \"#utility.yul\":5151:5157   */\n      dup5\n        /* \"#utility.yul\":5146:5149   */\n      dup5\n        /* \"#utility.yul\":5142:5158   */\n      add\n        /* \"#utility.yul\":5139:5164   */\n      gt\n        /* \"#utility.yul\":5136:5248   */\n      iszero\n      tag_203\n      jumpi\n        /* \"#utility.yul\":5167:5246   */\n      tag_204\n      tag_108\n      jump\t// in\n    tag_204:\n        /* \"#utility.yul\":5136:5248   */\n    tag_203:\n        /* \"#utility.yul\":5257:5311   */\n      tag_205\n        /* \"#utility.yul\":5304:5310   */\n      dup5\n        /* \"#utility.yul\":5299:5302   */\n      dup3\n        /* \"#utility.yul\":5294:5297   */\n      dup6\n        /* \"#utility.yul\":5257:5311   */\n      tag_113\n      jump\t// in\n    tag_205:\n        /* \"#utility.yul\":4976:5317   */\n      pop\n        /* \"#utility.yul\":4892:5317   */\n      swap4\n      swap3\n      pop\n      pop\n      pop\n      jump\t// out\n        /* \"#utility.yul\":5337:5677   */\n    tag_115:\n        /* \"#utility.yul\":5393:5398   */\n      0x00\n        /* \"#utility.yul\":5442:5445   */\n      dup3\n        /* \"#utility.yul\":5435:5439   */\n      0x1f\n        /* \"#utility.yul\":5427:5433   */\n      dup4\n        /* \"#utility.yul\":5423:5440   */\n      add\n        /* \"#utility.yul\":5419:5446   */\n      slt\n        /* \"#utility.yul\":5409:5531   */\n      tag_207\n      jumpi\n        /* \"#utility.yul\":5450:5529   */\n      tag_208\n      tag_107\n      jump\t// in\n    tag_208:\n        /* \"#utility.yul\":5409:5531   */\n    tag_207:\n        /* \"#utility.yul\":5567:5573   */\n      dup2\n        /* \"#utility.yul\":5554:5574   */\n      calldataload\n        /* \"#utility.yul\":5592:5671   */\n      tag_209\n        /* \"#utility.yul\":5667:5670   */\n      dup5\n        /* \"#utility.yul\":5659:5665   */\n      dup3\n        /* \"#utility.yul\":5652:5656   */\n      0x20\n        /* \"#utility.yul\":5644:5650   */\n      dup7\n        /* \"#utility.yul\":5640:5657   */\n      add\n        /* \"#utility.yul\":5592:5671   */\n      tag_114\n      jump\t// in\n    tag_209:\n        /* \"#utility.yul\":5583:5671   */\n      swap2\n      pop\n        /* \"#utility.yul\":5399:5677   */\n      pop\n        /* \"#utility.yul\":5337:5677   */\n      swap3\n      swap2\n      pop\n      pop\n      jump\t// out\n        /* \"#utility.yul\":5683:6192   */\n    tag_24:\n        /* \"#utility.yul\":5752:5758   */\n      0x00\n        /* \"#utility.yul\":5801:5803   */\n      0x20\n        /* \"#utility.yul\":5789:5798   */\n      dup3\n        /* \"#utility.yul\":5780:5787   */\n      dup5\n        /* \"#utility.yul\":5776:5799   */\n      sub\n        /* \"#utility.yul\":5772:5804   */\n      slt\n        /* \"#utility.yul\":5769:5888   */\n      iszero\n      tag_211\n      jumpi\n        /* \"#utility.yul\":5807:5886   */\n      tag_212\n      tag_91\n      jump\t// in\n    tag_212:\n        /* \"#utility.yul\":5769:5888   */\n    tag_211:\n        /* \"#utility.yul\":5955:5956   */\n      0x00\n        /* \"#utility.yul\":5944:5953   */\n      dup3\n        /* \"#utility.yul\":5940:5957   */\n      add\n        /* \"#utility.yul\":5927:5958   */\n      calldataload\n        /* \"#utility.yul\":5985:6003   */\n      0xffffffffffffffff\n        /* \"#utility.yul\":5977:5983   */\n      dup2\n        /* \"#utility.yul\":5974:6004   */\n      gt\n        /* \"#utility.yul\":5971:6088   */\n      iszero\n      tag_213\n      jumpi\n        /* \"#utility.yul\":6007:6086   */\n      tag_214\n      tag_92\n      jump\t// in\n    tag_214:\n        /* \"#utility.yul\":5971:6088   */\n    tag_213:\n        /* \"#utility.yul\":6112:6175   */\n      tag_215\n        /* \"#utility.yul\":6167:6174   */\n      dup5\n        /* \"#utility.yul\":6158:6164   */\n      dup3\n        /* \"#utility.yul\":6147:6156   */\n      dup6\n        /* \"#utility.yul\":6143:6165   */\n      add\n        /* \"#utility.yul\":6112:6175   */\n      tag_115\n      jump\t// in\n    tag_215:\n        /* \"#utility.yul\":6102:6175   */\n      swap2\n      pop\n        /* \"#utility.yul\":5898:6185   */\n      pop\n        /* \"#utility.yul\":5683:6192   */\n      swap3\n      swap2\n      pop\n      pop\n      jump\t// out\n        /* \"#utility.yul\":6198:6420   */\n    tag_33:\n        /* \"#utility.yul\":6291:6295   */\n      0x00\n        /* \"#utility.yul\":6329:6331   */\n      0x20\n        /* \"#utility.yul\":6318:6327   */\n      dup3\n        /* \"#utility.yul\":6314:6332   */\n      add\n        /* \"#utility.yul\":6306:6332   */\n      swap1\n      pop\n        /* \"#utility.yul\":6342:6413   */\n      tag_217\n        /* \"#utility.yul\":6410:6411   */\n      0x00\n        /* \"#utility.yul\":6399:6408   */\n      dup4\n        /* \"#utility.yul\":6395:6412   */\n      add\n        /* \"#utility.yul\":6386:6392   */\n      dup5\n        /* \"#utility.yul\":6342:6413   */\n      tag_98\n      jump\t// in\n    tag_217:\n        /* \"#utility.yul\":6198:6420   */\n      swap3\n      swap2\n      pop\n      pop\n      jump\t// out\n        /* \"#utility.yul\":6426:6648   */\n    tag_40:\n        /* \"#utility.yul\":6519:6523   */\n      0x00\n        /* \"#utility.yul\":6557:6559   */\n      0x20\n        /* \"#utility.yul\":6546:6555   */\n      dup3\n        /* \"#utility.yul\":6542:6560   */\n      add\n        /* \"#utility.yul\":6534:6560   */\n      swap1\n      pop\n        /* \"#utility.yul\":6570:6641   */\n      tag_219\n        /* \"#utility.yul\":6638:6639   */\n      0x00\n        /* \"#utility.yul\":6627:6636   */\n      dup4\n        /* \"#utility.yul\":6623:6640   */\n      add\n        /* \"#utility.yul\":6614:6620   */\n      dup5\n        /* \"#utility.yul\":6570:6641   */\n      tag_104\n      jump\t// in\n    tag_219:\n        /* \"#utility.yul\":6426:6648   */\n      swap3\n      swap2\n      pop\n      pop\n      jump\t// out\n        /* \"#utility.yul\":6654:6744   */\n    tag_116:\n        /* \"#utility.yul\":6688:6695   */\n      0x00\n        /* \"#utility.yul\":6731:6736   */\n      dup2\n        /* \"#utility.yul\":6724:6737   */\n      iszero\n        /* \"#utility.yul\":6717:6738   */\n      iszero\n        /* \"#utility.yul\":6706:6738   */\n      swap1\n      pop\n        /* \"#utility.yul\":6654:6744   */\n      swap2\n      swap1\n      pop\n      jump\t// out\n        /* \"#utility.yul\":6750:6859   */\n    tag_117:\n        /* \"#utility.yul\":6831:6852   */\n      tag_222\n        /* \"#utility.yul\":6846:6851   */\n      dup2\n        /* \"#utility.yul\":6831:6852   */\n      tag_116\n      jump\t// in\n    tag_222:\n        /* \"#utility.yul\":6826:6829   */\n      dup3\n        /* \"#utility.yul\":6819:6853   */\n      mstore\n        /* \"#utility.yul\":6750:6859   */\n      pop\n      pop\n      jump\t// out\n        /* \"#utility.yul\":6865:7075   */\n    tag_45:\n        /* \"#utility.yul\":6952:6956   */\n      0x00\n        /* \"#utility.yul\":6990:6992   */\n      0x20\n        /* \"#utility.yul\":6979:6988   */\n      dup3\n        /* \"#utility.yul\":6975:6993   */\n      add\n        /* \"#utility.yul\":6967:6993   */\n      swap1\n      pop\n        /* \"#utility.yul\":7003:7068   */\n      tag_224\n        /* \"#utility.yul\":7065:7066   */\n      0x00\n        /* \"#utility.yul\":7054:7063   */\n      dup4\n        /* \"#utility.yul\":7050:7067   */\n      add\n        /* \"#utility.yul\":7041:7047   */\n      dup5\n        /* \"#utility.yul\":7003:7068   */\n      tag_117\n      jump\t// in\n    tag_224:\n        /* \"#utility.yul\":6865:7075   */\n      swap3\n      swap2\n      pop\n      pop\n      jump\t// out\n        /* \"#utility.yul\":7081:7261   */\n    tag_118:\n        /* \"#utility.yul\":7129:7206   */\n      0x4e487b7100000000000000000000000000000000000000000000000000000000\n        /* \"#utility.yul\":7126:7127   */\n      0x00\n        /* \"#utility.yul\":7119:7207   */\n      mstore\n        /* \"#utility.yul\":7226:7230   */\n      0x22\n        /* \"#utility.yul\":7223:7224   */\n      0x04\n        /* \"#utility.yul\":7216:7231   */\n      mstore\n        /* \"#utility.yul\":7250:7254   */\n      0x24\n        /* \"#utility.yul\":7247:7248   */\n      0x00\n        /* \"#utility.yul\":7240:7255   */\n      revert\n        /* \"#utility.yul\":7267:7587   */\n    tag_49:\n        /* \"#utility.yul\":7311:7317   */\n      0x00\n        /* \"#utility.yul\":7348:7349   */\n      0x02\n        /* \"#utility.yul\":7342:7346   */\n      dup3\n        /* \"#utility.yul\":7338:7350   */\n      div\n        /* \"#utility.yul\":7328:7350   */\n      swap1\n      pop\n        /* \"#utility.yul\":7395:7396   */\n      0x01\n        /* \"#utility.yul\":7389:7393   */\n      dup3\n        /* \"#utility.yul\":7385:7397   */\n      and\n        /* \"#utility.yul\":7416:7434   */\n      dup1\n        /* \"#utility.yul\":7406:7487   */\n      tag_227\n      jumpi\n        /* \"#utility.yul\":7472:7476   */\n      0x7f\n        /* \"#utility.yul\":7464:7470   */\n      dup3\n        /* \"#utility.yul\":7460:7477   */\n      and\n        /* \"#utility.yul\":7450:7477   */\n      swap2\n      pop\n        /* \"#utility.yul\":7406:7487   */\n    tag_227:\n        /* \"#utility.yul\":7534:7536   */\n      0x20\n        /* \"#utility.yul\":7526:7532   */\n      dup3\n        /* \"#utility.yul\":7523:7537   */\n      lt\n        /* \"#utility.yul\":7503:7521   */\n      dup2\n        /* \"#utility.yul\":7500:7538   */\n      sub\n        /* \"#utility.yul\":7497:7581   */\n      tag_228\n      jumpi\n        /* \"#utility.yul\":7553:7571   */\n      tag_229\n      tag_118\n      jump\t// in\n    tag_229:\n        /* \"#utility.yul\":7497:7581   */\n    tag_228:\n        /* \"#utility.yul\":7318:7587   */\n      pop\n        /* \"#utility.yul\":7267:7587   */\n      swap2\n      swap1\n      pop\n      jump\t// out\n        /* \"#utility.yul\":7593:7761   */\n    tag_119:\n        /* \"#utility.yul\":7733:7753   */\n      0x4f6e6c79206f776e657220616c6c6f7765640000000000000000000000000000\n        /* \"#utility.yul\":7729:7730   */\n      0x00\n        /* \"#utility.yul\":7721:7727   */\n      dup3\n        /* \"#utility.yul\":7717:7731   */\n      add\n        /* \"#utility.yul\":7710:7754   */\n      mstore\n        /* \"#utility.yul\":7593:7761   */\n      pop\n      jump\t// out\n        /* \"#utility.yul\":7767:8133   */\n    tag_120:\n        /* \"#utility.yul\":7909:7912   */\n      0x00\n        /* \"#utility.yul\":7930:7997   */\n      tag_232\n        /* \"#utility.yul\":7994:7996   */\n      0x12\n        /* \"#utility.yul\":7989:7992   */\n      dup4\n        /* \"#utility.yul\":7930:7997   */\n      tag_100\n      jump\t// in\n    tag_232:\n        /* \"#utility.yul\":7923:7997   */\n      swap2\n      pop\n        /* \"#utility.yul\":8006:8099   */\n      tag_233\n        /* \"#utility.yul\":8095:8098   */\n      dup3\n        /* \"#utility.yul\":8006:8099   */\n      tag_119\n      jump\t// in\n    tag_233:\n        /* \"#utility.yul\":8124:8126   */\n      0x20\n        /* \"#utility.yul\":8119:8122   */\n      dup3\n        /* \"#utility.yul\":8115:8127   */\n      add\n        /* \"#utility.yul\":8108:8127   */\n      swap1\n      pop\n        /* \"#utility.yul\":7767:8133   */\n      swap2\n      swap1\n      pop\n      jump\t// out\n        /* \"#utility.yul\":8139:8558   */\n    tag_57:\n        /* \"#utility.yul\":8305:8309   */\n      0x00\n        /* \"#utility.yul\":8343:8345   */\n      0x20\n        /* \"#utility.yul\":8332:8341   */\n      dup3\n        /* \"#utility.yul\":8328:8346   */\n      add\n        /* \"#utility.yul\":8320:8346   */\n      swap1\n      pop\n        /* \"#utility.yul\":8392:8401   */\n      dup2\n        /* \"#utility.yul\":8386:8390   */\n      dup2\n        /* \"#utility.yul\":8382:8402   */\n      sub\n        /* \"#utility.yul\":8378:8379   */\n      0x00\n        /* \"#utility.yul\":8367:8376   */\n      dup4\n        /* \"#utility.yul\":8363:8380   */\n      add\n        /* \"#utility.yul\":8356:8403   */\n      mstore\n        /* \"#utility.yul\":8420:8551   */\n      tag_235\n        /* \"#utility.yul\":8546:8550   */\n      dup2\n        /* \"#utility.yul\":8420:8551   */\n      tag_120\n      jump\t// in\n    tag_235:\n        /* \"#utility.yul\":8412:8551   */\n      swap1\n      pop\n        /* \"#utility.yul\":8139:8558   */\n      swap2\n      swap1\n      pop\n      jump\t// out\n        /* \"#utility.yul\":8564:8733   */\n    tag_121:\n        /* \"#utility.yul\":8704:8725   */\n      0x596f7520617265206e6f7420616c6c6f77656400000000000000000000000000\n        /* \"#utility.yul\":8700:8701   */\n      0x00\n        /* \"#utility.yul\":8692:8698   */\n      dup3\n        /* \"#utility.yul\":8688:8702   */\n      add\n        /* \"#utility.yul\":8681:8726   */\n      mstore\n        /* \"#utility.yul\":8564:8733   */\n      pop\n      jump\t// out\n        /* \"#utility.yul\":8739:9105   */\n    tag_122:\n        /* \"#utility.yul\":8881:8884   */\n      0x00\n        /* \"#utility.yul\":8902:8969   */\n      tag_238\n        /* \"#utility.yul\":8966:8968   */\n      0x13\n        /* \"#utility.yul\":8961:8964   */\n      dup4\n        /* \"#utility.yul\":8902:8969   */\n      tag_100\n      jump\t// in\n    tag_238:\n        /* \"#utility.yul\":8895:8969   */\n      swap2\n      pop\n        /* \"#utility.yul\":8978:9071   */\n      tag_239\n        /* \"#utility.yul\":9067:9070   */\n      dup3\n        /* \"#utility.yul\":8978:9071   */\n      tag_121\n      jump\t// in\n    tag_239:\n        /* \"#utility.yul\":9096:9098   */\n      0x20\n        /* \"#utility.yul\":9091:9094   */\n      dup3\n        /* \"#utility.yul\":9087:9099   */\n      add\n        /* \"#utility.yul\":9080:9099   */\n      swap1\n      pop\n        /* \"#utility.yul\":8739:9105   */\n      swap2\n      swap1\n      pop\n      jump\t// out\n        /* \"#utility.yul\":9111:9530   */\n    tag_62:\n        /* \"#utility.yul\":9277:9281   */\n      0x00\n        /* \"#utility.yul\":9315:9317   */\n      0x20\n        /* \"#utility.yul\":9304:9313   */\n      dup3\n        /* \"#utility.yul\":9300:9318   */\n      add\n        /* \"#utility.yul\":9292:9318   */\n      swap1\n      pop\n        /* \"#utility.yul\":9364:9373   */\n      dup2\n        /* \"#utility.yul\":9358:9362   */\n      dup2\n        /* \"#utility.yul\":9354:9374   */\n      sub\n        /* \"#utility.yul\":9350:9351   */\n      0x00\n        /* \"#utility.yul\":9339:9348   */\n      dup4\n        /* \"#utility.yul\":9335:9352   */\n      add\n        /* \"#utility.yul\":9328:9375   */\n      mstore\n        /* \"#utility.yul\":9392:9523   */\n      tag_241\n        /* \"#utility.yul\":9518:9522   */\n      dup2\n        /* \"#utility.yul\":9392:9523   */\n      tag_122\n      jump\t// in\n    tag_241:\n        /* \"#utility.yul\":9384:9523   */\n      swap1\n      pop\n        /* \"#utility.yul\":9111:9530   */\n      swap2\n      swap1\n      pop\n      jump\t// out\n        /* \"#utility.yul\":9536:9708   */\n    tag_123:\n        /* \"#utility.yul\":9676:9700   */\n      0x4d6573736167652063616e277420626520656d70747900000000000000000000\n        /* \"#utility.yul\":9672:9673   */\n      0x00\n        /* \"#utility.yul\":9664:9670   */\n      dup3\n        /* \"#utility.yul\":9660:9674   */\n      add\n        /* \"#utility.yul\":9653:9701   */\n      mstore\n        /* \"#utility.yul\":9536:9708   */\n      pop\n      jump\t// out\n        /* \"#utility.yul\":9714:10080   */\n    tag_124:\n        /* \"#utility.yul\":9856:9859   */\n      0x00\n        /* \"#utility.yul\":9877:9944   */\n      tag_244\n        /* \"#utility.yul\":9941:9943   */\n      0x16\n        /* \"#utility.yul\":9936:9939   */\n      dup4\n        /* \"#utility.yul\":9877:9944   */\n      tag_100\n      jump\t// in\n    tag_244:\n        /* \"#utility.yul\":9870:9944   */\n      swap2\n      pop\n        /* \"#utility.yul\":9953:10046   */\n      tag_245\n        /* \"#utility.yul\":10042:10045   */\n      dup3\n        /* \"#utility.yul\":9953:10046   */\n      tag_123\n      jump\t// in\n    tag_245:\n        /* \"#utility.yul\":10071:10073   */\n      0x20\n        /* \"#utility.yul\":10066:10069   */\n      dup3\n        /* \"#utility.yul\":10062:10074   */\n      add\n        /* \"#utility.yul\":10055:10074   */\n      swap1\n      pop\n        /* \"#utility.yul\":9714:10080   */\n      swap2\n      swap1\n      pop\n      jump\t// out\n        /* \"#utility.yul\":10086:10505   */\n    tag_66:\n        /* \"#utility.yul\":10252:10256   */\n      0x00\n        /* \"#utility.yul\":10290:10292   */\n      0x20\n        /* \"#utility.yul\":10279:10288   */\n      dup3\n        /* \"#utility.yul\":10275:10293   */\n      add\n        /* \"#utility.yul\":10267:10293   */\n      swap1\n      pop\n        /* \"#utility.yul\":10339:10348   */\n      dup2\n        /* \"#utility.yul\":10333:10337   */\n      dup2\n        /* \"#utility.yul\":10329:10349   */\n      sub\n        /* \"#utility.yul\":10325:10326   */\n      0x00\n        /* \"#utility.yul\":10314:10323   */\n      dup4\n        /* \"#utility.yul\":10310:10327   */\n      add\n        /* \"#utility.yul\":10303:10350   */\n      mstore\n        /* \"#utility.yul\":10367:10498   */\n      tag_247\n        /* \"#utility.yul\":10493:10497   */\n      dup2\n        /* \"#utility.yul\":10367:10498   */\n      tag_124\n      jump\t// in\n    tag_247:\n        /* \"#utility.yul\":10359:10498   */\n      swap1\n      pop\n        /* \"#utility.yul\":10086:10505   */\n      swap2\n      swap1\n      pop\n      jump\t// out\n        /* \"#utility.yul\":10511:10652   */\n    tag_125:\n        /* \"#utility.yul\":10560:10564   */\n      0x00\n        /* \"#utility.yul\":10583:10586   */\n      dup2\n        /* \"#utility.yul\":10575:10586   */\n      swap1\n      pop\n        /* \"#utility.yul\":10606:10609   */\n      dup2\n        /* \"#utility.yul\":10603:10604   */\n      0x00\n        /* \"#utility.yul\":10596:10610   */\n      mstore\n        /* \"#utility.yul\":10640:10644   */\n      0x20\n        /* \"#utility.yul\":10637:10638   */\n      0x00\n        /* \"#utility.yul\":10627:10645   */\n      keccak256\n        /* \"#utility.yul\":10619:10645   */\n      swap1\n      pop\n        /* \"#utility.yul\":10511:10652   */\n      swap2\n      swap1\n      pop\n      jump\t// out\n        /* \"#utility.yul\":10658:10751   */\n    tag_126:\n        /* \"#utility.yul\":10695:10701   */\n      0x00\n        /* \"#utility.yul\":10742:10744   */\n      0x20\n        /* \"#utility.yul\":10737:10739   */\n      0x1f\n        /* \"#utility.yul\":10730:10735   */\n      dup4\n        /* \"#utility.yul\":10726:10740   */\n      add\n        /* \"#utility.yul\":10722:10745   */\n      div\n        /* \"#utility.yul\":10712:10745   */\n      swap1\n      pop\n        /* \"#utility.yul\":10658:10751   */\n      swap2\n      swap1\n      pop\n      jump\t// out\n        /* \"#utility.yul\":10757:10864   */\n    tag_127:\n        /* \"#utility.yul\":10801:10809   */\n      0x00\n        /* \"#utility.yul\":10851:10856   */\n      dup3\n        /* \"#utility.yul\":10845:10849   */\n      dup3\n        /* \"#utility.yul\":10841:10857   */\n      shl\n        /* \"#utility.yul\":10820:10857   */\n      swap1\n      pop\n        /* \"#utility.yul\":10757:10864   */\n      swap3\n      swap2\n      pop\n      pop\n      jump\t// out\n        /* \"#utility.yul\":10870:11263   */\n    tag_128:\n        /* \"#utility.yul\":10939:10945   */\n      0x00\n        /* \"#utility.yul\":10989:10990   */\n      0x08\n        /* \"#utility.yul\":10977:10987   */\n      dup4\n        /* \"#utility.yul\":10973:10991   */\n      mul\n        /* \"#utility.yul\":11012:11109   */\n      tag_252\n        /* \"#utility.yul\":11042:11108   */\n      0xffffffffffffffffffffffffffffffffffffffffffffffffffffffffffffffff\n        /* \"#utility.yul\":11031:11040   */\n      dup3\n        /* \"#utility.yul\":11012:11109   */\n      tag_127\n      jump\t// in\n    tag_252:\n        /* \"#utility.yul\":11130:11169   */\n      tag_253\n        /* \"#utility.yul\":11160:11168   */\n      dup7\n        /* \"#utility.yul\":11149:11158   */\n      dup4\n        /* \"#utility.yul\":11130:11169   */\n      tag_127\n      jump\t// in\n    tag_253:\n        /* \"#utility.yul\":11118:11169   */\n      swap6\n      pop\n        /* \"#utility.yul\":11202:11206   */\n      dup1\n        /* \"#utility.yul\":11198:11207   */\n      not\n        /* \"#utility.yul\":11191:11196   */\n      dup5\n        /* \"#utility.yul\":11187:11208   */\n      and\n        /* \"#utility.yul\":11178:11208   */\n      swap4\n      pop\n        /* \"#utility.yul\":11251:11255   */\n      dup1\n        /* \"#utility.yul\":11241:11249   */\n      dup7\n        /* \"#utility.yul\":11237:11256   */\n      and\n        /* \"#utility.yul\":11230:11235   */\n      dup5\n        /* \"#utility.yul\":11227:11257   */\n      or\n        /* \"#utility.yul\":11217:11257   */\n      swap3\n      pop\n        /* \"#utility.yul\":10946:11263   */\n      pop\n      pop\n        /* \"#utility.yul\":10870:11263   */\n      swap4\n      swap3\n      pop\n      pop\n      pop\n      jump\t// out\n        /* \"#utility.yul\":11269:11329   */\n    tag_129:\n        /* \"#utility.yul\":11297:11300   */\n      0x00\n        /* \"#utility.yul\":11318:11323   */\n      dup2\n        /* \"#utility.yul\":11311:11323   */\n      swap1\n      pop\n        /* \"#utility.yul\":11269:11329   */\n      swap2\n      swap1\n      pop\n      jump\t// out\n        /* \"#utility.yul\":11335:11477   */\n    tag_130:\n        /* \"#utility.yul\":11385:11394   */\n      0x00\n        /* \"#utility.yul\":11418:11471   */\n      tag_256\n        /* \"#utility.yul\":11436:11470   */\n      tag_257\n        /* \"#utility.yul\":11445:11469   */\n      tag_258\n        /* \"#utility.yul\":11463:11468   */\n      dup5\n        /* \"#utility.yul\":11445:11469   */\n      tag_93\n      jump\t// in\n    tag_258:\n        /* \"#utility.yul\":11436:11470   */\n      tag_129\n      jump\t// in\n    tag_257:\n        /* \"#utility.yul\":11418:11471   */\n      tag_93\n      jump\t// in\n    tag_256:\n        /* \"#utility.yul\":11405:11471   */\n      swap1\n      pop\n        /* \"#utility.yul\":11335:11477   */\n      swap2\n      swap1\n      pop\n      jump\t// out\n        /* \"#utility.yul\":11483:11558   */\n    tag_131:\n        /* \"#utility.yul\":11526:11529   */\n      0x00\n        /* \"#utility.yul\":11547:11552   */\n      dup2\n        /* \"#utility.yul\":11540:11552   */\n      swap1\n      pop\n        /* \"#utility.yul\":11483:11558   */\n      swap2\n      swap1\n      pop\n      jump\t// out\n        /* \"#utility.yul\":11564:11833   */\n    tag_132:\n        /* \"#utility.yul\":11674:11713   */\n      tag_261\n        /* \"#utility.yul\":11705:11712   */\n      dup4\n        /* \"#utility.yul\":11674:11713   */\n      tag_130\n      jump\t// in\n    tag_261:\n        /* \"#utility.yul\":11735:11826   */\n      tag_262\n        /* \"#utility.yul\":11784:11825   */\n      tag_263\n        /* \"#utility.yul\":11808:11824   */\n      dup3\n        /* \"#utility.yul\":11784:11825   */\n      tag_131\n      jump\t// in\n    tag_263:\n        /* \"#utility.yul\":11776:11782   */\n      dup5\n        /* \"#utility.yul\":11769:11773   */\n      dup5\n        /* \"#utility.yul\":11763:11774   */\n      sload\n        /* \"#utility.yul\":11735:11826   */\n      tag_128\n      jump\t// in\n    tag_262:\n        /* \"#utility.yul\":11729:11733   */\n      dup3\n        /* \"#utility.yul\":11722:11827   */\n      sstore\n        /* \"#utility.yul\":11640:11833   */\n      pop\n        /* \"#utility.yul\":11564:11833   */\n      pop\n      pop\n      pop\n      jump\t// out\n        /* \"#utility.yul\":11839:11912   */\n    tag_133:\n        /* \"#utility.yul\":11884:11887   */\n      0x00\n        /* \"#utility.yul\":11905:11906   */\n      0x00\n        /* \"#utility.yul\":11898:11906   */\n      swap1\n      pop\n        /* \"#utility.yul\":11839:11912   */\n      swap1\n      jump\t// out\n        /* \"#utility.yul\":11918:12107   */\n    tag_134:\n        /* \"#utility.yul\":11995:12027   */\n      tag_266\n      tag_133\n      jump\t// in\n    tag_266:\n        /* \"#utility.yul\":12036:12101   */\n      tag_267\n        /* \"#utility.yul\":12094:12100   */\n      dup2\n        /* \"#utility.yul\":12086:12092   */\n      dup5\n        /* \"#utility.yul\":12080:12084   */\n      dup5\n        /* \"#utility.yul\":12036:12101   */\n      tag_132\n      jump\t// in\n    tag_267:\n        /* \"#utility.yul\":11971:12107   */\n      pop\n        /* \"#utility.yul\":11918:12107   */\n      pop\n      pop\n      jump\t// out\n        /* \"#utility.yul\":12113:12299   */\n    tag_135:\n        /* \"#utility.yul\":12173:12293   */\n    tag_269:\n        /* \"#utility.yul\":12190:12193   */\n      dup2\n        /* \"#utility.yul\":12183:12188   */\n      dup2\n        /* \"#utility.yul\":12180:12194   */\n      lt\n        /* \"#utility.yul\":12173:12293   */\n      iszero\n      tag_271\n      jumpi\n        /* \"#utility.yul\":12244:12283   */\n      tag_272\n        /* \"#utility.yul\":12281:12282   */\n      0x00\n        /* \"#utility.yul\":12274:12279   */\n      dup3\n        /* \"#utility.yul\":12244:12283   */\n      tag_134\n      jump\t// in\n    tag_272:\n        /* \"#utility.yul\":12217:12218   */\n      0x01\n        /* \"#utility.yul\":12210:12215   */\n      dup2\n        /* \"#utility.yul\":12206:12219   */\n      add\n        /* \"#utility.yul\":12197:12219   */\n      swap1\n      pop\n        /* \"#utility.yul\":12173:12293   */\n      jump(tag_269)\n    tag_271:\n        /* \"#utility.yul\":12113:12299   */\n      pop\n      pop\n      jump\t// out\n        /* \"#utility.yul\":12305:12848   */\n    tag_136:\n        /* \"#utility.yul\":12406:12408   */\n      0x1f\n        /* \"#utility.yul\":12401:12404   */\n      dup3\n        /* \"#utility.yul\":12398:12409   */\n      gt\n        /* \"#utility.yul\":12395:12841   */\n      iszero\n      tag_274\n      jumpi\n        /* \"#utility.yul\":12440:12478   */\n      tag_275\n        /* \"#utility.yul\":12472:12477   */\n      dup2\n        /* \"#utility.yul\":12440:12478   */\n      tag_125\n      jump\t// in\n    tag_275:\n        /* \"#utility.yul\":12524:12553   */\n      tag_276\n        /* \"#utility.yul\":12542:12552   */\n      dup5\n        /* \"#utility.yul\":12524:12553   */\n      tag_126\n      jump\t// in\n    tag_276:\n        /* \"#utility.yul\":12514:12522   */\n      dup2\n        /* \"#utility.yul\":12510:12554   */\n      add\n        /* \"#utility.yul\":12707:12709   */\n      0x20\n        /* \"#utility.yul\":12695:12705   */\n      dup6\n        /* \"#utility.yul\":12692:12710   */\n      lt\n        /* \"#utility.yul\":12689:12738   */\n      iszero\n      tag_277\n      jumpi\n        /* \"#utility.yul\":12728:12736   */\n      dup2\n        /* \"#utility.yul\":12713:12736   */\n      swap1\n      pop\n        /* \"#utility.yul\":12689:12738   */\n    tag_277:\n        /* \"#utility.yul\":12751:12831   */\n      tag_278\n        /* \"#utility.yul\":12807:12829   */\n      tag_279\n        /* \"#utility.yul\":12825:12828   */\n      dup6\n        /* \"#utility.yul\":12807:12829   */\n      tag_126\n      jump\t// in\n    tag_279:\n        /* \"#utility.yul\":12797:12805   */\n      dup4\n        /* \"#utility.yul\":12793:12830   */\n      add\n        /* \"#utility.yul\":12780:12791   */\n      dup3\n        /* \"#utility.yul\":12751:12831   */\n      tag_135\n      jump\t// in\n    tag_278:\n        /* \"#utility.yul\":12410:12841   */\n      pop\n      pop\n        /* \"#utility.yul\":12395:12841   */\n    tag_274:\n        /* \"#utility.yul\":12305:12848   */\n      pop\n      pop\n      pop\n      jump\t// out\n        /* \"#utility.yul\":12854:12971   */\n    tag_137:\n        /* \"#utility.yul\":12908:12916   */\n      0x00\n        /* \"#utility.yul\":12958:12963   */\n      dup3\n        /* \"#utility.yul\":12952:12956   */\n      dup3\n        /* \"#utility.yul\":12948:12964   */\n      shr\n        /* \"#utility.yul\":12927:12964   */\n      swap1\n      pop\n        /* \"#utility.yul\":12854:12971   */\n      swap3\n      swap2\n      pop\n      pop\n      jump\t// out\n        /* \"#utility.yul\":12977:13146   */\n    tag_138:\n        /* \"#utility.yul\":13021:13027   */\n      0x00\n        /* \"#utility.yul\":13054:13105   */\n      tag_282\n        /* \"#utility.yul\":13102:13103   */\n      0x00\n        /* \"#utility.yul\":13098:13104   */\n      not\n        /* \"#utility.yul\":13090:13095   */\n      dup5\n        /* \"#utility.yul\":13087:13088   */\n      0x08\n        /* \"#utility.yul\":13083:13096   */\n      mul\n        /* \"#utility.yul\":13054:13105   */\n      tag_137\n      jump\t// in\n    tag_282:\n        /* \"#utility.yul\":13050:13106   */\n      not\n        /* \"#utility.yul\":13135:13139   */\n      dup1\n        /* \"#utility.yul\":13129:13133   */\n      dup4\n        /* \"#utility.yul\":13125:13140   */\n      and\n        /* \"#utility.yul\":13115:13140   */\n      swap2\n      pop\n        /* \"#utility.yul\":13028:13146   */\n      pop\n        /* \"#utility.yul\":12977:13146   */\n      swap3\n      swap2\n      pop\n      pop\n      jump\t// out\n        /* \"#utility.yul\":13151:13446   */\n    tag_139:\n        /* \"#utility.yul\":13227:13231   */\n      0x00\n        /* \"#utility.yul\":13373:13402   */\n      tag_284\n        /* \"#utility.yul\":13398:13401   */\n      dup4\n        /* \"#utility.yul\":13392:13396   */\n      dup4\n        /* \"#utility.yul\":13373:13402   */\n      tag_138\n      jump\t// in\n    tag_284:\n        /* \"#utility.yul\":13365:13402   */\n      swap2\n      pop\n        /* \"#utility.yul\":13435:13438   */\n      dup3\n        /* \"#utility.yul\":13432:13433   */\n      0x02\n        /* \"#utility.yul\":13428:13439   */\n      mul\n        /* \"#utility.yul\":13422:13426   */\n      dup3\n        /* \"#utility.yul\":13419:13440   */\n      or\n        /* \"#utility.yul\":13411:13440   */\n      swap1\n      pop\n        /* \"#utility.yul\":13151:13446   */\n      swap3\n      swap2\n      pop\n      pop\n      jump\t// out\n        /* \"#utility.yul\":13451:14846   */\n    tag_69:\n        /* \"#utility.yul\":13568:13605   */\n      tag_286\n        /* \"#utility.yul\":13601:13604   */\n      dup3\n        /* \"#utility.yul\":13568:13605   */\n      tag_99\n      jump\t// in\n    tag_286:\n        /* \"#utility.yul\":13670:13688   */\n      0xffffffffffffffff\n        /* \"#utility.yul\":13662:13668   */\n      dup2\n        /* \"#utility.yul\":13659:13689   */\n      gt\n        /* \"#utility.yul\":13656:13712   */\n      iszero\n      tag_287\n      jumpi\n        /* \"#utility.yul\":13692:13710   */\n      tag_288\n      tag_109\n      jump\t// in\n    tag_288:\n        /* \"#utility.yul\":13656:13712   */\n    tag_287:\n        /* \"#utility.yul\":13736:13774   */\n      tag_289\n        /* \"#utility.yul\":13768:13772   */\n      dup3\n        /* \"#utility.yul\":13762:13773   */\n      sload\n        /* \"#utility.yul\":13736:13774   */\n      tag_49\n      jump\t// in\n    tag_289:\n        /* \"#utility.yul\":13821:13888   */\n      tag_290\n        /* \"#utility.yul\":13881:13887   */\n      dup3\n        /* \"#utility.yul\":13873:13879   */\n      dup3\n        /* \"#utility.yul\":13867:13871   */\n      dup6\n        /* \"#utility.yul\":13821:13888   */\n      tag_136\n      jump\t// in\n    tag_290:\n        /* \"#utility.yul\":13915:13916   */\n      0x00\n        /* \"#utility.yul\":13939:13943   */\n      0x20\n        /* \"#utility.yul\":13926:13943   */\n      swap1\n      pop\n        /* \"#utility.yul\":13971:13973   */\n      0x1f\n        /* \"#utility.yul\":13963:13969   */\n      dup4\n        /* \"#utility.yul\":13960:13974   */\n      gt\n        /* \"#utility.yul\":13988:13989   */\n      0x01\n        /* \"#utility.yul\":13983:14601   */\n      dup2\n      eq\n      tag_292\n      jumpi\n        /* \"#utility.yul\":14645:14646   */\n      0x00\n        /* \"#utility.yul\":14662:14668   */\n      dup5\n        /* \"#utility.yul\":14659:14736   */\n      iszero\n      tag_293\n      jumpi\n        /* \"#utility.yul\":14711:14720   */\n      dup3\n        /* \"#utility.yul\":14706:14709   */\n      dup8\n        /* \"#utility.yul\":14702:14721   */\n      add\n        /* \"#utility.yul\":14696:14722   */\n      mload\n        /* \"#utility.yul\":14687:14722   */\n      swap1\n      pop\n        /* \"#utility.yul\":14659:14736   */\n    tag_293:\n        /* \"#utility.yul\":14762:14829   */\n      tag_294\n        /* \"#utility.yul\":14822:14828   */\n      dup6\n        /* \"#utility.yul\":14815:14820   */\n      dup3\n        /* \"#utility.yul\":14762:14829   */\n      tag_139\n      jump\t// in\n    tag_294:\n        /* \"#utility.yul\":14756:14760   */\n      dup7\n        /* \"#utility.yul\":14749:14830   */\n      sstore\n        /* \"#utility.yul\":14618:14840   */\n      pop\n        /* \"#utility.yul\":13953:14840   */\n      jump(tag_291)\n        /* \"#utility.yul\":13983:14601   */\n    tag_292:\n        /* \"#utility.yul\":14035:14039   */\n      0x1f\n        /* \"#utility.yul\":14031:14040   */\n      not\n        /* \"#utility.yul\":14023:14029   */\n      dup5\n        /* \"#utility.yul\":14019:14041   */\n      and\n        /* \"#utility.yul\":14069:14106   */\n      tag_295\n        /* \"#utility.yul\":14101:14105   */\n      dup7\n        /* \"#utility.yul\":14069:14106   */\n      tag_125\n      jump\t// in\n    tag_295:\n        /* \"#utility.yul\":14128:14129   */\n      0x00\n        /* \"#utility.yul\":14142:14350   */\n    tag_296:\n        /* \"#utility.yul\":14156:14163   */\n      dup3\n        /* \"#utility.yul\":14153:14154   */\n      dup2\n        /* \"#utility.yul\":14150:14164   */\n      lt\n        /* \"#utility.yul\":14142:14350   */\n      iszero\n      tag_298\n      jumpi\n        /* \"#utility.yul\":14235:14244   */\n      dup5\n        /* \"#utility.yul\":14230:14233   */\n      dup10\n        /* \"#utility.yul\":14226:14245   */\n      add\n        /* \"#utility.yul\":14220:14246   */\n      mload\n        /* \"#utility.yul\":14212:14218   */\n      dup3\n        /* \"#utility.yul\":14205:14247   */\n      sstore\n        /* \"#utility.yul\":14286:14287   */\n      0x01\n        /* \"#utility.yul\":14278:14284   */\n      dup3\n        /* \"#utility.yul\":14274:14288   */\n      add\n        /* \"#utility.yul\":14264:14288   */\n      swap2\n      pop\n        /* \"#utility.yul\":14333:14335   */\n      0x20\n        /* \"#utility.yul\":14322:14331   */\n      dup6\n        /* \"#utility.yul\":14318:14336   */\n      add\n        /* \"#utility.yul\":14305:14336   */\n      swap5\n      pop\n        /* \"#utility.yul\":14179:14183   */\n      0x20\n        /* \"#utility.yul\":14176:14177   */\n      dup2\n        /* \"#utility.yul\":14172:14184   */\n      add\n        /* \"#utility.yul\":14167:14184   */\n      swap1\n      pop\n        /* \"#utility.yul\":14142:14350   */\n      jump(tag_296)\n    tag_298:\n        /* \"#utility.yul\":14378:14384   */\n      dup7\n        /* \"#utility.yul\":14369:14376   */\n      dup4\n        /* \"#utility.yul\":14366:14385   */\n      lt\n        /* \"#utility.yul\":14363:14542   */\n      iszero\n      tag_299\n      jumpi\n        /* \"#utility.yul\":14436:14445   */\n      dup5\n        /* \"#utility.yul\":14431:14434   */\n      dup10\n        /* \"#utility.yul\":14427:14446   */\n      add\n        /* \"#utility.yul\":14421:14447   */\n      mload\n        /* \"#utility.yul\":14479:14527   */\n      tag_300\n        /* \"#utility.yul\":14521:14525   */\n      0x1f\n        /* \"#utility.yul\":14513:14519   */\n      dup10\n        /* \"#utility.yul\":14509:14526   */\n      and\n        /* \"#utility.yul\":14498:14507   */\n      dup3\n        /* \"#utility.yul\":14479:14527   */\n      tag_138\n      jump\t// in\n    tag_300:\n        /* \"#utility.yul\":14471:14477   */\n      dup4\n        /* \"#utility.yul\":14464:14528   */\n      sstore\n        /* \"#utility.yul\":14386:14542   */\n      pop\n        /* \"#utility.yul\":14363:14542   */\n    tag_299:\n        /* \"#utility.yul\":14588:14589   */\n      0x01\n        /* \"#utility.yul\":14584:14585   */\n      0x02\n        /* \"#utility.yul\":14576:14582   */\n      dup9\n        /* \"#utility.yul\":14572:14586   */\n      mul\n        /* \"#utility.yul\":14568:14590   */\n      add\n        /* \"#utility.yul\":14562:14566   */\n      dup9\n        /* \"#utility.yul\":14555:14591   */\n      sstore\n        /* \"#utility.yul\":13990:14601   */\n      pop\n      pop\n      pop\n        /* \"#utility.yul\":13953:14840   */\n    tag_291:\n      pop\n        /* \"#utility.yul\":13543:14846   */\n      pop\n      pop\n      pop\n        /* \"#utility.yul\":13451:14846   */\n      pop\n      pop\n      jump\t// out\n        /* \"#utility.yul\":14852:15275   */\n    tag_71:\n        /* \"#utility.yul\":14993:14997   */\n      0x00\n        /* \"#utility.yul\":15031:15033   */\n      0x40\n        /* \"#utility.yul\":15020:15029   */\n      dup3\n        /* \"#utility.yul\":15016:15034   */\n      add\n        /* \"#utility.yul\":15008:15034   */\n      swap1\n      pop\n        /* \"#utility.yul\":15080:15089   */\n      dup2\n        /* \"#utility.yul\":15074:15078   */\n      dup2\n        /* \"#utility.yul\":15070:15090   */\n      sub\n        /* \"#utility.yul\":15066:15067   */\n      0x00\n        /* \"#utility.yul\":15055:15064   */\n      dup4\n        /* \"#utility.yul\":15051:15068   */\n      add\n        /* \"#utility.yul\":15044:15091   */\n      mstore\n        /* \"#utility.yul\":15108:15186   */\n      tag_302\n        /* \"#utility.yul\":15181:15185   */\n      dup2\n        /* \"#utility.yul\":15172:15178   */\n      dup6\n        /* \"#utility.yul\":15108:15186   */\n      tag_103\n      jump\t// in\n    tag_302:\n        /* \"#utility.yul\":15100:15186   */\n      swap1\n      pop\n        /* \"#utility.yul\":15196:15268   */\n      tag_303\n        /* \"#utility.yul\":15264:15266   */\n      0x20\n        /* \"#utility.yul\":15253:15262   */\n      dup4\n        /* \"#utility.yul\":15249:15267   */\n      add\n        /* \"#utility.yul\":15240:15246   */\n      dup5\n        /* \"#utility.yul\":15196:15268   */\n      tag_104\n      jump\t// in\n    tag_303:\n        /* \"#utility.yul\":14852:15275   */\n      swap4\n      swap3\n      pop\n      pop\n      pop\n      jump\t// out\n        /* \"#utility.yul\":15281:15455   */\n    tag_140:\n        /* \"#utility.yul\":15421:15447   */\n      0x506c6561736520456e7465722076616c696420696e6465780000000000000000\n        /* \"#utility.yul\":15417:15418   */\n      0x00\n        /* \"#utility.yul\":15409:15415   */\n      dup3\n        /* \"#utility.yul\":15405:15419   */\n      add\n        /* \"#utility.yul\":15398:15448   */\n      mstore\n        /* \"#utility.yul\":15281:15455   */\n      pop\n      jump\t// out\n        /* \"#utility.yul\":15461:15827   */\n    tag_141:\n        /* \"#utility.yul\":15603:15606   */\n      0x00\n        /* \"#utility.yul\":15624:15691   */\n      tag_306\n        /* \"#utility.yul\":15688:15690   */\n      0x18\n        /* \"#utility.yul\":15683:15686   */\n      dup4\n        /* \"#utility.yul\":15624:15691   */\n      tag_100\n      jump\t// in\n    tag_306:\n        /* \"#utility.yul\":15617:15691   */\n      swap2\n      pop\n        /* \"#utility.yul\":15700:15793   */\n      tag_307\n        /* \"#utility.yul\":15789:15792   */\n      dup3\n        /* \"#utility.yul\":15700:15793   */\n      tag_140\n      jump\t// in\n    tag_307:\n        /* \"#utility.yul\":15818:15820   */\n      0x20\n        /* \"#utility.yul\":15813:15816   */\n      dup3\n        /* \"#utility.yul\":15809:15821   */\n      add\n        /* \"#utility.yul\":15802:15821   */\n      swap1\n      pop\n        /* \"#utility.yul\":15461:15827   */\n      swap2\n      swap1\n      pop\n      jump\t// out\n        /* \"#utility.yul\":15833:16252   */\n    tag_75:\n        /* \"#utility.yul\":15999:16003   */\n      0x00\n        /* \"#utility.yul\":16037:16039   */\n      0x20\n        /* \"#utility.yul\":16026:16035   */\n      dup3\n        /* \"#utility.yul\":16022:16040   */\n      add\n        /* \"#utility.yul\":16014:16040   */\n      swap1\n      pop\n        /* \"#utility.yul\":16086:16095   */\n      dup2\n        /* \"#utility.yul\":16080:16084   */\n      dup2\n        /* \"#utility.yul\":16076:16096   */\n      sub\n        /* \"#utility.yul\":16072:16073   */\n      0x00\n        /* \"#utility.yul\":16061:16070   */\n      dup4\n        /* \"#utility.yul\":16057:16074   */\n      add\n        /* \"#utility.yul\":16050:16097   */\n      mstore\n        /* \"#utility.yul\":16114:16245   */\n      tag_309\n        /* \"#utility.yul\":16240:16244   */\n      dup2\n        /* \"#utility.yul\":16114:16245   */\n      tag_141\n      jump\t// in\n    tag_309:\n        /* \"#utility.yul\":16106:16245   */\n      swap1\n      pop\n        /* \"#utility.yul\":15833:16252   */\n      swap2\n      swap1\n      pop\n      jump\t// out\n        /* \"#utility.yul\":16258:16438   */\n    tag_78:\n        /* \"#utility.yul\":16306:16383   */\n      0x4e487b7100000000000000000000000000000000000000000000000000000000\n        /* \"#utility.yul\":16303:16304   */\n      0x00\n        /* \"#utility.yul\":16296:16384   */\n      mstore\n        /* \"#utility.yul\":16403:16407   */\n      0x32\n        /* \"#utility.yul\":16400:16401   */\n      0x04\n        /* \"#utility.yul\":16393:16408   */\n      mstore\n        /* \"#utility.yul\":16427:16431   */\n      0x24\n        /* \"#utility.yul\":16424:16425   */\n      0x00\n        /* \"#utility.yul\":16417:16432   */\n      revert\n\n    auxdata: 0xa26469706673582212208df9ff17700ef69e98423c53e8a3f2c52c5f39141bc854a79cf45b53666e590c64736f6c634300081e0033\n}\n",
				"bytecode": {
					"linkReferences": {},
					"object": "6080604052348015600e575f5ffd5b50335f5f6101000a81548173ffffffffffffffffffffffffffffffffffffffff021916908373ffffffffffffffffffffffffffffffffffffffff1602179055506110428061005b5f395ff3fe608060405234801561000f575f5ffd5b5060043610610086575f3560e01c80638da5cb5b116100595780638da5cb5b14610126578063cafd890414610144578063d45bad0d14610160578063f3d1306d1461017e57610086565b80630d80fefd1461008a57806321b384ed146100bc5780636630f88f146100d857806386f79edb146100f4575b5f5ffd5b6100a4600480360381019061009f91906107f3565b6101ae565b6040516100b3939291906108dc565b60405180910390f35b6100d660048036038101906100d19190610942565b610288565b005b6100f260048036038101906100ed9190610a99565b61036d565b005b61010e600480360381019061010991906107f3565b61054b565b60405161011d939291906108dc565b60405180910390f35b61012e61067d565b60405161013b9190610ae0565b60405180910390f35b61015e60048036038101906101599190610942565b6106a1565b005b610168610786565b6040516101759190610af9565b60405180910390f35b61019860048036038101906101939190610942565b610792565b6040516101a59190610b2c565b60405180910390f35b600281815481106101bd575f80fd5b905f5260205f2090600302015f91509050805f015f9054906101000a900473ffffffffffffffffffffffffffffffffffffffff169080600101805461020190610b72565b80601f016020809104026020016040519081016040528092919081815260200182805461022d90610b72565b80156102785780601f1061024f57610100808354040283529160200191610278565b820191905f5260205f20905b81548152906001019060200180831161025b57829003601f168201915b5050505050908060020154905083565b5f5f9054906101000a900473ffffffffffffffffffffffffffffffffffffffff1673ffffffffffffffffffffffffffffffffffffffff163373ffffffffffffffffffffffffffffffffffffffff1614610316576040517f08c379a000000000000000000000000000000000000000000000000000000000815260040161030d90610bec565b60405180910390fd5b6001805f8373ffffffffffffffffffffffffffffffffffffffff1673ffffffffffffffffffffffffffffffffffffffff1681526020019081526020015f205f6101000a81548160ff02191690831515021790555050565b60015f3373ffffffffffffffffffffffffffffffffffffffff1673ffffffffffffffffffffffffffffffffffffffff1681526020019081526020015f205f9054906101000a900460ff166103f6576040517f08c379a00000000000000000000000000000000000000000000000000000000081526004016103ed90610c54565b60405180910390fd5b5f815111610439576040517f08c379a000000000000000000000000000000000000000000000000000000000815260040161043090610cbc565b60405180910390fd5b600260405180606001604052803373ffffffffffffffffffffffffffffffffffffffff16815260200183815260200142815250908060018154018082558091505060019003905f5260205f2090600302015f909190919091505f820151815f015f6101000a81548173ffffffffffffffffffffffffffffffffffffffff021916908373ffffffffffffffffffffffffffffffffffffffff16021790555060208201518160010190816104eb9190610e7a565b506040820151816002015550503373ffffffffffffffffffffffffffffffffffffffff167fcaf4ba9a3355d3b4552c98c7344da6269208f207fbd6406e4e1d655e92fd3d768242604051610540929190610f49565b60405180910390a250565b5f60605f6002805490508410610596576040517f08c379a000000000000000000000000000000000000000000000000000000000815260040161058d90610fc1565b60405180910390fd5b5f600285815481106105ab576105aa610fdf565b5b905f5260205f2090600302019050805f015f9054906101000a900473ffffffffffffffffffffffffffffffffffffffff168160010182600201548180546105f190610b72565b80601f016020809104026020016040519081016040528092919081815260200182805461061d90610b72565b80156106685780601f1061063f57610100808354040283529160200191610668565b820191905f5260205f20905b81548152906001019060200180831161064b57829003601f168201915b50505050509150935093509350509193909250565b5f5f9054906101000a900473ffffffffffffffffffffffffffffffffffffffff1681565b5f5f9054906101000a900473ffffffffffffffffffffffffffffffffffffffff1673ffffffffffffffffffffffffffffffffffffffff163373ffffffffffffffffffffffffffffffffffffffff161461072f576040517f08c379a000000000000000000000000000000000000000000000000000000000815260040161072690610bec565b60405180910390fd5b5f60015f8373ffffffffffffffffffffffffffffffffffffffff1673ffffffffffffffffffffffffffffffffffffffff1681526020019081526020015f205f6101000a81548160ff02191690831515021790555050565b5f600280549050905090565b6001602052805f5260405f205f915054906101000a900460ff1681565b5f604051905090565b5f5ffd5b5f5ffd5b5f819050919050565b6107d2816107c0565b81146107dc575f5ffd5b50565b5f813590506107ed816107c9565b92915050565b5f60208284031215610808576108076107b8565b5b5f610815848285016107df565b91505092915050565b5f73ffffffffffffffffffffffffffffffffffffffff82169050919050565b5f6108478261081e565b9050919050565b6108578161083d565b82525050565b5f81519050919050565b5f82825260208201905092915050565b8281835e5f83830152505050565b5f601f19601f8301169050919050565b5f61089f8261085d565b6108a98185610867565b93506108b9818560208601610877565b6108c281610885565b840191505092915050565b6108d6816107c0565b82525050565b5f6060820190506108ef5f83018661084e565b81810360208301526109018185610895565b905061091060408301846108cd565b949350505050565b6109218161083d565b811461092b575f5ffd5b50565b5f8135905061093c81610918565b92915050565b5f60208284031215610957576109566107b8565b5b5f6109648482850161092e565b91505092915050565b5f5ffd5b5f5ffd5b7f4e487b71000000000000000000000000000000000000000000000000000000005f52604160045260245ffd5b6109ab82610885565b810181811067ffffffffffffffff821117156109ca576109c9610975565b5b80604052505050565b5f6109dc6107af565b90506109e882826109a2565b919050565b5f67ffffffffffffffff821115610a0757610a06610975565b5b610a1082610885565b9050602081019050919050565b828183375f83830152505050565b5f610a3d610a38846109ed565b6109d3565b905082815260208101848484011115610a5957610a58610971565b5b610a64848285610a1d565b509392505050565b5f82601f830112610a8057610a7f61096d565b5b8135610a90848260208601610a2b565b91505092915050565b5f60208284031215610aae57610aad6107b8565b5b5f82013567ffffffffffffffff811115610acb57610aca6107bc565b5b610ad784828501610a6c565b91505092915050565b5f602082019050610af35f83018461084e565b92915050565b5f602082019050610b0c5f8301846108cd565b92915050565b5f8115159050919050565b610b2681610b12565b82525050565b5f602082019050610b3f5f830184610b1d565b92915050565b7f4e487b71000000000000000000000000000000000000000000000000000000005f52602260045260245ffd5b5f6002820490506001821680610b8957607f821691505b602082108103610b9c57610b9b610b45565b5b50919050565b7f4f6e6c79206f776e657220616c6c6f77656400000000000000000000000000005f82015250565b5f610bd6601283610867565b9150610be182610ba2565b602082019050919050565b5f6020820190508181035f830152610c0381610bca565b9050919050565b7f596f7520617265206e6f7420616c6c6f776564000000000000000000000000005f82015250565b5f610c3e601383610867565b9150610c4982610c0a565b602082019050919050565b5f6020820190508181035f830152610c6b81610c32565b9050919050565b7f4d6573736167652063616e277420626520656d707479000000000000000000005f82015250565b5f610ca6601683610867565b9150610cb182610c72565b602082019050919050565b5f6020820190508181035f830152610cd381610c9a565b9050919050565b5f819050815f5260205f209050919050565b5f6020601f8301049050919050565b5f82821b905092915050565b5f60088302610d367fffffffffffffffffffffffffffffffffffffffffffffffffffffffffffffffff82610cfb565b610d408683610cfb565b95508019841693508086168417925050509392505050565b5f819050919050565b5f610d7b610d76610d71846107c0565b610d58565b6107c0565b9050919050565b5f819050919050565b610d9483610d61565b610da8610da082610d82565b848454610d07565b825550505050565b5f5f905090565b610dbf610db0565b610dca818484610d8b565b505050565b5b81811015610ded57610de25f82610db7565b600181019050610dd0565b5050565b601f821115610e3257610e0381610cda565b610e0c84610cec565b81016020851015610e1b578190505b610e2f610e2785610cec565b830182610dcf565b50505b505050565b5f82821c905092915050565b5f610e525f1984600802610e37565b1980831691505092915050565b5f610e6a8383610e43565b9150826002028217905092915050565b610e838261085d565b67ffffffffffffffff811115610e9c57610e9b610975565b5b610ea68254610b72565b610eb1828285610df1565b5f60209050601f831160018114610ee2575f8415610ed0578287015190505b610eda8582610e5f565b865550610f41565b601f198416610ef086610cda565b5f5b82811015610f1757848901518255600182019150602085019450602081019050610ef2565b86831015610f345784890151610f30601f891682610e43565b8355505b6001600288020188555050505b505050505050565b5f6040820190508181035f830152610f618185610895565b9050610f7060208301846108cd565b9392505050565b7f506c6561736520456e7465722076616c696420696e64657800000000000000005f82015250565b5f610fab601883610867565b9150610fb682610f77565b602082019050919050565b5f6020820190508181035f830152610fd881610f9f565b9050919050565b7f4e487b71000000000000000000000000000000000000000000000000000000005f52603260045260245ffdfea26469706673582212208df9ff17700ef69e98423c53e8a3f2c52c5f39141bc854a79cf45b53666e590c64736f6c634300081e0033",
					"opcodes": "PUSH1 0x80 PUSH1 0x40 MSTORE CALLVALUE DUP1 ISZERO PUSH1 0xE JUMPI PUSH0 PUSH0 REVERT JUMPDEST POP CALLER PUSH0 PUSH0 PUSH2 0x100 EXP DUP2 SLOAD DUP2 PUSH20 0xFFFFFFFFFFFFFFFFFFFFFFFFFFFFFFFFFFFFFFFF MUL NOT AND SWAP1 DUP4 PUSH20 0xFFFFFFFFFFFFFFFFFFFFFFFFFFFFFFFFFFFFFFFF AND MUL OR SWAP1 SSTORE POP PUSH2 0x1042 DUP1 PUSH2 0x5B PUSH0 CODECOPY PUSH0 RETURN INVALID PUSH1 0x80 PUSH1 0x40 MSTORE CALLVALUE DUP1 ISZERO PUSH2 0xF JUMPI PUSH0 PUSH0 REVERT JUMPDEST POP PUSH1 0x4 CALLDATASIZE LT PUSH2 0x86 JUMPI PUSH0 CALLDATALOAD PUSH1 0xE0 SHR DUP1 PUSH4 0x8DA5CB5B GT PUSH2 0x59 JUMPI DUP1 PUSH4 0x8DA5CB5B EQ PUSH2 0x126 JUMPI DUP1 PUSH4 0xCAFD8904 EQ PUSH2 0x144 JUMPI DUP1 PUSH4 0xD45BAD0D EQ PUSH2 0x160 JUMPI DUP1 PUSH4 0xF3D1306D EQ PUSH2 0x17E JUMPI PUSH2 0x86 JUMP JUMPDEST DUP1 PUSH4 0xD80FEFD EQ PUSH2 0x8A JUMPI DUP1 PUSH4 0x21B384ED EQ PUSH2 0xBC JUMPI DUP1 PUSH4 0x6630F88F EQ PUSH2 0xD8 JUMPI DUP1 PUSH4 0x86F79EDB EQ PUSH2 0xF4 JUMPI JUMPDEST PUSH0 PUSH0 REVERT JUMPDEST PUSH2 0xA4 PUSH1 0x4 DUP1 CALLDATASIZE SUB DUP2 ADD SWAP1 PUSH2 0x9F SWAP2 SWAP1 PUSH2 0x7F3 JUMP JUMPDEST PUSH2 0x1AE JUMP JUMPDEST PUSH1 0x40 MLOAD PUSH2 0xB3 SWAP4 SWAP3 SWAP2 SWAP1 PUSH2 0x8DC JUMP JUMPDEST PUSH1 0x40 MLOAD DUP1 SWAP2 SUB SWAP1 RETURN JUMPDEST PUSH2 0xD6 PUSH1 0x4 DUP1 CALLDATASIZE SUB DUP2 ADD SWAP1 PUSH2 0xD1 SWAP2 SWAP1 PUSH2 0x942 JUMP JUMPDEST PUSH2 0x288 JUMP JUMPDEST STOP JUMPDEST PUSH2 0xF2 PUSH1 0x4 DUP1 CALLDATASIZE SUB DUP2 ADD SWAP1 PUSH2 0xED SWAP2 SWAP1 PUSH2 0xA99 JUMP JUMPDEST PUSH2 0x36D JUMP JUMPDEST STOP JUMPDEST PUSH2 0x10E PUSH1 0x4 DUP1 CALLDATASIZE SUB DUP2 ADD SWAP1 PUSH2 0x109 SWAP2 SWAP1 PUSH2 0x7F3 JUMP JUMPDEST PUSH2 0x54B JUMP JUMPDEST PUSH1 0x40 MLOAD PUSH2 0x11D SWAP4 SWAP3 SWAP2 SWAP1 PUSH2 0x8DC JUMP JUMPDEST PUSH1 0x40 MLOAD DUP1 SWAP2 SUB SWAP1 RETURN JUMPDEST PUSH2 0x12E PUSH2 0x67D JUMP JUMPDEST PUSH1 0x40 MLOAD PUSH2 0x13B SWAP2 SWAP1 PUSH2 0xAE0 JUMP JUMPDEST PUSH1 0x40 MLOAD DUP1 SWAP2 SUB SWAP1 RETURN JUMPDEST PUSH2 0x15E PUSH1 0x4 DUP1 CALLDATASIZE SUB DUP2 ADD SWAP1 PUSH2 0x159 SWAP2 SWAP1 PUSH2 0x942 JUMP JUMPDEST PUSH2 0x6A1 JUMP JUMPDEST STOP JUMPDEST PUSH2 0x168 PUSH2 0x786 JUMP JUMPDEST PUSH1 0x40 MLOAD PUSH2 0x175 SWAP2 SWAP1 PUSH2 0xAF9 JUMP JUMPDEST PUSH1 0x40 MLOAD DUP1 SWAP2 SUB SWAP1 RETURN JUMPDEST PUSH2 0x198 PUSH1 0x4 DUP1 CALLDATASIZE SUB DUP2 ADD SWAP1 PUSH2 0x193 SWAP2 SWAP1 PUSH2 0x942 JUMP JUMPDEST PUSH2 0x792 JUMP JUMPDEST PUSH1 0x40 MLOAD PUSH2 0x1A5 SWAP2 SWAP1 PUSH2 0xB2C JUMP JUMPDEST PUSH1 0x40 MLOAD DUP1 SWAP2 SUB SWAP1 RETURN JUMPDEST PUSH1 0x2 DUP2 DUP2 SLOAD DUP2 LT PUSH2 0x1BD JUMPI PUSH0 DUP1 REVERT JUMPDEST SWAP1 PUSH0 MSTORE PUSH1 0x20 PUSH0 KECCAK256 SWAP1 PUSH1 0x3 MUL ADD PUSH0 SWAP2 POP SWAP1 POP DUP1 PUSH0 ADD PUSH0 SWAP1 SLOAD SWAP1 PUSH2 0x100 EXP SWAP1 DIV PUSH20 0xFFFFFFFFFFFFFFFFFFFFFFFFFFFFFFFFFFFFFFFF AND SWAP1 DUP1 PUSH1 0x1 ADD DUP1 SLOAD PUSH2 0x201 SWAP1 PUSH2 0xB72 JUMP JUMPDEST DUP1 PUSH1 0x1F ADD PUSH1 0x20 DUP1 SWAP2 DIV MUL PUSH1 0x20 ADD PUSH1 0x40 MLOAD SWAP1 DUP2 ADD PUSH1 0x40 MSTORE DUP1 SWAP3 SWAP2 SWAP1 DUP2 DUP2 MSTORE PUSH1 0x20 ADD DUP3 DUP1 SLOAD PUSH2 0x22D SWAP1 PUSH2 0xB72 JUMP JUMPDEST DUP1 ISZERO PUSH2 0x278 JUMPI DUP1 PUSH1 0x1F LT PUSH2 0x24F JUMPI PUSH2 0x100 DUP1 DUP4 SLOAD DIV MUL DUP4 MSTORE SWAP2 PUSH1 0x20 ADD SWAP2 PUSH2 0x278 JUMP JUMPDEST DUP3 ADD SWAP2 SWAP1 PUSH0 MSTORE PUSH1 0x20 PUSH0 KECCAK256 SWAP1 JUMPDEST DUP2 SLOAD DUP2 MSTORE SWAP1 PUSH1 0x1 ADD SWAP1 PUSH1 0x20 ADD DUP1 DUP4 GT PUSH2 0x25B JUMPI DUP3 SWAP1 SUB PUSH1 0x1F AND DUP3 ADD SWAP2 JUMPDEST POP POP POP POP POP SWAP1 DUP1 PUSH1 0x2 ADD SLOAD SWAP1 POP DUP4 JUMP JUMPDEST PUSH0 PUSH0 SWAP1 SLOAD SWAP1 PUSH2 0x100 EXP SWAP1 DIV PUSH20 0xFFFFFFFFFFFFFFFFFFFFFFFFFFFFFFFFFFFFFFFF AND PUSH20 0xFFFFFFFFFFFFFFFFFFFFFFFFFFFFFFFFFFFFFFFF AND CALLER PUSH20 0xFFFFFFFFFFFFFFFFFFFFFFFFFFFFFFFFFFFFFFFF AND EQ PUSH2 0x316 JUMPI PUSH1 0x40 MLOAD PUSH32 0x8C379A000000000000000000000000000000000000000000000000000000000 DUP2 MSTORE PUSH1 0x4 ADD PUSH2 0x30D SWAP1 PUSH2 0xBEC JUMP JUMPDEST PUSH1 0x40 MLOAD DUP1 SWAP2 SUB SWAP1 REVERT JUMPDEST PUSH1 0x1 DUP1 PUSH0 DUP4 PUSH20 0xFFFFFFFFFFFFFFFFFFFFFFFFFFFFFFFFFFFFFFFF AND PUSH20 0xFFFFFFFFFFFFFFFFFFFFFFFFFFFFFFFFFFFFFFFF AND DUP2 MSTORE PUSH1 0x20 ADD SWAP1 DUP2 MSTORE PUSH1 0x20 ADD PUSH0 KECCAK256 PUSH0 PUSH2 0x100 EXP DUP2 SLOAD DUP2 PUSH1 0xFF MUL NOT AND SWAP1 DUP4 ISZERO ISZERO MUL OR SWAP1 SSTORE POP POP JUMP JUMPDEST PUSH1 0x1 PUSH0 CALLER PUSH20 0xFFFFFFFFFFFFFFFFFFFFFFFFFFFFFFFFFFFFFFFF AND PUSH20 0xFFFFFFFFFFFFFFFFFFFFFFFFFFFFFFFFFFFFFFFF AND DUP2 MSTORE PUSH1 0x20 ADD SWAP1 DUP2 MSTORE PUSH1 0x20 ADD PUSH0 KECCAK256 PUSH0 SWAP1 SLOAD SWAP1 PUSH2 0x100 EXP SWAP1 DIV PUSH1 0xFF AND PUSH2 0x3F6 JUMPI PUSH1 0x40 MLOAD PUSH32 0x8C379A000000000000000000000000000000000000000000000000000000000 DUP2 MSTORE PUSH1 0x4 ADD PUSH2 0x3ED SWAP1 PUSH2 0xC54 JUMP JUMPDEST PUSH1 0x40 MLOAD DUP1 SWAP2 SUB SWAP1 REVERT JUMPDEST PUSH0 DUP2 MLOAD GT PUSH2 0x439 JUMPI PUSH1 0x40 MLOAD PUSH32 0x8C379A000000000000000000000000000000000000000000000000000000000 DUP2 MSTORE PUSH1 0x4 ADD PUSH2 0x430 SWAP1 PUSH2 0xCBC JUMP JUMPDEST PUSH1 0x40 MLOAD DUP1 SWAP2 SUB SWAP1 REVERT JUMPDEST PUSH1 0x2 PUSH1 0x40 MLOAD DUP1 PUSH1 0x60 ADD PUSH1 0x40 MSTORE DUP1 CALLER PUSH20 0xFFFFFFFFFFFFFFFFFFFFFFFFFFFFFFFFFFFFFFFF AND DUP2 MSTORE PUSH1 0x20 ADD DUP4 DUP2 MSTORE PUSH1 0x20 ADD TIMESTAMP DUP2 MSTORE POP SWAP1 DUP1 PUSH1 0x1 DUP2 SLOAD ADD DUP1 DUP3 SSTORE DUP1 SWAP2 POP POP PUSH1 0x1 SWAP1 SUB SWAP1 PUSH0 MSTORE PUSH1 0x20 PUSH0 KECCAK256 SWAP1 PUSH1 0x3 MUL ADD PUSH0 SWAP1 SWAP2 SWAP1 SWAP2 SWAP1 SWAP2 POP PUSH0 DUP3 ADD MLOAD DUP2 PUSH0 ADD PUSH0 PUSH2 0x100 EXP DUP2 SLOAD DUP2 PUSH20 0xFFFFFFFFFFFFFFFFFFFFFFFFFFFFFFFFFFFFFFFF MUL NOT AND SWAP1 DUP4 PUSH20 0xFFFFFFFFFFFFFFFFFFFFFFFFFFFFFFFFFFFFFFFF AND MUL OR SWAP1 SSTORE POP PUSH1 0x20 DUP3 ADD MLOAD DUP2 PUSH1 0x1 ADD SWAP1 DUP2 PUSH2 0x4EB SWAP2 SWAP1 PUSH2 0xE7A JUMP JUMPDEST POP PUSH1 0x40 DUP3 ADD MLOAD DUP2 PUSH1 0x2 ADD SSTORE POP POP CALLER PUSH20 0xFFFFFFFFFFFFFFFFFFFFFFFFFFFFFFFFFFFFFFFF AND PUSH32 0xCAF4BA9A3355D3B4552C98C7344DA6269208F207FBD6406E4E1D655E92FD3D76 DUP3 TIMESTAMP PUSH1 0x40 MLOAD PUSH2 0x540 SWAP3 SWAP2 SWAP1 PUSH2 0xF49 JUMP JUMPDEST PUSH1 0x40 MLOAD DUP1 SWAP2 SUB SWAP1 LOG2 POP JUMP JUMPDEST PUSH0 PUSH1 0x60 PUSH0 PUSH1 0x2 DUP1 SLOAD SWAP1 POP DUP5 LT PUSH2 0x596 JUMPI PUSH1 0x40 MLOAD PUSH32 0x8C379A000000000000000000000000000000000000000000000000000000000 DUP2 MSTORE PUSH1 0x4 ADD PUSH2 0x58D SWAP1 PUSH2 0xFC1 JUMP JUMPDEST PUSH1 0x40 MLOAD DUP1 SWAP2 SUB SWAP1 REVERT JUMPDEST PUSH0 PUSH1 0x2 DUP6 DUP2 SLOAD DUP2 LT PUSH2 0x5AB JUMPI PUSH2 0x5AA PUSH2 0xFDF JUMP JUMPDEST JUMPDEST SWAP1 PUSH0 MSTORE PUSH1 0x20 PUSH0 KECCAK256 SWAP1 PUSH1 0x3 MUL ADD SWAP1 POP DUP1 PUSH0 ADD PUSH0 SWAP1 SLOAD SWAP1 PUSH2 0x100 EXP SWAP1 DIV PUSH20 0xFFFFFFFFFFFFFFFFFFFFFFFFFFFFFFFFFFFFFFFF AND DUP2 PUSH1 0x1 ADD DUP3 PUSH1 0x2 ADD SLOAD DUP2 DUP1 SLOAD PUSH2 0x5F1 SWAP1 PUSH2 0xB72 JUMP JUMPDEST DUP1 PUSH1 0x1F ADD PUSH1 0x20 DUP1 SWAP2 DIV MUL PUSH1 0x20 ADD PUSH1 0x40 MLOAD SWAP1 DUP2 ADD PUSH1 0x40 MSTORE DUP1 SWAP3 SWAP2 SWAP1 DUP2 DUP2 MSTORE PUSH1 0x20 ADD DUP3 DUP1 SLOAD PUSH2 0x61D SWAP1 PUSH2 0xB72 JUMP JUMPDEST DUP1 ISZERO PUSH2 0x668 JUMPI DUP1 PUSH1 0x1F LT PUSH2 0x63F JUMPI PUSH2 0x100 DUP1 DUP4 SLOAD DIV MUL DUP4 MSTORE SWAP2 PUSH1 0x20 ADD SWAP2 PUSH2 0x668 JUMP JUMPDEST DUP3 ADD SWAP2 SWAP1 PUSH0 MSTORE PUSH1 0x20 PUSH0 KECCAK256 SWAP1 JUMPDEST DUP2 SLOAD DUP2 MSTORE SWAP1 PUSH1 0x1 ADD SWAP1 PUSH1 0x20 ADD DUP1 DUP4 GT PUSH2 0x64B JUMPI DUP3 SWAP1 SUB PUSH1 0x1F AND DUP3 ADD SWAP2 JUMPDEST POP POP POP POP POP SWAP2 POP SWAP4 POP SWAP4 POP SWAP4 POP POP SWAP2 SWAP4 SWAP1 SWAP3 POP JUMP JUMPDEST PUSH0 PUSH0 SWAP1 SLOAD SWAP1 PUSH2 0x100 EXP SWAP1 DIV PUSH20 0xFFFFFFFFFFFFFFFFFFFFFFFFFFFFFFFFFFFFFFFF AND DUP2 JUMP JUMPDEST PUSH0 PUSH0 SWAP1 SLOAD SWAP1 PUSH2 0x100 EXP SWAP1 DIV PUSH20 0xFFFFFFFFFFFFFFFFFFFFFFFFFFFFFFFFFFFFFFFF AND PUSH20 0xFFFFFFFFFFFFFFFFFFFFFFFFFFFFFFFFFFFFFFFF AND CALLER PUSH20 0xFFFFFFFFFFFFFFFFFFFFFFFFFFFFFFFFFFFFFFFF AND EQ PUSH2 0x72F JUMPI PUSH1 0x40 MLOAD PUSH32 0x8C379A000000000000000000000000000000000000000000000000000000000 DUP2 MSTORE PUSH1 0x4 ADD PUSH2 0x726 SWAP1 PUSH2 0xBEC JUMP JUMPDEST PUSH1 0x40 MLOAD DUP1 SWAP2 SUB SWAP1 REVERT JUMPDEST PUSH0 PUSH1 0x1 PUSH0 DUP4 PUSH20 0xFFFFFFFFFFFFFFFFFFFFFFFFFFFFFFFFFFFFFFFF AND PUSH20 0xFFFFFFFFFFFFFFFFFFFFFFFFFFFFFFFFFFFFFFFF AND DUP2 MSTORE PUSH1 0x20 ADD SWAP1 DUP2 MSTORE PUSH1 0x20 ADD PUSH0 KECCAK256 PUSH0 PUSH2 0x100 EXP DUP2 SLOAD DUP2 PUSH1 0xFF MUL NOT AND SWAP1 DUP4 ISZERO ISZERO MUL OR SWAP1 SSTORE POP POP JUMP JUMPDEST PUSH0 PUSH1 0x2 DUP1 SLOAD SWAP1 POP SWAP1 POP SWAP1 JUMP JUMPDEST PUSH1 0x1 PUSH1 0x20 MSTORE DUP1 PUSH0 MSTORE PUSH1 0x40 PUSH0 KECCAK256 PUSH0 SWAP2 POP SLOAD SWAP1 PUSH2 0x100 EXP SWAP1 DIV PUSH1 0xFF AND DUP2 JUMP JUMPDEST PUSH0 PUSH1 0x40 MLOAD SWAP1 POP SWAP1 JUMP JUMPDEST PUSH0 PUSH0 REVERT JUMPDEST PUSH0 PUSH0 REVERT JUMPDEST PUSH0 DUP2 SWAP1 POP SWAP2 SWAP1 POP JUMP JUMPDEST PUSH2 0x7D2 DUP2 PUSH2 0x7C0 JUMP JUMPDEST DUP2 EQ PUSH2 0x7DC JUMPI PUSH0 PUSH0 REVERT JUMPDEST POP JUMP JUMPDEST PUSH0 DUP2 CALLDATALOAD SWAP1 POP PUSH2 0x7ED DUP2 PUSH2 0x7C9 JUMP JUMPDEST SWAP3 SWAP2 POP POP JUMP JUMPDEST PUSH0 PUSH1 0x20 DUP3 DUP5 SUB SLT ISZERO PUSH2 0x808 JUMPI PUSH2 0x807 PUSH2 0x7B8 JUMP JUMPDEST JUMPDEST PUSH0 PUSH2 0x815 DUP5 DUP3 DUP6 ADD PUSH2 0x7DF JUMP JUMPDEST SWAP2 POP POP SWAP3 SWAP2 POP POP JUMP JUMPDEST PUSH0 PUSH20 0xFFFFFFFFFFFFFFFFFFFFFFFFFFFFFFFFFFFFFFFF DUP3 AND SWAP1 POP SWAP2 SWAP1 POP JUMP JUMPDEST PUSH0 PUSH2 0x847 DUP3 PUSH2 0x81E JUMP JUMPDEST SWAP1 POP SWAP2 SWAP1 POP JUMP JUMPDEST PUSH2 0x857 DUP2 PUSH2 0x83D JUMP JUMPDEST DUP3 MSTORE POP POP JUMP JUMPDEST PUSH0 DUP2 MLOAD SWAP1 POP SWAP2 SWAP1 POP JUMP JUMPDEST PUSH0 DUP3 DUP3 MSTORE PUSH1 0x20 DUP3 ADD SWAP1 POP SWAP3 SWAP2 POP POP JUMP JUMPDEST DUP3 DUP2 DUP4 MCOPY PUSH0 DUP4 DUP4 ADD MSTORE POP POP POP JUMP JUMPDEST PUSH0 PUSH1 0x1F NOT PUSH1 0x1F DUP4 ADD AND SWAP1 POP SWAP2 SWAP1 POP JUMP JUMPDEST PUSH0 PUSH2 0x89F DUP3 PUSH2 0x85D JUMP JUMPDEST PUSH2 0x8A9 DUP2 DUP6 PUSH2 0x867 JUMP JUMPDEST SWAP4 POP PUSH2 0x8B9 DUP2 DUP6 PUSH1 0x20 DUP7 ADD PUSH2 0x877 JUMP JUMPDEST PUSH2 0x8C2 DUP2 PUSH2 0x885 JUMP JUMPDEST DUP5 ADD SWAP2 POP POP SWAP3 SWAP2 POP POP JUMP JUMPDEST PUSH2 0x8D6 DUP2 PUSH2 0x7C0 JUMP JUMPDEST DUP3 MSTORE POP POP JUMP JUMPDEST PUSH0 PUSH1 0x60 DUP3 ADD SWAP1 POP PUSH2 0x8EF PUSH0 DUP4 ADD DUP7 PUSH2 0x84E JUMP JUMPDEST DUP2 DUP2 SUB PUSH1 0x20 DUP4 ADD MSTORE PUSH2 0x901 DUP2 DUP6 PUSH2 0x895 JUMP JUMPDEST SWAP1 POP PUSH2 0x910 PUSH1 0x40 DUP4 ADD DUP5 PUSH2 0x8CD JUMP JUMPDEST SWAP5 SWAP4 POP POP POP POP JUMP JUMPDEST PUSH2 0x921 DUP2 PUSH2 0x83D JUMP JUMPDEST DUP2 EQ PUSH2 0x92B JUMPI PUSH0 PUSH0 REVERT JUMPDEST POP JUMP JUMPDEST PUSH0 DUP2 CALLDATALOAD SWAP1 POP PUSH2 0x93C DUP2 PUSH2 0x918 JUMP JUMPDEST SWAP3 SWAP2 POP POP JUMP JUMPDEST PUSH0 PUSH1 0x20 DUP3 DUP5 SUB SLT ISZERO PUSH2 0x957 JUMPI PUSH2 0x956 PUSH2 0x7B8 JUMP JUMPDEST JUMPDEST PUSH0 PUSH2 0x964 DUP5 DUP3 DUP6 ADD PUSH2 0x92E JUMP JUMPDEST SWAP2 POP POP SWAP3 SWAP2 POP POP JUMP JUMPDEST PUSH0 PUSH0 REVERT JUMPDEST PUSH0 PUSH0 REVERT JUMPDEST PUSH32 0x4E487B7100000000000000000000000000000000000000000000000000000000 PUSH0 MSTORE PUSH1 0x41 PUSH1 0x4 MSTORE PUSH1 0x24 PUSH0 REVERT JUMPDEST PUSH2 0x9AB DUP3 PUSH2 0x885 JUMP JUMPDEST DUP2 ADD DUP2 DUP2 LT PUSH8 0xFFFFFFFFFFFFFFFF DUP3 GT OR ISZERO PUSH2 0x9CA JUMPI PUSH2 0x9C9 PUSH2 0x975 JUMP JUMPDEST JUMPDEST DUP1 PUSH1 0x40 MSTORE POP POP POP JUMP JUMPDEST PUSH0 PUSH2 0x9DC PUSH2 0x7AF JUMP JUMPDEST SWAP1 POP PUSH2 0x9E8 DUP3 DUP3 PUSH2 0x9A2 JUMP JUMPDEST SWAP2 SWAP1 POP JUMP JUMPDEST PUSH0 PUSH8 0xFFFFFFFFFFFFFFFF DUP3 GT ISZERO PUSH2 0xA07 JUMPI PUSH2 0xA06 PUSH2 0x975 JUMP JUMPDEST JUMPDEST PUSH2 0xA10 DUP3 PUSH2 0x885 JUMP JUMPDEST SWAP1 POP PUSH1 0x20 DUP2 ADD SWAP1 POP SWAP2 SWAP1 POP JUMP JUMPDEST DUP3 DUP2 DUP4 CALLDATACOPY PUSH0 DUP4 DUP4 ADD MSTORE POP POP POP JUMP JUMPDEST PUSH0 PUSH2 0xA3D PUSH2 0xA38 DUP5 PUSH2 0x9ED JUMP JUMPDEST PUSH2 0x9D3 JUMP JUMPDEST SWAP1 POP DUP3 DUP2 MSTORE PUSH1 0x20 DUP2 ADD DUP5 DUP5 DUP5 ADD GT ISZERO PUSH2 0xA59 JUMPI PUSH2 0xA58 PUSH2 0x971 JUMP JUMPDEST JUMPDEST PUSH2 0xA64 DUP5 DUP3 DUP6 PUSH2 0xA1D JUMP JUMPDEST POP SWAP4 SWAP3 POP POP POP JUMP JUMPDEST PUSH0 DUP3 PUSH1 0x1F DUP4 ADD SLT PUSH2 0xA80 JUMPI PUSH2 0xA7F PUSH2 0x96D JUMP JUMPDEST JUMPDEST DUP2 CALLDATALOAD PUSH2 0xA90 DUP5 DUP3 PUSH1 0x20 DUP7 ADD PUSH2 0xA2B JUMP JUMPDEST SWAP2 POP POP SWAP3 SWAP2 POP POP JUMP JUMPDEST PUSH0 PUSH1 0x20 DUP3 DUP5 SUB SLT ISZERO PUSH2 0xAAE JUMPI PUSH2 0xAAD PUSH2 0x7B8 JUMP JUMPDEST JUMPDEST PUSH0 DUP3 ADD CALLDATALOAD PUSH8 0xFFFFFFFFFFFFFFFF DUP2 GT ISZERO PUSH2 0xACB JUMPI PUSH2 0xACA PUSH2 0x7BC JUMP JUMPDEST JUMPDEST PUSH2 0xAD7 DUP5 DUP3 DUP6 ADD PUSH2 0xA6C JUMP JUMPDEST SWAP2 POP POP SWAP3 SWAP2 POP POP JUMP JUMPDEST PUSH0 PUSH1 0x20 DUP3 ADD SWAP1 POP PUSH2 0xAF3 PUSH0 DUP4 ADD DUP5 PUSH2 0x84E JUMP JUMPDEST SWAP3 SWAP2 POP POP JUMP JUMPDEST PUSH0 PUSH1 0x20 DUP3 ADD SWAP1 POP PUSH2 0xB0C PUSH0 DUP4 ADD DUP5 PUSH2 0x8CD JUMP JUMPDEST SWAP3 SWAP2 POP POP JUMP JUMPDEST PUSH0 DUP2 ISZERO ISZERO SWAP1 POP SWAP2 SWAP1 POP JUMP JUMPDEST PUSH2 0xB26 DUP2 PUSH2 0xB12 JUMP JUMPDEST DUP3 MSTORE POP POP JUMP JUMPDEST PUSH0 PUSH1 0x20 DUP3 ADD SWAP1 POP PUSH2 0xB3F PUSH0 DUP4 ADD DUP5 PUSH2 0xB1D JUMP JUMPDEST SWAP3 SWAP2 POP POP JUMP JUMPDEST PUSH32 0x4E487B7100000000000000000000000000000000000000000000000000000000 PUSH0 MSTORE PUSH1 0x22 PUSH1 0x4 MSTORE PUSH1 0x24 PUSH0 REVERT JUMPDEST PUSH0 PUSH1 0x2 DUP3 DIV SWAP1 POP PUSH1 0x1 DUP3 AND DUP1 PUSH2 0xB89 JUMPI PUSH1 0x7F DUP3 AND SWAP2 POP JUMPDEST PUSH1 0x20 DUP3 LT DUP2 SUB PUSH2 0xB9C JUMPI PUSH2 0xB9B PUSH2 0xB45 JUMP JUMPDEST JUMPDEST POP SWAP2 SWAP1 POP JUMP JUMPDEST PUSH32 0x4F6E6C79206F776E657220616C6C6F7765640000000000000000000000000000 PUSH0 DUP3 ADD MSTORE POP JUMP JUMPDEST PUSH0 PUSH2 0xBD6 PUSH1 0x12 DUP4 PUSH2 0x867 JUMP JUMPDEST SWAP2 POP PUSH2 0xBE1 DUP3 PUSH2 0xBA2 JUMP JUMPDEST PUSH1 0x20 DUP3 ADD SWAP1 POP SWAP2 SWAP1 POP JUMP JUMPDEST PUSH0 PUSH1 0x20 DUP3 ADD SWAP1 POP DUP2 DUP2 SUB PUSH0 DUP4 ADD MSTORE PUSH2 0xC03 DUP2 PUSH2 0xBCA JUMP JUMPDEST SWAP1 POP SWAP2 SWAP1 POP JUMP JUMPDEST PUSH32 0x596F7520617265206E6F7420616C6C6F77656400000000000000000000000000 PUSH0 DUP3 ADD MSTORE POP JUMP JUMPDEST PUSH0 PUSH2 0xC3E PUSH1 0x13 DUP4 PUSH2 0x867 JUMP JUMPDEST SWAP2 POP PUSH2 0xC49 DUP3 PUSH2 0xC0A JUMP JUMPDEST PUSH1 0x20 DUP3 ADD SWAP1 POP SWAP2 SWAP1 POP JUMP JUMPDEST PUSH0 PUSH1 0x20 DUP3 ADD SWAP1 POP DUP2 DUP2 SUB PUSH0 DUP4 ADD MSTORE PUSH2 0xC6B DUP2 PUSH2 0xC32 JUMP JUMPDEST SWAP1 POP SWAP2 SWAP1 POP JUMP JUMPDEST PUSH32 0x4D6573736167652063616E277420626520656D70747900000000000000000000 PUSH0 DUP3 ADD MSTORE POP JUMP JUMPDEST PUSH0 PUSH2 0xCA6 PUSH1 0x16 DUP4 PUSH2 0x867 JUMP JUMPDEST SWAP2 POP PUSH2 0xCB1 DUP3 PUSH2 0xC72 JUMP JUMPDEST PUSH1 0x20 DUP3 ADD SWAP1 POP SWAP2 SWAP1 POP JUMP JUMPDEST PUSH0 PUSH1 0x20 DUP3 ADD SWAP1 POP DUP2 DUP2 SUB PUSH0 DUP4 ADD MSTORE PUSH2 0xCD3 DUP2 PUSH2 0xC9A JUMP JUMPDEST SWAP1 POP SWAP2 SWAP1 POP JUMP JUMPDEST PUSH0 DUP2 SWAP1 POP DUP2 PUSH0 MSTORE PUSH1 0x20 PUSH0 KECCAK256 SWAP1 POP SWAP2 SWAP1 POP JUMP JUMPDEST PUSH0 PUSH1 0x20 PUSH1 0x1F DUP4 ADD DIV SWAP1 POP SWAP2 SWAP1 POP JUMP JUMPDEST PUSH0 DUP3 DUP3 SHL SWAP1 POP SWAP3 SWAP2 POP POP JUMP JUMPDEST PUSH0 PUSH1 0x8 DUP4 MUL PUSH2 0xD36 PUSH32 0xFFFFFFFFFFFFFFFFFFFFFFFFFFFFFFFFFFFFFFFFFFFFFFFFFFFFFFFFFFFFFFFF DUP3 PUSH2 0xCFB JUMP JUMPDEST PUSH2 0xD40 DUP7 DUP4 PUSH2 0xCFB JUMP JUMPDEST SWAP6 POP DUP1 NOT DUP5 AND SWAP4 POP DUP1 DUP7 AND DUP5 OR SWAP3 POP POP POP SWAP4 SWAP3 POP POP POP JUMP JUMPDEST PUSH0 DUP2 SWAP1 POP SWAP2 SWAP1 POP JUMP JUMPDEST PUSH0 PUSH2 0xD7B PUSH2 0xD76 PUSH2 0xD71 DUP5 PUSH2 0x7C0 JUMP JUMPDEST PUSH2 0xD58 JUMP JUMPDEST PUSH2 0x7C0 JUMP JUMPDEST SWAP1 POP SWAP2 SWAP1 POP JUMP JUMPDEST PUSH0 DUP2 SWAP1 POP SWAP2 SWAP1 POP JUMP JUMPDEST PUSH2 0xD94 DUP4 PUSH2 0xD61 JUMP JUMPDEST PUSH2 0xDA8 PUSH2 0xDA0 DUP3 PUSH2 0xD82 JUMP JUMPDEST DUP5 DUP5 SLOAD PUSH2 0xD07 JUMP JUMPDEST DUP3 SSTORE POP POP POP POP JUMP JUMPDEST PUSH0 PUSH0 SWAP1 POP SWAP1 JUMP JUMPDEST PUSH2 0xDBF PUSH2 0xDB0 JUMP JUMPDEST PUSH2 0xDCA DUP2 DUP5 DUP5 PUSH2 0xD8B JUMP JUMPDEST POP POP POP JUMP JUMPDEST JUMPDEST DUP2 DUP2 LT ISZERO PUSH2 0xDED JUMPI PUSH2 0xDE2 PUSH0 DUP3 PUSH2 0xDB7 JUMP JUMPDEST PUSH1 0x1 DUP2 ADD SWAP1 POP PUSH2 0xDD0 JUMP JUMPDEST POP POP JUMP JUMPDEST PUSH1 0x1F DUP3 GT ISZERO PUSH2 0xE32 JUMPI PUSH2 0xE03 DUP2 PUSH2 0xCDA JUMP JUMPDEST PUSH2 0xE0C DUP5 PUSH2 0xCEC JUMP JUMPDEST DUP2 ADD PUSH1 0x20 DUP6 LT ISZERO PUSH2 0xE1B JUMPI DUP2 SWAP1 POP JUMPDEST PUSH2 0xE2F PUSH2 0xE27 DUP6 PUSH2 0xCEC JUMP JUMPDEST DUP4 ADD DUP3 PUSH2 0xDCF JUMP JUMPDEST POP POP JUMPDEST POP POP POP JUMP JUMPDEST PUSH0 DUP3 DUP3 SHR SWAP1 POP SWAP3 SWAP2 POP POP JUMP JUMPDEST PUSH0 PUSH2 0xE52 PUSH0 NOT DUP5 PUSH1 0x8 MUL PUSH2 0xE37 JUMP JUMPDEST NOT DUP1 DUP4 AND SWAP2 POP POP SWAP3 SWAP2 POP POP JUMP JUMPDEST PUSH0 PUSH2 0xE6A DUP4 DUP4 PUSH2 0xE43 JUMP JUMPDEST SWAP2 POP DUP3 PUSH1 0x2 MUL DUP3 OR SWAP1 POP SWAP3 SWAP2 POP POP JUMP JUMPDEST PUSH2 0xE83 DUP3 PUSH2 0x85D JUMP JUMPDEST PUSH8 0xFFFFFFFFFFFFFFFF DUP2 GT ISZERO PUSH2 0xE9C JUMPI PUSH2 0xE9B PUSH2 0x975 JUMP JUMPDEST JUMPDEST PUSH2 0xEA6 DUP3 SLOAD PUSH2 0xB72 JUMP JUMPDEST PUSH2 0xEB1 DUP3 DUP3 DUP6 PUSH2 0xDF1 JUMP JUMPDEST PUSH0 PUSH1 0x20 SWAP1 POP PUSH1 0x1F DUP4 GT PUSH1 0x1 DUP2 EQ PUSH2 0xEE2 JUMPI PUSH0 DUP5 ISZERO PUSH2 0xED0 JUMPI DUP3 DUP8 ADD MLOAD SWAP1 POP JUMPDEST PUSH2 0xEDA DUP6 DUP3 PUSH2 0xE5F JUMP JUMPDEST DUP7 SSTORE POP PUSH2 0xF41 JUMP JUMPDEST PUSH1 0x1F NOT DUP5 AND PUSH2 0xEF0 DUP7 PUSH2 0xCDA JUMP JUMPDEST PUSH0 JUMPDEST DUP3 DUP2 LT ISZERO PUSH2 0xF17 JUMPI DUP5 DUP10 ADD MLOAD DUP3 SSTORE PUSH1 0x1 DUP3 ADD SWAP2 POP PUSH1 0x20 DUP6 ADD SWAP5 POP PUSH1 0x20 DUP2 ADD SWAP1 POP PUSH2 0xEF2 JUMP JUMPDEST DUP7 DUP4 LT ISZERO PUSH2 0xF34 JUMPI DUP5 DUP10 ADD MLOAD PUSH2 0xF30 PUSH1 0x1F DUP10 AND DUP3 PUSH2 0xE43 JUMP JUMPDEST DUP4 SSTORE POP JUMPDEST PUSH1 0x1 PUSH1 0x2 DUP9 MUL ADD DUP9 SSTORE POP POP POP JUMPDEST POP POP POP POP POP POP JUMP JUMPDEST PUSH0 PUSH1 0x40 DUP3 ADD SWAP1 POP DUP2 DUP2 SUB PUSH0 DUP4 ADD MSTORE PUSH2 0xF61 DUP2 DUP6 PUSH2 0x895 JUMP JUMPDEST SWAP1 POP PUSH2 0xF70 PUSH1 0x20 DUP4 ADD DUP5 PUSH2 0x8CD JUMP JUMPDEST SWAP4 SWAP3 POP POP POP JUMP JUMPDEST PUSH32 0x506C6561736520456E7465722076616C696420696E6465780000000000000000 PUSH0 DUP3 ADD MSTORE POP JUMP JUMPDEST PUSH0 PUSH2 0xFAB PUSH1 0x18 DUP4 PUSH2 0x867 JUMP JUMPDEST SWAP2 POP PUSH2 0xFB6 DUP3 PUSH2 0xF77 JUMP JUMPDEST PUSH1 0x20 DUP3 ADD SWAP1 POP SWAP2 SWAP1 POP JUMP JUMPDEST PUSH0 PUSH1 0x20 DUP3 ADD SWAP1 POP DUP2 DUP2 SUB PUSH0 DUP4 ADD MSTORE PUSH2 0xFD8 DUP2 PUSH2 0xF9F JUMP JUMPDEST SWAP1 POP SWAP2 SWAP1 POP JUMP JUMPDEST PUSH32 0x4E487B7100000000000000000000000000000000000000000000000000000000 PUSH0 MSTORE PUSH1 0x32 PUSH1 0x4 MSTORE PUSH1 0x24 PUSH0 REVERT INVALID LOG2 PUSH5 0x6970667358 0x22 SLT KECCAK256 DUP14 EXTDELEGATECALL SELFDESTRUCT OR PUSH17 0xEF69E98423C53E8A3F2C52C5F39141BC8 SLOAD 0xA7 SWAP13 DELEGATECALL JUMPDEST MSTORE8 PUSH7 0x6E590C64736F6C PUSH4 0x4300081E STOP CALLER "
				},
				"gasEstimates": {
					"creation": {
						"codeDepositCost": "832400",
						"executionCost": "25132",
						"totalCost": "857532"
					},
					"external": {
						"addAllowedUser(address)": "26994",
						"allowedUsers(address)": "2899",
						"getMessage(uint256)": "infinite",
						"getTotalMessage()": "2484",
						"messages(uint256)": "infinite",
						"owner()": "2507",
						"postMessage(string)": "infinite",
						"removeAllowedUser(address)": "26992"
					}
				},
				"methodIdentifiers": {
					"addAllowedUser(address)": "21b384ed",
					"allowedUsers(address)": "f3d1306d",
					"getMessage(uint256)": "86f79edb",
					"getTotalMessage()": "d45bad0d",
					"messages(uint256)": "0d80fefd",
					"owner()": "8da5cb5b",
					"postMessage(string)": "6630f88f",
					"removeAllowedUser(address)": "cafd8904"
				}
			},
			"storageLayout": {
				"storage": [
					{
						"astId": 3,
						"contract": "contracts/Access-controled-guestbook/guestbook.sol:GuestBook",
						"label": "owner",
						"offset": 0,
						"slot": "0",
						"type": "t_address"
					},
					{
						"astId": 7,
						"contract": "contracts/Access-controled-guestbook/guestbook.sol:GuestBook",
						"label": "allowedUsers",
						"offset": 0,
						"slot": "1",
						"type": "t_mapping(t_address,t_bool)"
					},
					{
						"astId": 18,
						"contract": "contracts/Access-controled-guestbook/guestbook.sol:GuestBook",
						"label": "messages",
						"offset": 0,
						"slot": "2",
						"type": "t_array(t_struct(Message)14_storage)dyn_storage"
					}
				],
				"types": {
					"t_address": {
						"encoding": "inplace",
						"label": "address",
						"numberOfBytes": "20"
					},
					"t_array(t_struct(Message)14_storage)dyn_storage": {
						"base": "t_struct(Message)14_storage",
						"encoding": "dynamic_array",
						"label": "struct GuestBook.Message[]",
						"numberOfBytes": "32"
					},
					"t_bool": {
						"encoding": "inplace",
						"label": "bool",
						"numberOfBytes": "1"
					},
					"t_mapping(t_address,t_bool)": {
						"encoding": "mapping",
						"key": "t_address",
						"label": "mapping(address => bool)",
						"numberOfBytes": "32",
						"value": "t_bool"
					},
					"t_string_storage": {
						"encoding": "bytes",
						"label": "string",
						"numberOfBytes": "32"
					},
					"t_struct(Message)14_storage": {
						"encoding": "inplace",
						"label": "struct GuestBook.Message",
						"members": [
							{
								"astId": 9,
								"contract": "contracts/Access-controled-guestbook/guestbook.sol:GuestBook",
								"label": "sender",
								"offset": 0,
								"slot": "0",
								"type": "t_address"
							},
							{
								"astId": 11,
								"contract": "contracts/Access-controled-guestbook/guestbook.sol:GuestBook",
								"label": "content",
								"offset": 0,
								"slot": "1",
								"type": "t_string_storage"
							},
							{
								"astId": 13,
								"contract": "contracts/Access-controled-guestbook/guestbook.sol:GuestBook",
								"label": "timestamp",
								"offset": 0,
								"slot": "2",
								"type": "t_uint256"
							}
						],
						"numberOfBytes": "96"
					},
					"t_uint256": {
						"encoding": "inplace",
						"label": "uint256",
						"numberOfBytes": "32"
					}
				}
			},
			"userdoc": {
				"kind": "user",
				"methods": {},
				"version": 1
			}
		}
	}
}