{
	"contracts/functions.sol": {
		"Child": {
			"abi": [
				{
					"inputs": [
						{
							"internalType": "uint256",
							"name": "_num",
							"type": "uint256"
						}
					],
					"name": "getNumber",
					"outputs": [],
					"stateMutability": "nonpayable",
					"type": "function"
				},
				{
					"inputs": [],
					"name": "getParentNum",
					"outputs": [
						{
							"internalType": "uint256",
							"name": "",
							"type": "uint256"
						}
					],
					"stateMutability": "view",
					"type": "function"
				},
				{
					"inputs": [],
					"name": "getnum",
					"outputs": [
						{
							"internalType": "uint256",
							"name": "",
							"type": "uint256"
						}
					],
					"stateMutability": "view",
					"type": "function"
				},
				{
					"inputs": [],
					"name": "myNumber",
					"outputs": [
						{
							"internalType": "uint256",
							"name": "",
							"type": "uint256"
						}
					],
					"stateMutability": "view",
					"type": "function"
				},
				{
					"inputs": [],
					"name": "num",
					"outputs": [
						{
							"internalType": "uint256",
							"name": "",
							"type": "uint256"
						}
					],
					"stateMutability": "view",
					"type": "function"
				},
				{
					"inputs": [],
					"name": "revealPrivateNumber",
					"outputs": [
						{
							"internalType": "uint256",
							"name": "",
							"type": "uint256"
						}
					],
					"stateMutability": "view",
					"type": "function"
				},
				{
					"inputs": [
						{
							"internalType": "uint256",
							"name": "_num",
							"type": "uint256"
						}
					],
					"name": "setNum",
					"outputs": [],
					"stateMutability": "nonpayable",
					"type": "function"
				},
				{
					"inputs": [
						{
							"internalType": "uint256",
							"name": "_num",
							"type": "uint256"
						}
					],
					"name": "setNumber",
					"outputs": [],
					"stateMutability": "nonpayable",
					"type": "function"
				},
				{
					"inputs": [
						{
							"internalType": "uint256",
							"name": "_num",
							"type": "uint256"
						}
					],
					"name": "updateParentNum",
					"outputs": [],
					"stateMutability": "nonpayable",
					"type": "function"
				}
			],
			"devdoc": {
				"kind": "dev",
				"methods": {},
				"version": 1
			},
			"evm": {
				"assembly": "    /* \"contracts/functions.sol\":1862:2084  contract Child is MyContract {... */\n  mstore(0x40, 0x80)\n    /* \"contracts/functions.sol\":633:635  45 */\n  0x2d\n    /* \"contracts/functions.sol\":610:635  uint private  secret = 45 */\n  0x01\n  sstore\n    /* \"contracts/functions.sol\":1277:1279  20 */\n  0x14\n    /* \"contracts/functions.sol\":1249:1279  uint internal parentNumer = 20 */\n  0x02\n  sstore\n    /* \"contracts/functions.sol\":1540:1541  3 */\n  0x03\n    /* \"contracts/functions.sol\":1522:1541  uint public num = 3 */\n  dup1\n  sstore\n    /* \"contracts/functions.sol\":1862:2084  contract Child is MyContract {... */\n  callvalue\n  dup1\n  iszero\n  tag_1\n  jumpi\n  revert(0x00, 0x00)\ntag_1:\n  pop\n  dataSize(sub_0)\n  dup1\n  dataOffset(sub_0)\n  0x00\n  codecopy\n  0x00\n  return\nstop\n\nsub_0: assembly {\n        /* \"contracts/functions.sol\":1862:2084  contract Child is MyContract {... */\n      mstore(0x40, 0x80)\n      callvalue\n      dup1\n      iszero\n      tag_1\n      jumpi\n      revert(0x00, 0x00)\n    tag_1:\n      pop\n      jumpi(tag_2, lt(calldatasize, 0x04))\n      shr(0xe0, calldataload(0x00))\n      dup1\n      0x5aedce4c\n      gt\n      tag_12\n      jumpi\n      dup1\n      0x5aedce4c\n      eq\n      tag_7\n      jumpi\n      dup1\n      0x7d368873\n      eq\n      tag_8\n      jumpi\n      dup1\n      0xbbd1fa84\n      eq\n      tag_9\n      jumpi\n      dup1\n      0xcd16ecbf\n      eq\n      tag_10\n      jumpi\n      dup1\n      0xfc563658\n      eq\n      tag_11\n      jumpi\n      jump(tag_2)\n    tag_12:\n      dup1\n      0x06599331\n      eq\n      tag_3\n      jumpi\n      dup1\n      0x23fd0e40\n      eq\n      tag_4\n      jumpi\n      dup1\n      0x3fb5c1cb\n      eq\n      tag_5\n      jumpi\n      dup1\n      0x4e70b1dc\n      eq\n      tag_6\n      jumpi\n    tag_2:\n      revert(0x00, 0x00)\n        /* \"contracts/functions.sol\":1898:1981  function updateParentNum (uint _num) public {... */\n    tag_3:\n      tag_13\n      0x04\n      dup1\n      calldatasize\n      sub\n      dup2\n      add\n      swap1\n      tag_14\n      swap2\n      swap1\n      tag_15\n      jump\t// in\n    tag_14:\n      tag_16\n      jump\t// in\n    tag_13:\n      stop\n        /* \"contracts/functions.sol\":410:431  uint public  myNumber */\n    tag_4:\n      tag_17\n      tag_18\n      jump\t// in\n    tag_17:\n      mload(0x40)\n      tag_19\n      swap2\n      swap1\n      tag_20\n      jump\t// in\n    tag_19:\n      mload(0x40)\n      dup1\n      swap2\n      sub\n      swap1\n      return\n        /* \"contracts/functions.sol\":1549:1612  function setNumber(uint _num) external {... */\n    tag_5:\n      tag_21\n      0x04\n      dup1\n      calldatasize\n      sub\n      dup2\n      add\n      swap1\n      tag_22\n      swap2\n      swap1\n      tag_15\n      jump\t// in\n    tag_22:\n      tag_23\n      jump\t// in\n    tag_21:\n      stop\n        /* \"contracts/functions.sol\":1522:1541  uint public num = 3 */\n    tag_6:\n      tag_24\n      tag_25\n      jump\t// in\n    tag_24:\n      mload(0x40)\n      tag_26\n      swap2\n      swap1\n      tag_20\n      jump\t// in\n    tag_26:\n      mload(0x40)\n      dup1\n      swap2\n      sub\n      swap1\n      return\n        /* \"contracts/functions.sol\":959:1056  function revealPrivateNumber() public  view returns (uint) {... */\n    tag_7:\n      tag_27\n      tag_28\n      jump\t// in\n    tag_27:\n      mload(0x40)\n      tag_29\n      swap2\n      swap1\n      tag_20\n      jump\t// in\n    tag_29:\n      mload(0x40)\n      dup1\n      swap2\n      sub\n      swap1\n      return\n        /* \"contracts/functions.sol\":1782:1851  function getnum() public view returns (uint) {... */\n    tag_8:\n      tag_30\n      tag_31\n      jump\t// in\n    tag_30:\n      mload(0x40)\n      tag_32\n      swap2\n      swap1\n      tag_20\n      jump\t// in\n    tag_32:\n      mload(0x40)\n      dup1\n      swap2\n      sub\n      swap1\n      return\n        /* \"contracts/functions.sol\":1989:2081  function getParentNum () public  view  returns (uint) {... */\n    tag_9:\n      tag_33\n      tag_34\n      jump\t// in\n    tag_33:\n      mload(0x40)\n      tag_35\n      swap2\n      swap1\n      tag_20\n      jump\t// in\n    tag_35:\n      mload(0x40)\n      dup1\n      swap2\n      sub\n      swap1\n      return\n        /* \"contracts/functions.sol\":440:510  function setNum(uint _num) public {... */\n    tag_10:\n      tag_36\n      0x04\n      dup1\n      calldatasize\n      sub\n      dup2\n      add\n      swap1\n      tag_37\n      swap2\n      swap1\n      tag_15\n      jump\t// in\n    tag_37:\n      tag_38\n      jump\t// in\n    tag_36:\n      stop\n        /* \"contracts/functions.sol\":1620:1774  function getNumber(uint _num) public {... */\n    tag_11:\n      tag_39\n      0x04\n      dup1\n      calldatasize\n      sub\n      dup2\n      add\n      swap1\n      tag_40\n      swap2\n      swap1\n      tag_15\n      jump\t// in\n    tag_40:\n      tag_41\n      jump\t// in\n    tag_39:\n      stop\n        /* \"contracts/functions.sol\":1898:1981  function updateParentNum (uint _num) public {... */\n    tag_16:\n        /* \"contracts/functions.sol\":1952:1973  setParentNumber(_num) */\n      tag_43\n        /* \"contracts/functions.sol\":1968:1972  _num */\n      dup2\n        /* \"contracts/functions.sol\":1952:1967  setParentNumber */\n      tag_44\n        /* \"contracts/functions.sol\":1952:1973  setParentNumber(_num) */\n      jump\t// in\n    tag_43:\n        /* \"contracts/functions.sol\":1898:1981  function updateParentNum (uint _num) public {... */\n      pop\n      jump\t// out\n        /* \"contracts/functions.sol\":410:431  uint public  myNumber */\n    tag_18:\n      sload(0x00)\n      dup2\n      jump\t// out\n        /* \"contracts/functions.sol\":1549:1612  function setNumber(uint _num) external {... */\n    tag_23:\n        /* \"contracts/functions.sol\":1601:1605  _num */\n      dup1\n        /* \"contracts/functions.sol\":1595:1598  num */\n      0x03\n        /* \"contracts/functions.sol\":1595:1605  num = _num */\n      dup2\n      swap1\n      sstore\n      pop\n        /* \"contracts/functions.sol\":1549:1612  function setNumber(uint _num) external {... */\n      pop\n      jump\t// out\n        /* \"contracts/functions.sol\":1522:1541  uint public num = 3 */\n    tag_25:\n      sload(0x03)\n      dup2\n      jump\t// out\n        /* \"contracts/functions.sol\":959:1056  function revealPrivateNumber() public  view returns (uint) {... */\n    tag_28:\n        /* \"contracts/functions.sol\":1012:1016  uint */\n      0x00\n        /* \"contracts/functions.sol\":1032:1049  getSecretNumber() */\n      tag_47\n        /* \"contracts/functions.sol\":1032:1047  getSecretNumber */\n      tag_48\n        /* \"contracts/functions.sol\":1032:1049  getSecretNumber() */\n      jump\t// in\n    tag_47:\n        /* \"contracts/functions.sol\":1025:1049  return getSecretNumber() */\n      swap1\n      pop\n        /* \"contracts/functions.sol\":959:1056  function revealPrivateNumber() public  view returns (uint) {... */\n      swap1\n      jump\t// out\n        /* \"contracts/functions.sol\":1782:1851  function getnum() public view returns (uint) {... */\n    tag_31:\n        /* \"contracts/functions.sol\":1821:1825  uint */\n      0x00\n        /* \"contracts/functions.sol\":1841:1844  num */\n      sload(0x03)\n        /* \"contracts/functions.sol\":1834:1844  return num */\n      swap1\n      pop\n        /* \"contracts/functions.sol\":1782:1851  function getnum() public view returns (uint) {... */\n      swap1\n      jump\t// out\n        /* \"contracts/functions.sol\":1989:2081  function getParentNum () public  view  returns (uint) {... */\n    tag_34:\n        /* \"contracts/functions.sol\":2037:2041  uint */\n      0x00\n        /* \"contracts/functions.sol\":2062:2073  parentNumer */\n      sload(0x02)\n        /* \"contracts/functions.sol\":2054:2073  return  parentNumer */\n      swap1\n      pop\n        /* \"contracts/functions.sol\":1989:2081  function getParentNum () public  view  returns (uint) {... */\n      swap1\n      jump\t// out\n        /* \"contracts/functions.sol\":440:510  function setNum(uint _num) public {... */\n    tag_38:\n        /* \"contracts/functions.sol\":498:502  _num */\n      dup1\n        /* \"contracts/functions.sol\":487:495  myNumber */\n      0x00\n        /* \"contracts/functions.sol\":487:502  myNumber = _num */\n      dup2\n      swap1\n      sstore\n      pop\n        /* \"contracts/functions.sol\":440:510  function setNum(uint _num) public {... */\n      pop\n      jump\t// out\n        /* \"contracts/functions.sol\":1620:1774  function getNumber(uint _num) public {... */\n    tag_41:\n        /* \"contracts/functions.sol\":1747:1751  this */\n      address\n        /* \"contracts/functions.sol\":1747:1761  this.setNumber */\n      0xffffffffffffffffffffffffffffffffffffffff\n      and\n      0x3fb5c1cb\n        /* \"contracts/functions.sol\":1762:1766  _num */\n      dup3\n        /* \"contracts/functions.sol\":1747:1767  this.setNumber(_num) */\n      mload(0x40)\n      dup3\n      0xffffffff\n      and\n      0xe0\n      shl\n      dup2\n      mstore\n      0x04\n      add\n      tag_53\n      swap2\n      swap1\n      tag_20\n      jump\t// in\n    tag_53:\n      0x00\n      mload(0x40)\n      dup1\n      dup4\n      sub\n      dup2\n      0x00\n      dup8\n      dup1\n      extcodesize\n      iszero\n      dup1\n      iszero\n      tag_54\n      jumpi\n      revert(0x00, 0x00)\n    tag_54:\n      pop\n      gas\n      call\n      iszero\n      dup1\n      iszero\n      tag_56\n      jumpi\n      returndatacopy(0x00, 0x00, returndatasize)\n      revert(0x00, returndatasize)\n    tag_56:\n      pop\n      pop\n      pop\n      pop\n        /* \"contracts/functions.sol\":1620:1774  function getNumber(uint _num) public {... */\n      pop\n      jump\t// out\n        /* \"contracts/functions.sol\":1287:1364  function setParentNumber(uint _num) internal {... */\n    tag_44:\n        /* \"contracts/functions.sol\":1353:1357  _num */\n      dup1\n        /* \"contracts/functions.sol\":1339:1350  parentNumer */\n      0x02\n        /* \"contracts/functions.sol\":1339:1357  parentNumer = _num */\n      dup2\n      swap1\n      sstore\n      pop\n        /* \"contracts/functions.sol\":1287:1364  function setParentNumber(uint _num) internal {... */\n      pop\n      jump\t// out\n        /* \"contracts/functions.sol\":700:785  function getSecretNumber() private view returns (uint) {... */\n    tag_48:\n        /* \"contracts/functions.sol\":749:753  uint */\n      0x00\n        /* \"contracts/functions.sol\":772:778  secret */\n      sload(0x01)\n        /* \"contracts/functions.sol\":764:778  return  secret */\n      swap1\n      pop\n        /* \"contracts/functions.sol\":700:785  function getSecretNumber() private view returns (uint) {... */\n      swap1\n      jump\t// out\n        /* \"#utility.yul\":88:205   */\n    tag_60:\n        /* \"#utility.yul\":197:198   */\n      0x00\n        /* \"#utility.yul\":194:195   */\n      0x00\n        /* \"#utility.yul\":187:199   */\n      revert\n        /* \"#utility.yul\":334:411   */\n    tag_62:\n        /* \"#utility.yul\":371:378   */\n      0x00\n        /* \"#utility.yul\":400:405   */\n      dup2\n        /* \"#utility.yul\":389:405   */\n      swap1\n      pop\n        /* \"#utility.yul\":334:411   */\n      swap2\n      swap1\n      pop\n      jump\t// out\n        /* \"#utility.yul\":417:539   */\n    tag_63:\n        /* \"#utility.yul\":490:514   */\n      tag_72\n        /* \"#utility.yul\":508:513   */\n      dup2\n        /* \"#utility.yul\":490:514   */\n      tag_62\n      jump\t// in\n    tag_72:\n        /* \"#utility.yul\":483:488   */\n      dup2\n        /* \"#utility.yul\":480:515   */\n      eq\n        /* \"#utility.yul\":470:533   */\n      tag_73\n      jumpi\n        /* \"#utility.yul\":529:530   */\n      0x00\n        /* \"#utility.yul\":526:527   */\n      0x00\n        /* \"#utility.yul\":519:531   */\n      revert\n        /* \"#utility.yul\":470:533   */\n    tag_73:\n        /* \"#utility.yul\":417:539   */\n      pop\n      jump\t// out\n        /* \"#utility.yul\":545:684   */\n    tag_64:\n        /* \"#utility.yul\":591:596   */\n      0x00\n        /* \"#utility.yul\":629:635   */\n      dup2\n        /* \"#utility.yul\":616:636   */\n      calldataload\n        /* \"#utility.yul\":607:636   */\n      swap1\n      pop\n        /* \"#utility.yul\":645:678   */\n      tag_75\n        /* \"#utility.yul\":672:677   */\n      dup2\n        /* \"#utility.yul\":645:678   */\n      tag_63\n      jump\t// in\n    tag_75:\n        /* \"#utility.yul\":545:684   */\n      swap3\n      swap2\n      pop\n      pop\n      jump\t// out\n        /* \"#utility.yul\":690:1019   */\n    tag_15:\n        /* \"#utility.yul\":749:755   */\n      0x00\n        /* \"#utility.yul\":798:800   */\n      0x20\n        /* \"#utility.yul\":786:795   */\n      dup3\n        /* \"#utility.yul\":777:784   */\n      dup5\n        /* \"#utility.yul\":773:796   */\n      sub\n        /* \"#utility.yul\":769:801   */\n      slt\n        /* \"#utility.yul\":766:885   */\n      iszero\n      tag_77\n      jumpi\n        /* \"#utility.yul\":804:883   */\n      tag_78\n      tag_60\n      jump\t// in\n    tag_78:\n        /* \"#utility.yul\":766:885   */\n    tag_77:\n        /* \"#utility.yul\":924:925   */\n      0x00\n        /* \"#utility.yul\":949:1002   */\n      tag_79\n        /* \"#utility.yul\":994:1001   */\n      dup5\n        /* \"#utility.yul\":985:991   */\n      dup3\n        /* \"#utility.yul\":974:983   */\n      dup6\n        /* \"#utility.yul\":970:992   */\n      add\n        /* \"#utility.yul\":949:1002   */\n      tag_64\n      jump\t// in\n    tag_79:\n        /* \"#utility.yul\":939:1002   */\n      swap2\n      pop\n        /* \"#utility.yul\":895:1012   */\n      pop\n        /* \"#utility.yul\":690:1019   */\n      swap3\n      swap2\n      pop\n      pop\n      jump\t// out\n        /* \"#utility.yul\":1025:1143   */\n    tag_65:\n        /* \"#utility.yul\":1112:1136   */\n      tag_81\n        /* \"#utility.yul\":1130:1135   */\n      dup2\n        /* \"#utility.yul\":1112:1136   */\n      tag_62\n      jump\t// in\n    tag_81:\n        /* \"#utility.yul\":1107:1110   */\n      dup3\n        /* \"#utility.yul\":1100:1137   */\n      mstore\n        /* \"#utility.yul\":1025:1143   */\n      pop\n      pop\n      jump\t// out\n        /* \"#utility.yul\":1149:1371   */\n    tag_20:\n        /* \"#utility.yul\":1242:1246   */\n      0x00\n        /* \"#utility.yul\":1280:1282   */\n      0x20\n        /* \"#utility.yul\":1269:1278   */\n      dup3\n        /* \"#utility.yul\":1265:1283   */\n      add\n        /* \"#utility.yul\":1257:1283   */\n      swap1\n      pop\n        /* \"#utility.yul\":1293:1364   */\n      tag_83\n        /* \"#utility.yul\":1361:1362   */\n      0x00\n        /* \"#utility.yul\":1350:1359   */\n      dup4\n        /* \"#utility.yul\":1346:1363   */\n      add\n        /* \"#utility.yul\":1337:1343   */\n      dup5\n        /* \"#utility.yul\":1293:1364   */\n      tag_65\n      jump\t// in\n    tag_83:\n        /* \"#utility.yul\":1149:1371   */\n      swap3\n      swap2\n      pop\n      pop\n      jump\t// out\n\n    auxdata: 0xa2646970667358221220f7db64a85840371e60e6d1ad148fc3a29af90c2ae0de8296ce284c598df28c6f64736f6c634300081e0033\n}\n",
				"bytecode": {
					"linkReferences": {},
					"object": "6080604052602d600155601460025560038055348015601c575f5ffd5b506103218061002a5f395ff3fe608060405234801561000f575f5ffd5b5060043610610091575f3560e01c80635aedce4c116100645780635aedce4c146101095780637d36887314610127578063bbd1fa8414610145578063cd16ecbf14610163578063fc5636581461017f57610091565b8063065993311461009557806323fd0e40146100b15780633fb5c1cb146100cf5780634e70b1dc146100eb575b5f5ffd5b6100af60048036038101906100aa9190610298565b61019b565b005b6100b96101a7565b6040516100c691906102d2565b60405180910390f35b6100e960048036038101906100e49190610298565b6101ac565b005b6100f36101b6565b60405161010091906102d2565b60405180910390f35b6101116101bc565b60405161011e91906102d2565b60405180910390f35b61012f6101ca565b60405161013c91906102d2565b60405180910390f35b61014d6101d3565b60405161015a91906102d2565b60405180910390f35b61017d60048036038101906101789190610298565b6101dc565b005b61019960048036038101906101949190610298565b6101e5565b005b6101a48161024e565b50565b5f5481565b8060038190555050565b60035481565b5f6101c5610258565b905090565b5f600354905090565b5f600254905090565b805f8190555050565b3073ffffffffffffffffffffffffffffffffffffffff16633fb5c1cb826040518263ffffffff1660e01b815260040161021e91906102d2565b5f604051808303815f87803b158015610235575f5ffd5b505af1158015610247573d5f5f3e3d5ffd5b5050505050565b8060028190555050565b5f600154905090565b5f5ffd5b5f819050919050565b61027781610265565b8114610281575f5ffd5b50565b5f813590506102928161026e565b92915050565b5f602082840312156102ad576102ac610261565b5b5f6102ba84828501610284565b91505092915050565b6102cc81610265565b82525050565b5f6020820190506102e55f8301846102c3565b9291505056fea2646970667358221220f7db64a85840371e60e6d1ad148fc3a29af90c2ae0de8296ce284c598df28c6f64736f6c634300081e0033",
					"opcodes": "PUSH1 0x80 PUSH1 0x40 MSTORE PUSH1 0x2D PUSH1 0x1 SSTORE PUSH1 0x14 PUSH1 0x2 SSTORE PUSH1 0x3 DUP1 SSTORE CALLVALUE DUP1 ISZERO PUSH1 0x1C JUMPI PUSH0 PUSH0 REVERT JUMPDEST POP PUSH2 0x321 DUP1 PUSH2 0x2A PUSH0 CODECOPY PUSH0 RETURN INVALID PUSH1 0x80 PUSH1 0x40 MSTORE CALLVALUE DUP1 ISZERO PUSH2 0xF JUMPI PUSH0 PUSH0 REVERT JUMPDEST POP PUSH1 0x4 CALLDATASIZE LT PUSH2 0x91 JUMPI PUSH0 CALLDATALOAD PUSH1 0xE0 SHR DUP1 PUSH4 0x5AEDCE4C GT PUSH2 0x64 JUMPI DUP1 PUSH4 0x5AEDCE4C EQ PUSH2 0x109 JUMPI DUP1 PUSH4 0x7D368873 EQ PUSH2 0x127 JUMPI DUP1 PUSH4 0xBBD1FA84 EQ PUSH2 0x145 JUMPI DUP1 PUSH4 0xCD16ECBF EQ PUSH2 0x163 JUMPI DUP1 PUSH4 0xFC563658 EQ PUSH2 0x17F JUMPI PUSH2 0x91 JUMP JUMPDEST DUP1 PUSH4 0x6599331 EQ PUSH2 0x95 JUMPI DUP1 PUSH4 0x23FD0E40 EQ PUSH2 0xB1 JUMPI DUP1 PUSH4 0x3FB5C1CB EQ PUSH2 0xCF JUMPI DUP1 PUSH4 0x4E70B1DC EQ PUSH2 0xEB JUMPI JUMPDEST PUSH0 PUSH0 REVERT JUMPDEST PUSH2 0xAF PUSH1 0x4 DUP1 CALLDATASIZE SUB DUP2 ADD SWAP1 PUSH2 0xAA SWAP2 SWAP1 PUSH2 0x298 JUMP JUMPDEST PUSH2 0x19B JUMP JUMPDEST STOP JUMPDEST PUSH2 0xB9 PUSH2 0x1A7 JUMP JUMPDEST PUSH1 0x40 MLOAD PUSH2 0xC6 SWAP2 SWAP1 PUSH2 0x2D2 JUMP JUMPDEST PUSH1 0x40 MLOAD DUP1 SWAP2 SUB SWAP1 RETURN JUMPDEST PUSH2 0xE9 PUSH1 0x4 DUP1 CALLDATASIZE SUB DUP2 ADD SWAP1 PUSH2 0xE4 SWAP2 SWAP1 PUSH2 0x298 JUMP JUMPDEST PUSH2 0x1AC JUMP JUMPDEST STOP JUMPDEST PUSH2 0xF3 PUSH2 0x1B6 JUMP JUMPDEST PUSH1 0x40 MLOAD PUSH2 0x100 SWAP2 SWAP1 PUSH2 0x2D2 JUMP JUMPDEST PUSH1 0x40 MLOAD DUP1 SWAP2 SUB SWAP1 RETURN JUMPDEST PUSH2 0x111 PUSH2 0x1BC JUMP JUMPDEST PUSH1 0x40 MLOAD PUSH2 0x11E SWAP2 SWAP1 PUSH2 0x2D2 JUMP JUMPDEST PUSH1 0x40 MLOAD DUP1 SWAP2 SUB SWAP1 RETURN JUMPDEST PUSH2 0x12F PUSH2 0x1CA JUMP JUMPDEST PUSH1 0x40 MLOAD PUSH2 0x13C SWAP2 SWAP1 PUSH2 0x2D2 JUMP JUMPDEST PUSH1 0x40 MLOAD DUP1 SWAP2 SUB SWAP1 RETURN JUMPDEST PUSH2 0x14D PUSH2 0x1D3 JUMP JUMPDEST PUSH1 0x40 MLOAD PUSH2 0x15A SWAP2 SWAP1 PUSH2 0x2D2 JUMP JUMPDEST PUSH1 0x40 MLOAD DUP1 SWAP2 SUB SWAP1 RETURN JUMPDEST PUSH2 0x17D PUSH1 0x4 DUP1 CALLDATASIZE SUB DUP2 ADD SWAP1 PUSH2 0x178 SWAP2 SWAP1 PUSH2 0x298 JUMP JUMPDEST PUSH2 0x1DC JUMP JUMPDEST STOP JUMPDEST PUSH2 0x199 PUSH1 0x4 DUP1 CALLDATASIZE SUB DUP2 ADD SWAP1 PUSH2 0x194 SWAP2 SWAP1 PUSH2 0x298 JUMP JUMPDEST PUSH2 0x1E5 JUMP JUMPDEST STOP JUMPDEST PUSH2 0x1A4 DUP2 PUSH2 0x24E JUMP JUMPDEST POP JUMP JUMPDEST PUSH0 SLOAD DUP2 JUMP JUMPDEST DUP1 PUSH1 0x3 DUP2 SWAP1 SSTORE POP POP JUMP JUMPDEST PUSH1 0x3 SLOAD DUP2 JUMP JUMPDEST PUSH0 PUSH2 0x1C5 PUSH2 0x258 JUMP JUMPDEST SWAP1 POP SWAP1 JUMP JUMPDEST PUSH0 PUSH1 0x3 SLOAD SWAP1 POP SWAP1 JUMP JUMPDEST PUSH0 PUSH1 0x2 SLOAD SWAP1 POP SWAP1 JUMP JUMPDEST DUP1 PUSH0 DUP2 SWAP1 SSTORE POP POP JUMP JUMPDEST ADDRESS PUSH20 0xFFFFFFFFFFFFFFFFFFFFFFFFFFFFFFFFFFFFFFFF AND PUSH4 0x3FB5C1CB DUP3 PUSH1 0x40 MLOAD DUP3 PUSH4 0xFFFFFFFF AND PUSH1 0xE0 SHL DUP2 MSTORE PUSH1 0x4 ADD PUSH2 0x21E SWAP2 SWAP1 PUSH2 0x2D2 JUMP JUMPDEST PUSH0 PUSH1 0x40 MLOAD DUP1 DUP4 SUB DUP2 PUSH0 DUP8 DUP1 EXTCODESIZE ISZERO DUP1 ISZERO PUSH2 0x235 JUMPI PUSH0 PUSH0 REVERT JUMPDEST POP GAS CALL ISZERO DUP1 ISZERO PUSH2 0x247 JUMPI RETURNDATASIZE PUSH0 PUSH0 RETURNDATACOPY RETURNDATASIZE PUSH0 REVERT JUMPDEST POP POP POP POP POP JUMP JUMPDEST DUP1 PUSH1 0x2 DUP2 SWAP1 SSTORE POP POP JUMP JUMPDEST PUSH0 PUSH1 0x1 SLOAD SWAP1 POP SWAP1 JUMP JUMPDEST PUSH0 PUSH0 REVERT JUMPDEST PUSH0 DUP2 SWAP1 POP SWAP2 SWAP1 POP JUMP JUMPDEST PUSH2 0x277 DUP2 PUSH2 0x265 JUMP JUMPDEST DUP2 EQ PUSH2 0x281 JUMPI PUSH0 PUSH0 REVERT JUMPDEST POP JUMP JUMPDEST PUSH0 DUP2 CALLDATALOAD SWAP1 POP PUSH2 0x292 DUP2 PUSH2 0x26E JUMP JUMPDEST SWAP3 SWAP2 POP POP JUMP JUMPDEST PUSH0 PUSH1 0x20 DUP3 DUP5 SUB SLT ISZERO PUSH2 0x2AD JUMPI PUSH2 0x2AC PUSH2 0x261 JUMP JUMPDEST JUMPDEST PUSH0 PUSH2 0x2BA DUP5 DUP3 DUP6 ADD PUSH2 0x284 JUMP JUMPDEST SWAP2 POP POP SWAP3 SWAP2 POP POP JUMP JUMPDEST PUSH2 0x2CC DUP2 PUSH2 0x265 JUMP JUMPDEST DUP3 MSTORE POP POP JUMP JUMPDEST PUSH0 PUSH1 0x20 DUP3 ADD SWAP1 POP PUSH2 0x2E5 PUSH0 DUP4 ADD DUP5 PUSH2 0x2C3 JUMP JUMPDEST SWAP3 SWAP2 POP POP JUMP INVALID LOG2 PUSH5 0x6970667358 0x22 SLT KECCAK256 0xF7 0xDB PUSH5 0xA85840371E PUSH1 0xE6 DATALOADN 0xAD14 DUP16 0xC3 LOG2 SWAP11 EXTDELEGATECALL 0xC 0x2A RJUMP 0xDE82 SWAP7 0xCE 0x28 0x4C MSIZE DUP14 CALLCODE DUP13 PUSH16 0x64736F6C634300081E00330000000000 "
				},
				"gasEstimates": {
					"creation": {
						"codeDepositCost": "160200",
						"executionCost": "66524",
						"totalCost": "226724"
					},
					"external": {
						"getNumber(uint256)": "infinite",
						"getParentNum()": "2476",
						"getnum()": "2454",
						"myNumber()": "2447",
						"num()": "2492",
						"revealPrivateNumber()": "2466",
						"setNum(uint256)": "22580",
						"setNumber(uint256)": "22560",
						"updateParentNum(uint256)": "22545"
					}
				},
				"methodIdentifiers": {
					"getNumber(uint256)": "fc563658",
					"getParentNum()": "bbd1fa84",
					"getnum()": "7d368873",
					"myNumber()": "23fd0e40",
					"num()": "4e70b1dc",
					"revealPrivateNumber()": "5aedce4c",
					"setNum(uint256)": "cd16ecbf",
					"setNumber(uint256)": "3fb5c1cb",
					"updateParentNum(uint256)": "06599331"
				}
			},
			"storageLayout": {
				"storage": [
					{
						"astId": 3,
						"contract": "contracts/functions.sol:Child",
						"label": "myNumber",
						"offset": 0,
						"slot": "0",
						"type": "t_uint256"
					},
					{
						"astId": 16,
						"contract": "contracts/functions.sol:Child",
						"label": "secret",
						"offset": 0,
						"slot": "1",
						"type": "t_uint256"
					},
					{
						"astId": 36,
						"contract": "contracts/functions.sol:Child",
						"label": "parentNumer",
						"offset": 0,
						"slot": "2",
						"type": "t_uint256"
					},
					{
						"astId": 49,
						"contract": "contracts/functions.sol:Child",
						"label": "num",
						"offset": 0,
						"slot": "3",
						"type": "t_uint256"
					}
				],
				"types": {
					"t_uint256": {
						"encoding": "inplace",
						"label": "uint256",
						"numberOfBytes": "32"
					}
				}
			},
			"userdoc": {
				"kind": "user",
				"methods": {},
				"version": 1
			}
		}
	}
}