{
	"data": {
		"bytecode": {
			"linkReferences": {},
			"object": "6080604052348015600e575f5ffd5b5033600260016101000a81548173ffffffffffffffffffffffffffffffffffffffff021916908373ffffffffffffffffffffffffffffffffffffffff160217905550610bd38061005d5f395ff3fe608060405234801561000f575f5ffd5b50600436106100cd575f3560e01c80635d9032d71161008a578063a6f9dae111610064578063a6f9dae1146101c7578063e00fe2eb146101e3578063f2c9ecd814610201578063ff895a621461021f576100cd565b80635d9032d71461016d578063893d20e81461018b5780638da5cb5b146101a9576100cd565b806322f3e2d4146100d157806323fd0e40146100ef5780633fb5c1cb1461010d5780634e69d5601461012957806359d3ce47146101475780635d3a1f9d14610151575b5f5ffd5b6100d9610229565b6040516100e69190610509565b60405180910390f35b6100f761023b565b604051610104919061053a565b60405180910390f35b6101276004803603810190610122919061058e565b610240565b005b610131610249565b60405161013e9190610509565b60405180910390f35b61014f61025e565b005b61016b600480360381019061016691906106f5565b61027a565b005b61017561028d565b604051610182919061079c565b60405180910390f35b610193610319565b6040516101a091906107fb565b60405180910390f35b6101b1610342565b6040516101be91906107fb565b60405180910390f35b6101e160048036038101906101dc919061083e565b610368565b005b6101eb61043c565b6040516101f8919061079c565b60405180910390f35b6102096104cc565b604051610216919061053a565b60405180910390f35b6102276104d4565b005b60025f9054906101000a900460ff1681565b5f5481565b805f8190555050565b5f60025f9054906101000a900460ff16905090565b600160025f6101000a81548160ff021916908315150217905550565b80600190816102899190610a66565b5050565b6001805461029a90610896565b80601f01602080910402602001604051908101604052809291908181526020018280546102c690610896565b80156103115780601f106102e857610100808354040283529160200191610311565b820191905f5260205f20905b8154815290600101906020018083116102f457829003601f168201915b505050505081565b5f600260019054906101000a900473ffffffffffffffffffffffffffffffffffffffff16905090565b600260019054906101000a900473ffffffffffffffffffffffffffffffffffffffff1681565b600260019054906101000a900473ffffffffffffffffffffffffffffffffffffffff1673ffffffffffffffffffffffffffffffffffffffff163373ffffffffffffffffffffffffffffffffffffffff16146103f8576040517f08c379a00000000000000000000000000000000000000000000000000000000081526004016103ef90610b7f565b60405180910390fd5b80600260016101000a81548173ffffffffffffffffffffffffffffffffffffffff021916908373ffffffffffffffffffffffffffffffffffffffff16021790555050565b60606001805461044b90610896565b80601f016020809104026020016040519081016040528092919081815260200182805461047790610896565b80156104c25780601f10610499576101008083540402835291602001916104c2565b820191905f5260205f20905b8154815290600101906020018083116104a557829003601f168201915b5050505050905090565b5f5f54905090565b5f60025f6101000a81548160ff021916908315150217905550565b5f8115159050919050565b610503816104ef565b82525050565b5f60208201905061051c5f8301846104fa565b92915050565b5f819050919050565b61053481610522565b82525050565b5f60208201905061054d5f83018461052b565b92915050565b5f604051905090565b5f5ffd5b5f5ffd5b61056d81610522565b8114610577575f5ffd5b50565b5f8135905061058881610564565b92915050565b5f602082840312156105a3576105a261055c565b5b5f6105b08482850161057a565b91505092915050565b5f5ffd5b5f5ffd5b5f601f19601f8301169050919050565b7f4e487b71000000000000000000000000000000000000000000000000000000005f52604160045260245ffd5b610607826105c1565b810181811067ffffffffffffffff82111715610626576106256105d1565b5b80604052505050565b5f610638610553565b905061064482826105fe565b919050565b5f67ffffffffffffffff821115610663576106626105d1565b5b61066c826105c1565b9050602081019050919050565b828183375f83830152505050565b5f61069961069484610649565b61062f565b9050828152602081018484840111156106b5576106b46105bd565b5b6106c0848285610679565b509392505050565b5f82601f8301126106dc576106db6105b9565b5b81356106ec848260208601610687565b91505092915050565b5f6020828403121561070a5761070961055c565b5b5f82013567ffffffffffffffff81111561072757610726610560565b5b610733848285016106c8565b91505092915050565b5f81519050919050565b5f82825260208201905092915050565b8281835e5f83830152505050565b5f61076e8261073c565b6107788185610746565b9350610788818560208601610756565b610791816105c1565b840191505092915050565b5f6020820190508181035f8301526107b48184610764565b905092915050565b5f73ffffffffffffffffffffffffffffffffffffffff82169050919050565b5f6107e5826107bc565b9050919050565b6107f5816107db565b82525050565b5f60208201905061080e5f8301846107ec565b92915050565b61081d816107db565b8114610827575f5ffd5b50565b5f8135905061083881610814565b92915050565b5f602082840312156108535761085261055c565b5b5f6108608482850161082a565b91505092915050565b7f4e487b71000000000000000000000000000000000000000000000000000000005f52602260045260245ffd5b5f60028204905060018216806108ad57607f821691505b6020821081036108c0576108bf610869565b5b50919050565b5f819050815f5260205f209050919050565b5f6020601f8301049050919050565b5f82821b905092915050565b5f600883026109227fffffffffffffffffffffffffffffffffffffffffffffffffffffffffffffffff826108e7565b61092c86836108e7565b95508019841693508086168417925050509392505050565b5f819050919050565b5f61096761096261095d84610522565b610944565b610522565b9050919050565b5f819050919050565b6109808361094d565b61099461098c8261096e565b8484546108f3565b825550505050565b5f5f905090565b6109ab61099c565b6109b6818484610977565b505050565b5b818110156109d9576109ce5f826109a3565b6001810190506109bc565b5050565b601f821115610a1e576109ef816108c6565b6109f8846108d8565b81016020851015610a07578190505b610a1b610a13856108d8565b8301826109bb565b50505b505050565b5f82821c905092915050565b5f610a3e5f1984600802610a23565b1980831691505092915050565b5f610a568383610a2f565b9150826002028217905092915050565b610a6f8261073c565b67ffffffffffffffff811115610a8857610a876105d1565b5b610a928254610896565b610a9d8282856109dd565b5f60209050601f831160018114610ace575f8415610abc578287015190505b610ac68582610a4b565b865550610b2d565b601f198416610adc866108c6565b5f5b82811015610b0357848901518255600182019150602085019450602081019050610ade565b86831015610b205784890151610b1c601f891682610a2f565b8355505b6001600288020188555050505b505050505050565b7f4f6e6c79206f776e657220616c6c6f77656420746f206368616e6765000000005f82015250565b5f610b69601c83610746565b9150610b7482610b35565b602082019050919050565b5f6020820190508181035f830152610b9681610b5d565b905091905056fea26469706673582212205d6661da615bfebe3a9ca196a5015852f9c937182ab85e9c83109f4eaf2aa32664736f6c634300081e0033",
			"opcodes": "PUSH1 0x80 PUSH1 0x40 MSTORE CALLVALUE DUP1 ISZERO PUSH1 0xE JUMPI PUSH0 PUSH0 REVERT JUMPDEST POP CALLER PUSH1 0x2 PUSH1 0x1 PUSH2 0x100 EXP DUP2 SLOAD DUP2 PUSH20 0xFFFFFFFFFFFFFFFFFFFFFFFFFFFFFFFFFFFFFFFF MUL NOT AND SWAP1 DUP4 PUSH20 0xFFFFFFFFFFFFFFFFFFFFFFFFFFFFFFFFFFFFFFFF AND MUL OR SWAP1 SSTORE POP PUSH2 0xBD3 DUP1 PUSH2 0x5D PUSH0 CODECOPY PUSH0 RETURN INVALID PUSH1 0x80 PUSH1 0x40 MSTORE CALLVALUE DUP1 ISZERO PUSH2 0xF JUMPI PUSH0 PUSH0 REVERT JUMPDEST POP PUSH1 0x4 CALLDATASIZE LT PUSH2 0xCD JUMPI PUSH0 CALLDATALOAD PUSH1 0xE0 SHR DUP1 PUSH4 0x5D9032D7 GT PUSH2 0x8A JUMPI DUP1 PUSH4 0xA6F9DAE1 GT PUSH2 0x64 JUMPI DUP1 PUSH4 0xA6F9DAE1 EQ PUSH2 0x1C7 JUMPI DUP1 PUSH4 0xE00FE2EB EQ PUSH2 0x1E3 JUMPI DUP1 PUSH4 0xF2C9ECD8 EQ PUSH2 0x201 JUMPI DUP1 PUSH4 0xFF895A62 EQ PUSH2 0x21F JUMPI PUSH2 0xCD JUMP JUMPDEST DUP1 PUSH4 0x5D9032D7 EQ PUSH2 0x16D JUMPI DUP1 PUSH4 0x893D20E8 EQ PUSH2 0x18B JUMPI DUP1 PUSH4 0x8DA5CB5B EQ PUSH2 0x1A9 JUMPI PUSH2 0xCD JUMP JUMPDEST DUP1 PUSH4 0x22F3E2D4 EQ PUSH2 0xD1 JUMPI DUP1 PUSH4 0x23FD0E40 EQ PUSH2 0xEF JUMPI DUP1 PUSH4 0x3FB5C1CB EQ PUSH2 0x10D JUMPI DUP1 PUSH4 0x4E69D560 EQ PUSH2 0x129 JUMPI DUP1 PUSH4 0x59D3CE47 EQ PUSH2 0x147 JUMPI DUP1 PUSH4 0x5D3A1F9D EQ PUSH2 0x151 JUMPI JUMPDEST PUSH0 PUSH0 REVERT JUMPDEST PUSH2 0xD9 PUSH2 0x229 JUMP JUMPDEST PUSH1 0x40 MLOAD PUSH2 0xE6 SWAP2 SWAP1 PUSH2 0x509 JUMP JUMPDEST PUSH1 0x40 MLOAD DUP1 SWAP2 SUB SWAP1 RETURN JUMPDEST PUSH2 0xF7 PUSH2 0x23B JUMP JUMPDEST PUSH1 0x40 MLOAD PUSH2 0x104 SWAP2 SWAP1 PUSH2 0x53A JUMP JUMPDEST PUSH1 0x40 MLOAD DUP1 SWAP2 SUB SWAP1 RETURN JUMPDEST PUSH2 0x127 PUSH1 0x4 DUP1 CALLDATASIZE SUB DUP2 ADD SWAP1 PUSH2 0x122 SWAP2 SWAP1 PUSH2 0x58E JUMP JUMPDEST PUSH2 0x240 JUMP JUMPDEST STOP JUMPDEST PUSH2 0x131 PUSH2 0x249 JUMP JUMPDEST PUSH1 0x40 MLOAD PUSH2 0x13E SWAP2 SWAP1 PUSH2 0x509 JUMP JUMPDEST PUSH1 0x40 MLOAD DUP1 SWAP2 SUB SWAP1 RETURN JUMPDEST PUSH2 0x14F PUSH2 0x25E JUMP JUMPDEST STOP JUMPDEST PUSH2 0x16B PUSH1 0x4 DUP1 CALLDATASIZE SUB DUP2 ADD SWAP1 PUSH2 0x166 SWAP2 SWAP1 PUSH2 0x6F5 JUMP JUMPDEST PUSH2 0x27A JUMP JUMPDEST STOP JUMPDEST PUSH2 0x175 PUSH2 0x28D JUMP JUMPDEST PUSH1 0x40 MLOAD PUSH2 0x182 SWAP2 SWAP1 PUSH2 0x79C JUMP JUMPDEST PUSH1 0x40 MLOAD DUP1 SWAP2 SUB SWAP1 RETURN JUMPDEST PUSH2 0x193 PUSH2 0x319 JUMP JUMPDEST PUSH1 0x40 MLOAD PUSH2 0x1A0 SWAP2 SWAP1 PUSH2 0x7FB JUMP JUMPDEST PUSH1 0x40 MLOAD DUP1 SWAP2 SUB SWAP1 RETURN JUMPDEST PUSH2 0x1B1 PUSH2 0x342 JUMP JUMPDEST PUSH1 0x40 MLOAD PUSH2 0x1BE SWAP2 SWAP1 PUSH2 0x7FB JUMP JUMPDEST PUSH1 0x40 MLOAD DUP1 SWAP2 SUB SWAP1 RETURN JUMPDEST PUSH2 0x1E1 PUSH1 0x4 DUP1 CALLDATASIZE SUB DUP2 ADD SWAP1 PUSH2 0x1DC SWAP2 SWAP1 PUSH2 0x83E JUMP JUMPDEST PUSH2 0x368 JUMP JUMPDEST STOP JUMPDEST PUSH2 0x1EB PUSH2 0x43C JUMP JUMPDEST PUSH1 0x40 MLOAD PUSH2 0x1F8 SWAP2 SWAP1 PUSH2 0x79C JUMP JUMPDEST PUSH1 0x40 MLOAD DUP1 SWAP2 SUB SWAP1 RETURN JUMPDEST PUSH2 0x209 PUSH2 0x4CC JUMP JUMPDEST PUSH1 0x40 MLOAD PUSH2 0x216 SWAP2 SWAP1 PUSH2 0x53A JUMP JUMPDEST PUSH1 0x40 MLOAD DUP1 SWAP2 SUB SWAP1 RETURN JUMPDEST PUSH2 0x227 PUSH2 0x4D4 JUMP JUMPDEST STOP JUMPDEST PUSH1 0x2 PUSH0 SWAP1 SLOAD SWAP1 PUSH2 0x100 EXP SWAP1 DIV PUSH1 0xFF AND DUP2 JUMP JUMPDEST PUSH0 SLOAD DUP2 JUMP JUMPDEST DUP1 PUSH0 DUP2 SWAP1 SSTORE POP POP JUMP JUMPDEST PUSH0 PUSH1 0x2 PUSH0 SWAP1 SLOAD SWAP1 PUSH2 0x100 EXP SWAP1 DIV PUSH1 0xFF AND SWAP1 POP SWAP1 JUMP JUMPDEST PUSH1 0x1 PUSH1 0x2 PUSH0 PUSH2 0x100 EXP DUP2 SLOAD DUP2 PUSH1 0xFF MUL NOT AND SWAP1 DUP4 ISZERO ISZERO MUL OR SWAP1 SSTORE POP JUMP JUMPDEST DUP1 PUSH1 0x1 SWAP1 DUP2 PUSH2 0x289 SWAP2 SWAP1 PUSH2 0xA66 JUMP JUMPDEST POP POP JUMP JUMPDEST PUSH1 0x1 DUP1 SLOAD PUSH2 0x29A SWAP1 PUSH2 0x896 JUMP JUMPDEST DUP1 PUSH1 0x1F ADD PUSH1 0x20 DUP1 SWAP2 DIV MUL PUSH1 0x20 ADD PUSH1 0x40 MLOAD SWAP1 DUP2 ADD PUSH1 0x40 MSTORE DUP1 SWAP3 SWAP2 SWAP1 DUP2 DUP2 MSTORE PUSH1 0x20 ADD DUP3 DUP1 SLOAD PUSH2 0x2C6 SWAP1 PUSH2 0x896 JUMP JUMPDEST DUP1 ISZERO PUSH2 0x311 JUMPI DUP1 PUSH1 0x1F LT PUSH2 0x2E8 JUMPI PUSH2 0x100 DUP1 DUP4 SLOAD DIV MUL DUP4 MSTORE SWAP2 PUSH1 0x20 ADD SWAP2 PUSH2 0x311 JUMP JUMPDEST DUP3 ADD SWAP2 SWAP1 PUSH0 MSTORE PUSH1 0x20 PUSH0 KECCAK256 SWAP1 JUMPDEST DUP2 SLOAD DUP2 MSTORE SWAP1 PUSH1 0x1 ADD SWAP1 PUSH1 0x20 ADD DUP1 DUP4 GT PUSH2 0x2F4 JUMPI DUP3 SWAP1 SUB PUSH1 0x1F AND DUP3 ADD SWAP2 JUMPDEST POP POP POP POP POP DUP2 JUMP JUMPDEST PUSH0 PUSH1 0x2 PUSH1 0x1 SWAP1 SLOAD SWAP1 PUSH2 0x100 EXP SWAP1 DIV PUSH20 0xFFFFFFFFFFFFFFFFFFFFFFFFFFFFFFFFFFFFFFFF AND SWAP1 POP SWAP1 JUMP JUMPDEST PUSH1 0x2 PUSH1 0x1 SWAP1 SLOAD SWAP1 PUSH2 0x100 EXP SWAP1 DIV PUSH20 0xFFFFFFFFFFFFFFFFFFFFFFFFFFFFFFFFFFFFFFFF AND DUP2 JUMP JUMPDEST PUSH1 0x2 PUSH1 0x1 SWAP1 SLOAD SWAP1 PUSH2 0x100 EXP SWAP1 DIV PUSH20 0xFFFFFFFFFFFFFFFFFFFFFFFFFFFFFFFFFFFFFFFF AND PUSH20 0xFFFFFFFFFFFFFFFFFFFFFFFFFFFFFFFFFFFFFFFF AND CALLER PUSH20 0xFFFFFFFFFFFFFFFFFFFFFFFFFFFFFFFFFFFFFFFF AND EQ PUSH2 0x3F8 JUMPI PUSH1 0x40 MLOAD PUSH32 0x8C379A000000000000000000000000000000000000000000000000000000000 DUP2 MSTORE PUSH1 0x4 ADD PUSH2 0x3EF SWAP1 PUSH2 0xB7F JUMP JUMPDEST PUSH1 0x40 MLOAD DUP1 SWAP2 SUB SWAP1 REVERT JUMPDEST DUP1 PUSH1 0x2 PUSH1 0x1 PUSH2 0x100 EXP DUP2 SLOAD DUP2 PUSH20 0xFFFFFFFFFFFFFFFFFFFFFFFFFFFFFFFFFFFFFFFF MUL NOT AND SWAP1 DUP4 PUSH20 0xFFFFFFFFFFFFFFFFFFFFFFFFFFFFFFFFFFFFFFFF AND MUL OR SWAP1 SSTORE POP POP JUMP JUMPDEST PUSH1 0x60 PUSH1 0x1 DUP1 SLOAD PUSH2 0x44B SWAP1 PUSH2 0x896 JUMP JUMPDEST DUP1 PUSH1 0x1F ADD PUSH1 0x20 DUP1 SWAP2 DIV MUL PUSH1 0x20 ADD PUSH1 0x40 MLOAD SWAP1 DUP2 ADD PUSH1 0x40 MSTORE DUP1 SWAP3 SWAP2 SWAP1 DUP2 DUP2 MSTORE PUSH1 0x20 ADD DUP3 DUP1 SLOAD PUSH2 0x477 SWAP1 PUSH2 0x896 JUMP JUMPDEST DUP1 ISZERO PUSH2 0x4C2 JUMPI DUP1 PUSH1 0x1F LT PUSH2 0x499 JUMPI PUSH2 0x100 DUP1 DUP4 SLOAD DIV MUL DUP4 MSTORE SWAP2 PUSH1 0x20 ADD SWAP2 PUSH2 0x4C2 JUMP JUMPDEST DUP3 ADD SWAP2 SWAP1 PUSH0 MSTORE PUSH1 0x20 PUSH0 KECCAK256 SWAP1 JUMPDEST DUP2 SLOAD DUP2 MSTORE SWAP1 PUSH1 0x1 ADD SWAP1 PUSH1 0x20 ADD DUP1 DUP4 GT PUSH2 0x4A5 JUMPI DUP3 SWAP1 SUB PUSH1 0x1F AND DUP3 ADD SWAP2 JUMPDEST POP POP POP POP POP SWAP1 POP SWAP1 JUMP JUMPDEST PUSH0 PUSH0 SLOAD SWAP1 POP SWAP1 JUMP JUMPDEST PUSH0 PUSH1 0x2 PUSH0 PUSH2 0x100 EXP DUP2 SLOAD DUP2 PUSH1 0xFF MUL NOT AND SWAP1 DUP4 ISZERO ISZERO MUL OR SWAP1 SSTORE POP JUMP JUMPDEST PUSH0 DUP2 ISZERO ISZERO SWAP1 POP SWAP2 SWAP1 POP JUMP JUMPDEST PUSH2 0x503 DUP2 PUSH2 0x4EF JUMP JUMPDEST DUP3 MSTORE POP POP JUMP JUMPDEST PUSH0 PUSH1 0x20 DUP3 ADD SWAP1 POP PUSH2 0x51C PUSH0 DUP4 ADD DUP5 PUSH2 0x4FA JUMP JUMPDEST SWAP3 SWAP2 POP POP JUMP JUMPDEST PUSH0 DUP2 SWAP1 POP SWAP2 SWAP1 POP JUMP JUMPDEST PUSH2 0x534 DUP2 PUSH2 0x522 JUMP JUMPDEST DUP3 MSTORE POP POP JUMP JUMPDEST PUSH0 PUSH1 0x20 DUP3 ADD SWAP1 POP PUSH2 0x54D PUSH0 DUP4 ADD DUP5 PUSH2 0x52B JUMP JUMPDEST SWAP3 SWAP2 POP POP JUMP JUMPDEST PUSH0 PUSH1 0x40 MLOAD SWAP1 POP SWAP1 JUMP JUMPDEST PUSH0 PUSH0 REVERT JUMPDEST PUSH0 PUSH0 REVERT JUMPDEST PUSH2 0x56D DUP2 PUSH2 0x522 JUMP JUMPDEST DUP2 EQ PUSH2 0x577 JUMPI PUSH0 PUSH0 REVERT JUMPDEST POP JUMP JUMPDEST PUSH0 DUP2 CALLDATALOAD SWAP1 POP PUSH2 0x588 DUP2 PUSH2 0x564 JUMP JUMPDEST SWAP3 SWAP2 POP POP JUMP JUMPDEST PUSH0 PUSH1 0x20 DUP3 DUP5 SUB SLT ISZERO PUSH2 0x5A3 JUMPI PUSH2 0x5A2 PUSH2 0x55C JUMP JUMPDEST JUMPDEST PUSH0 PUSH2 0x5B0 DUP5 DUP3 DUP6 ADD PUSH2 0x57A JUMP JUMPDEST SWAP2 POP POP SWAP3 SWAP2 POP POP JUMP JUMPDEST PUSH0 PUSH0 REVERT JUMPDEST PUSH0 PUSH0 REVERT JUMPDEST PUSH0 PUSH1 0x1F NOT PUSH1 0x1F DUP4 ADD AND SWAP1 POP SWAP2 SWAP1 POP JUMP JUMPDEST PUSH32 0x4E487B7100000000000000000000000000000000000000000000000000000000 PUSH0 MSTORE PUSH1 0x41 PUSH1 0x4 MSTORE PUSH1 0x24 PUSH0 REVERT JUMPDEST PUSH2 0x607 DUP3 PUSH2 0x5C1 JUMP JUMPDEST DUP2 ADD DUP2 DUP2 LT PUSH8 0xFFFFFFFFFFFFFFFF DUP3 GT OR ISZERO PUSH2 0x626 JUMPI PUSH2 0x625 PUSH2 0x5D1 JUMP JUMPDEST JUMPDEST DUP1 PUSH1 0x40 MSTORE POP POP POP JUMP JUMPDEST PUSH0 PUSH2 0x638 PUSH2 0x553 JUMP JUMPDEST SWAP1 POP PUSH2 0x644 DUP3 DUP3 PUSH2 0x5FE JUMP JUMPDEST SWAP2 SWAP1 POP JUMP JUMPDEST PUSH0 PUSH8 0xFFFFFFFFFFFFFFFF DUP3 GT ISZERO PUSH2 0x663 JUMPI PUSH2 0x662 PUSH2 0x5D1 JUMP JUMPDEST JUMPDEST PUSH2 0x66C DUP3 PUSH2 0x5C1 JUMP JUMPDEST SWAP1 POP PUSH1 0x20 DUP2 ADD SWAP1 POP SWAP2 SWAP1 POP JUMP JUMPDEST DUP3 DUP2 DUP4 CALLDATACOPY PUSH0 DUP4 DUP4 ADD MSTORE POP POP POP JUMP JUMPDEST PUSH0 PUSH2 0x699 PUSH2 0x694 DUP5 PUSH2 0x649 JUMP JUMPDEST PUSH2 0x62F JUMP JUMPDEST SWAP1 POP DUP3 DUP2 MSTORE PUSH1 0x20 DUP2 ADD DUP5 DUP5 DUP5 ADD GT ISZERO PUSH2 0x6B5 JUMPI PUSH2 0x6B4 PUSH2 0x5BD JUMP JUMPDEST JUMPDEST PUSH2 0x6C0 DUP5 DUP3 DUP6 PUSH2 0x679 JUMP JUMPDEST POP SWAP4 SWAP3 POP POP POP JUMP JUMPDEST PUSH0 DUP3 PUSH1 0x1F DUP4 ADD SLT PUSH2 0x6DC JUMPI PUSH2 0x6DB PUSH2 0x5B9 JUMP JUMPDEST JUMPDEST DUP2 CALLDATALOAD PUSH2 0x6EC DUP5 DUP3 PUSH1 0x20 DUP7 ADD PUSH2 0x687 JUMP JUMPDEST SWAP2 POP POP SWAP3 SWAP2 POP POP JUMP JUMPDEST PUSH0 PUSH1 0x20 DUP3 DUP5 SUB SLT ISZERO PUSH2 0x70A JUMPI PUSH2 0x709 PUSH2 0x55C JUMP JUMPDEST JUMPDEST PUSH0 DUP3 ADD CALLDATALOAD PUSH8 0xFFFFFFFFFFFFFFFF DUP2 GT ISZERO PUSH2 0x727 JUMPI PUSH2 0x726 PUSH2 0x560 JUMP JUMPDEST JUMPDEST PUSH2 0x733 DUP5 DUP3 DUP6 ADD PUSH2 0x6C8 JUMP JUMPDEST SWAP2 POP POP SWAP3 SWAP2 POP POP JUMP JUMPDEST PUSH0 DUP2 MLOAD SWAP1 POP SWAP2 SWAP1 POP JUMP JUMPDEST PUSH0 DUP3 DUP3 MSTORE PUSH1 0x20 DUP3 ADD SWAP1 POP SWAP3 SWAP2 POP POP JUMP JUMPDEST DUP3 DUP2 DUP4 MCOPY PUSH0 DUP4 DUP4 ADD MSTORE POP POP POP JUMP JUMPDEST PUSH0 PUSH2 0x76E DUP3 PUSH2 0x73C JUMP JUMPDEST PUSH2 0x778 DUP2 DUP6 PUSH2 0x746 JUMP JUMPDEST SWAP4 POP PUSH2 0x788 DUP2 DUP6 PUSH1 0x20 DUP7 ADD PUSH2 0x756 JUMP JUMPDEST PUSH2 0x791 DUP2 PUSH2 0x5C1 JUMP JUMPDEST DUP5 ADD SWAP2 POP POP SWAP3 SWAP2 POP POP JUMP JUMPDEST PUSH0 PUSH1 0x20 DUP3 ADD SWAP1 POP DUP2 DUP2 SUB PUSH0 DUP4 ADD MSTORE PUSH2 0x7B4 DUP2 DUP5 PUSH2 0x764 JUMP JUMPDEST SWAP1 POP SWAP3 SWAP2 POP POP JUMP JUMPDEST PUSH0 PUSH20 0xFFFFFFFFFFFFFFFFFFFFFFFFFFFFFFFFFFFFFFFF DUP3 AND SWAP1 POP SWAP2 SWAP1 POP JUMP JUMPDEST PUSH0 PUSH2 0x7E5 DUP3 PUSH2 0x7BC JUMP JUMPDEST SWAP1 POP SWAP2 SWAP1 POP JUMP JUMPDEST PUSH2 0x7F5 DUP2 PUSH2 0x7DB JUMP JUMPDEST DUP3 MSTORE POP POP JUMP JUMPDEST PUSH0 PUSH1 0x20 DUP3 ADD SWAP1 POP PUSH2 0x80E PUSH0 DUP4 ADD DUP5 PUSH2 0x7EC JUMP JUMPDEST SWAP3 SWAP2 POP POP JUMP JUMPDEST PUSH2 0x81D DUP2 PUSH2 0x7DB JUMP JUMPDEST DUP2 EQ PUSH2 0x827 JUMPI PUSH0 PUSH0 REVERT JUMPDEST POP JUMP JUMPDEST PUSH0 DUP2 CALLDATALOAD SWAP1 POP PUSH2 0x838 DUP2 PUSH2 0x814 JUMP JUMPDEST SWAP3 SWAP2 POP POP JUMP JUMPDEST PUSH0 PUSH1 0x20 DUP3 DUP5 SUB SLT ISZERO PUSH2 0x853 JUMPI PUSH2 0x852 PUSH2 0x55C JUMP JUMPDEST JUMPDEST PUSH0 PUSH2 0x860 DUP5 DUP3 DUP6 ADD PUSH2 0x82A JUMP JUMPDEST SWAP2 POP POP SWAP3 SWAP2 POP POP JUMP JUMPDEST PUSH32 0x4E487B7100000000000000000000000000000000000000000000000000000000 PUSH0 MSTORE PUSH1 0x22 PUSH1 0x4 MSTORE PUSH1 0x24 PUSH0 REVERT JUMPDEST PUSH0 PUSH1 0x2 DUP3 DIV SWAP1 POP PUSH1 0x1 DUP3 AND DUP1 PUSH2 0x8AD JUMPI PUSH1 0x7F DUP3 AND SWAP2 POP JUMPDEST PUSH1 0x20 DUP3 LT DUP2 SUB PUSH2 0x8C0 JUMPI PUSH2 0x8BF PUSH2 0x869 JUMP JUMPDEST JUMPDEST POP SWAP2 SWAP1 POP JUMP JUMPDEST PUSH0 DUP2 SWAP1 POP DUP2 PUSH0 MSTORE PUSH1 0x20 PUSH0 KECCAK256 SWAP1 POP SWAP2 SWAP1 POP JUMP JUMPDEST PUSH0 PUSH1 0x20 PUSH1 0x1F DUP4 ADD DIV SWAP1 POP SWAP2 SWAP1 POP JUMP JUMPDEST PUSH0 DUP3 DUP3 SHL SWAP1 POP SWAP3 SWAP2 POP POP JUMP JUMPDEST PUSH0 PUSH1 0x8 DUP4 MUL PUSH2 0x922 PUSH32 0xFFFFFFFFFFFFFFFFFFFFFFFFFFFFFFFFFFFFFFFFFFFFFFFFFFFFFFFFFFFFFFFF DUP3 PUSH2 0x8E7 JUMP JUMPDEST PUSH2 0x92C DUP7 DUP4 PUSH2 0x8E7 JUMP JUMPDEST SWAP6 POP DUP1 NOT DUP5 AND SWAP4 POP DUP1 DUP7 AND DUP5 OR SWAP3 POP POP POP SWAP4 SWAP3 POP POP POP JUMP JUMPDEST PUSH0 DUP2 SWAP1 POP SWAP2 SWAP1 POP JUMP JUMPDEST PUSH0 PUSH2 0x967 PUSH2 0x962 PUSH2 0x95D DUP5 PUSH2 0x522 JUMP JUMPDEST PUSH2 0x944 JUMP JUMPDEST PUSH2 0x522 JUMP JUMPDEST SWAP1 POP SWAP2 SWAP1 POP JUMP JUMPDEST PUSH0 DUP2 SWAP1 POP SWAP2 SWAP1 POP JUMP JUMPDEST PUSH2 0x980 DUP4 PUSH2 0x94D JUMP JUMPDEST PUSH2 0x994 PUSH2 0x98C DUP3 PUSH2 0x96E JUMP JUMPDEST DUP5 DUP5 SLOAD PUSH2 0x8F3 JUMP JUMPDEST DUP3 SSTORE POP POP POP POP JUMP JUMPDEST PUSH0 PUSH0 SWAP1 POP SWAP1 JUMP JUMPDEST PUSH2 0x9AB PUSH2 0x99C JUMP JUMPDEST PUSH2 0x9B6 DUP2 DUP5 DUP5 PUSH2 0x977 JUMP JUMPDEST POP POP POP JUMP JUMPDEST JUMPDEST DUP2 DUP2 LT ISZERO PUSH2 0x9D9 JUMPI PUSH2 0x9CE PUSH0 DUP3 PUSH2 0x9A3 JUMP JUMPDEST PUSH1 0x1 DUP2 ADD SWAP1 POP PUSH2 0x9BC JUMP JUMPDEST POP POP JUMP JUMPDEST PUSH1 0x1F DUP3 GT ISZERO PUSH2 0xA1E JUMPI PUSH2 0x9EF DUP2 PUSH2 0x8C6 JUMP JUMPDEST PUSH2 0x9F8 DUP5 PUSH2 0x8D8 JUMP JUMPDEST DUP2 ADD PUSH1 0x20 DUP6 LT ISZERO PUSH2 0xA07 JUMPI DUP2 SWAP1 POP JUMPDEST PUSH2 0xA1B PUSH2 0xA13 DUP6 PUSH2 0x8D8 JUMP JUMPDEST DUP4 ADD DUP3 PUSH2 0x9BB JUMP JUMPDEST POP POP JUMPDEST POP POP POP JUMP JUMPDEST PUSH0 DUP3 DUP3 SHR SWAP1 POP SWAP3 SWAP2 POP POP JUMP JUMPDEST PUSH0 PUSH2 0xA3E PUSH0 NOT DUP5 PUSH1 0x8 MUL PUSH2 0xA23 JUMP JUMPDEST NOT DUP1 DUP4 AND SWAP2 POP POP SWAP3 SWAP2 POP POP JUMP JUMPDEST PUSH0 PUSH2 0xA56 DUP4 DUP4 PUSH2 0xA2F JUMP JUMPDEST SWAP2 POP DUP3 PUSH1 0x2 MUL DUP3 OR SWAP1 POP SWAP3 SWAP2 POP POP JUMP JUMPDEST PUSH2 0xA6F DUP3 PUSH2 0x73C JUMP JUMPDEST PUSH8 0xFFFFFFFFFFFFFFFF DUP2 GT ISZERO PUSH2 0xA88 JUMPI PUSH2 0xA87 PUSH2 0x5D1 JUMP JUMPDEST JUMPDEST PUSH2 0xA92 DUP3 SLOAD PUSH2 0x896 JUMP JUMPDEST PUSH2 0xA9D DUP3 DUP3 DUP6 PUSH2 0x9DD JUMP JUMPDEST PUSH0 PUSH1 0x20 SWAP1 POP PUSH1 0x1F DUP4 GT PUSH1 0x1 DUP2 EQ PUSH2 0xACE JUMPI PUSH0 DUP5 ISZERO PUSH2 0xABC JUMPI DUP3 DUP8 ADD MLOAD SWAP1 POP JUMPDEST PUSH2 0xAC6 DUP6 DUP3 PUSH2 0xA4B JUMP JUMPDEST DUP7 SSTORE POP PUSH2 0xB2D JUMP JUMPDEST PUSH1 0x1F NOT DUP5 AND PUSH2 0xADC DUP7 PUSH2 0x8C6 JUMP JUMPDEST PUSH0 JUMPDEST DUP3 DUP2 LT ISZERO PUSH2 0xB03 JUMPI DUP5 DUP10 ADD MLOAD DUP3 SSTORE PUSH1 0x1 DUP3 ADD SWAP2 POP PUSH1 0x20 DUP6 ADD SWAP5 POP PUSH1 0x20 DUP2 ADD SWAP1 POP PUSH2 0xADE JUMP JUMPDEST DUP7 DUP4 LT ISZERO PUSH2 0xB20 JUMPI DUP5 DUP10 ADD MLOAD PUSH2 0xB1C PUSH1 0x1F DUP10 AND DUP3 PUSH2 0xA2F JUMP JUMPDEST DUP4 SSTORE POP JUMPDEST PUSH1 0x1 PUSH1 0x2 DUP9 MUL ADD DUP9 SSTORE POP POP POP JUMPDEST POP POP POP POP POP POP JUMP JUMPDEST PUSH32 0x4F6E6C79206F776E657220616C6C6F77656420746F206368616E676500000000 PUSH0 DUP3 ADD MSTORE POP JUMP JUMPDEST PUSH0 PUSH2 0xB69 PUSH1 0x1C DUP4 PUSH2 0x746 JUMP JUMPDEST SWAP2 POP PUSH2 0xB74 DUP3 PUSH2 0xB35 JUMP JUMPDEST PUSH1 0x20 DUP3 ADD SWAP1 POP SWAP2 SWAP1 POP JUMP JUMPDEST PUSH0 PUSH1 0x20 DUP3 ADD SWAP1 POP DUP2 DUP2 SUB PUSH0 DUP4 ADD MSTORE PUSH2 0xB96 DUP2 PUSH2 0xB5D JUMP JUMPDEST SWAP1 POP SWAP2 SWAP1 POP JUMP INVALID LOG2 PUSH5 0x6970667358 0x22 SLT KECCAK256 TSTORE PUSH7 0x61DA615BFEBE3A SWAP13 LOG1 SWAP7 0xA5 ADD PC MSTORE EXTDELEGATECALL 0xC9 CALLDATACOPY XOR 0x2A 0xB8 MCOPY SWAP13 DUP4 LT SWAP16 0x4E 0xAF 0x2A LOG3 0x26 PUSH5 0x736F6C6343 STOP ADDMOD 0x1E STOP CALLER "
		},
		"gasEstimates": {
			"creation": {
				"codeDepositCost": "605400",
				"executionCost": "24952",
				"totalCost": "630352"
			},
			"external": {
				"Activate()": "24498",
				"changeOwner(address)": "27008",
				"deActivate()": "24496",
				"getNumber()": "2497",
				"getOwner()": "2611",
				"getStatus()": "2540",
				"getText()": "infinite",
				"isActive()": "2467",
				"myNumber()": "2447",
				"myText()": "infinite",
				"owner()": "2626",
				"setNumber(uint256)": "22559",
				"setText(string)": "infinite"
			}
		},
		"methodIdentifiers": {
			"Activate()": "59d3ce47",
			"changeOwner(address)": "a6f9dae1",
			"deActivate()": "ff895a62",
			"getNumber()": "f2c9ecd8",
			"getOwner()": "893d20e8",
			"getStatus()": "4e69d560",
			"getText()": "e00fe2eb",
			"isActive()": "22f3e2d4",
			"myNumber()": "23fd0e40",
			"myText()": "5d9032d7",
			"owner()": "8da5cb5b",
			"setNumber(uint256)": "3fb5c1cb",
			"setText(string)": "5d3a1f9d"
		}
	},
	"abi": [
		{
			"inputs": [],
			"stateMutability": "nonpayable",
			"type": "constructor"
		},
		{
			"inputs": [],
			"name": "Activate",
			"outputs": [],
			"stateMutability": "nonpayable",
			"type": "function"
		},
		{
			"inputs": [
				{
					"internalType": "address",
					"name": "_newOwner",
					"type": "address"
				}
			],
			"name": "changeOwner",
			"outputs": [],
			"stateMutability": "nonpayable",
			"type": "function"
		},
		{
			"inputs": [],
			"name": "deActivate",
			"outputs": [],
			"stateMutability": "nonpayable",
			"type": "function"
		},
		{
			"inputs": [],
			"name": "getNumber",
			"outputs": [
				{
					"internalType": "uint256",
					"name": "",
					"type": "uint256"
				}
			],
			"stateMutability": "view",
			"type": "function"
		},
		{
			"inputs": [],
			"name": "getOwner",
			"outputs": [
				{
					"internalType": "address",
					"name": "",
					"type": "address"
				}
			],
			"stateMutability": "view",
			"type": "function"
		},
		{
			"inputs": [],
			"name": "getStatus",
			"outputs": [
				{
					"internalType": "bool",
					"name": "",
					"type": "bool"
				}
			],
			"stateMutability": "view",
			"type": "function"
		},
		{
			"inputs": [],
			"name": "getText",
			"outputs": [
				{
					"internalType": "string",
					"name": "",
					"type": "string"
				}
			],
			"stateMutability": "view",
			"type": "function"
		},
		{
			"inputs": [],
			"name": "isActive",
			"outputs": [
				{
					"internalType": "bool",
					"name": "",
					"type": "bool"
				}
			],
			"stateMutability": "view",
			"type": "function"
		},
		{
			"inputs": [],
			"name": "myNumber",
			"outputs": [
				{
					"internalType": "uint256",
					"name": "",
					"type": "uint256"
				}
			],
			"stateMutability": "view",
			"type": "function"
		},
		{
			"inputs": [],
			"name": "myText",
			"outputs": [
				{
					"internalType": "string",
					"name": "",
					"type": "string"
				}
			],
			"stateMutability": "view",
			"type": "function"
		},
		{
			"inputs": [],
			"name": "owner",
			"outputs": [
				{
					"internalType": "address",
					"name": "",
					"type": "address"
				}
			],
			"stateMutability": "view",
			"type": "function"
		},
		{
			"inputs": [
				{
					"internalType": "uint256",
					"name": "_num",
					"type": "uint256"
				}
			],
			"name": "setNumber",
			"outputs": [],
			"stateMutability": "nonpayable",
			"type": "function"
		},
		{
			"inputs": [
				{
					"internalType": "string",
					"name": "_text",
					"type": "string"
				}
			],
			"name": "setText",
			"outputs": [],
			"stateMutability": "nonpayable",
			"type": "function"
		}
	]
}